{
  "_format": "hh-sol-artifact-1",
  "contractName": "PharmaceuticalSupplyChain",
  "sourceName": "contracts/SupplyChain.sol",
  "abi": [
    {
      "inputs": [],
      "stateMutability": "nonpayable",
      "type": "constructor"
    },
    {
      "anonymous": false,
      "inputs": [
        {
          "indexed": true,
          "internalType": "address",
          "name": "manufacturer",
          "type": "address"
        },
        {
          "indexed": false,
          "internalType": "uint256",
          "name": "timestamp",
          "type": "uint256"
        }
      ],
      "name": "ManufacturerAuthorized",
      "type": "event"
    },
    {
      "anonymous": false,
      "inputs": [
        {
          "indexed": true,
          "internalType": "address",
          "name": "manufacturer",
          "type": "address"
        },
        {
          "indexed": false,
          "internalType": "uint256",
          "name": "timestamp",
          "type": "uint256"
        }
      ],
      "name": "ManufacturerRevoked",
      "type": "event"
    },
    {
      "anonymous": false,
      "inputs": [
        {
          "indexed": true,
          "internalType": "bytes32",
          "name": "serialNumberHash",
          "type": "bytes32"
        },
        {
          "indexed": true,
          "internalType": "address",
          "name": "manufacturer",
          "type": "address"
        },
        {
          "indexed": false,
          "internalType": "uint256",
          "name": "timestamp",
          "type": "uint256"
        }
      ],
      "name": "ProductRegistered",
      "type": "event"
    },
    {
      "anonymous": false,
      "inputs": [
        {
          "indexed": true,
          "internalType": "bytes32",
          "name": "transactionHash",
          "type": "bytes32"
        },
        {
          "indexed": false,
          "internalType": "uint256",
          "name": "timestamp",
          "type": "uint256"
        }
      ],
      "name": "TransactionCompleted",
      "type": "event"
    },
    {
      "anonymous": false,
      "inputs": [
        {
          "indexed": true,
          "internalType": "bytes32",
          "name": "transactionHash",
          "type": "bytes32"
        },
        {
          "indexed": true,
          "internalType": "address",
          "name": "shipper",
          "type": "address"
        },
        {
          "indexed": true,
          "internalType": "address",
          "name": "receiver",
          "type": "address"
        },
        {
          "indexed": false,
          "internalType": "uint256",
          "name": "timestamp",
          "type": "uint256"
        }
      ],
      "name": "TransactionCreated",
      "type": "event"
    },
    {
      "inputs": [
        {
          "internalType": "address",
          "name": "_manufacturer",
          "type": "address"
        }
      ],
      "name": "authorizeManufacturer",
      "outputs": [],
      "stateMutability": "nonpayable",
      "type": "function"
    },
    {
      "inputs": [
        {
          "internalType": "address",
          "name": "",
          "type": "address"
        }
      ],
      "name": "authorizedManufacturers",
      "outputs": [
        {
          "internalType": "bool",
          "name": "",
          "type": "bool"
        }
      ],
      "stateMutability": "view",
      "type": "function"
    },
    {
      "inputs": [
        {
          "internalType": "bytes32",
          "name": "_transactionHash",
          "type": "bytes32"
        },
        {
          "internalType": "bytes32",
          "name": "_serialNumberHash",
          "type": "bytes32"
        }
      ],
      "name": "completeTransaction",
      "outputs": [],
      "stateMutability": "nonpayable",
      "type": "function"
    },
    {
      "inputs": [],
      "name": "contractOwner",
      "outputs": [
        {
          "internalType": "address",
          "name": "",
          "type": "address"
        }
      ],
      "stateMutability": "view",
      "type": "function"
    },
    {
      "inputs": [
        {
          "internalType": "bytes32",
          "name": "_serialNumberHash",
          "type": "bytes32"
        },
        {
          "internalType": "bytes32",
          "name": "_encryptedProductId",
          "type": "bytes32"
        },
        {
          "internalType": "bytes32",
          "name": "_encryptedSerialNumber",
          "type": "bytes32"
        },
        {
          "internalType": "bytes32",
          "name": "_encryptedShipperId",
          "type": "bytes32"
        },
        {
          "internalType": "bytes32",
          "name": "_encryptedReceiverId",
          "type": "bytes32"
        },
        {
          "internalType": "address",
          "name": "_receiverAddress",
          "type": "address"
        }
      ],
      "name": "createTransaction",
      "outputs": [
        {
          "internalType": "bytes32",
          "name": "",
          "type": "bytes32"
        }
      ],
      "stateMutability": "nonpayable",
      "type": "function"
    },
    {
      "inputs": [
        {
          "internalType": "bytes32",
          "name": "_serialNumberHash",
          "type": "bytes32"
        }
      ],
      "name": "getCurrentOwner",
      "outputs": [
        {
          "internalType": "address",
          "name": "",
          "type": "address"
        }
      ],
      "stateMutability": "view",
      "type": "function"
    },
    {
      "inputs": [
        {
          "internalType": "bytes32",
          "name": "_transactionHash",
          "type": "bytes32"
        }
      ],
      "name": "getTransaction",
      "outputs": [
        {
          "internalType": "bytes32",
          "name": "encryptedProductId",
          "type": "bytes32"
        },
        {
          "internalType": "bytes32",
          "name": "encryptedSerialNumber",
          "type": "bytes32"
        },
        {
          "internalType": "bytes32",
          "name": "encryptedShipperId",
          "type": "bytes32"
        },
        {
          "internalType": "bytes32",
          "name": "encryptedReceiverId",
          "type": "bytes32"
        },
        {
          "internalType": "uint256",
          "name": "timestamp",
          "type": "uint256"
        },
        {
          "internalType": "bool",
          "name": "isCompleted",
          "type": "bool"
        }
      ],
      "stateMutability": "view",
      "type": "function"
    },
    {
      "inputs": [
        {
          "internalType": "address",
          "name": "_user",
          "type": "address"
        }
      ],
      "name": "getUserTransactions",
      "outputs": [
        {
          "internalType": "bytes32[]",
          "name": "",
          "type": "bytes32[]"
        }
      ],
      "stateMutability": "view",
      "type": "function"
    },
    {
      "inputs": [
        {
          "internalType": "bytes32",
          "name": "_serialNumberHash",
          "type": "bytes32"
        }
      ],
      "name": "isRegistered",
      "outputs": [
        {
          "internalType": "bool",
          "name": "",
          "type": "bool"
        }
      ],
      "stateMutability": "view",
      "type": "function"
    },
    {
      "inputs": [
        {
          "internalType": "bytes32",
          "name": "_serialNumberHash",
          "type": "bytes32"
        },
        {
          "internalType": "bytes32",
          "name": "_encryptedProductId",
          "type": "bytes32"
        },
        {
          "internalType": "bytes32",
          "name": "_encryptedSerialNumber",
          "type": "bytes32"
        }
      ],
      "name": "registerProduct",
      "outputs": [],
      "stateMutability": "nonpayable",
      "type": "function"
    },
    {
      "inputs": [
        {
          "internalType": "address",
          "name": "_manufacturer",
          "type": "address"
        }
      ],
      "name": "revokeManufacturer",
      "outputs": [],
      "stateMutability": "nonpayable",
      "type": "function"
    }
  ],
  "bytecode": "0x608060405234801561001057600080fd5b5033600560006101000a81548173ffffffffffffffffffffffffffffffffffffffff021916908373ffffffffffffffffffffffffffffffffffffffff1602179055506001600460003373ffffffffffffffffffffffffffffffffffffffff1673ffffffffffffffffffffffffffffffffffffffff16815260200190815260200160002060006101000a81548160ff02191690831515021790555061218b806100b96000396000f3fe608060405234801561001057600080fd5b50600436106100a95760003560e01c80633aea18cc116100715780633aea18cc146101765780634aae13ca146101a6578063c763fe2e146101db578063ce606ee0146101f7578063dbe1b0e514610215578063ef92539914610231576100a9565b806305ca1ec2146100ae578063089e1b39146100de57806318b45238146100fa57806324b042451461011657806327258b2214610146575b600080fd5b6100c860048036038101906100c3919061153e565b610261565b6040516100d591906115da565b60405180910390f35b6100f860048036038101906100f391906115f5565b61072b565b005b610114600480360381019061010f91906115f5565b6108f1565b005b610130600480360381019061012b91906115f5565b610ab6565b60405161013d919061163d565b60405180910390f35b610160600480360381019061015b9190611658565b610ad6565b60405161016d919061163d565b60405180910390f35b610190600480360381019061018b9190611658565b610b00565b60405161019d9190611694565b60405180910390f35b6101c060048036038101906101bb9190611658565b610c34565b6040516101d2969594939291906116c8565b60405180910390f35b6101f560048036038101906101f09190611729565b610e8d565b005b6101ff61104b565b60405161020c9190611694565b60405180910390f35b61022f600480360381019061022a919061177c565b611071565b005b61024b600480360381019061024691906115f5565b611348565b604051610258919061187a565b60405180910390f35b6000863373ffffffffffffffffffffffffffffffffffffffff1660008083815260200190815260200160002060009054906101000a900473ffffffffffffffffffffffffffffffffffffffff1673ffffffffffffffffffffffffffffffffffffffff1614610304576040517f08c379a00000000000000000000000000000000000000000000000000000000081526004016102fb9061191f565b60405180910390fd5b6003600089815260200190815260200160002060009054906101000a900460ff16610364576040517f08c379a000000000000000000000000000000000000000000000000000000000815260040161035b9061198b565b60405180910390fd5b600073ffffffffffffffffffffffffffffffffffffffff168373ffffffffffffffffffffffffffffffffffffffff16036103d3576040517f08c379a00000000000000000000000000000000000000000000000000000000081526004016103ca906119f7565b60405180910390fd5b3373ffffffffffffffffffffffffffffffffffffffff168373ffffffffffffffffffffffffffffffffffffffff1603610441576040517f08c379a000000000000000000000000000000000000000000000000000000000815260040161043890611a63565b60405180910390fd5b6000883385424360405160200161045c959493929190611b0d565b60405160208183030381529060405280519060200120905060006040518061012001604052808a81526020018981526020018881526020018781526020014281526020018381526020016000151581526020013373ffffffffffffffffffffffffffffffffffffffff1681526020018673ffffffffffffffffffffffffffffffffffffffff1681525090508060016000848152602001908152602001600020600082015181600001556020820151816001015560408201518160020155606082015181600301556080820151816004015560a0820151816005015560c08201518160060160006101000a81548160ff02191690831515021790555060e08201518160060160016101000a81548173ffffffffffffffffffffffffffffffffffffffff021916908373ffffffffffffffffffffffffffffffffffffffff1602179055506101008201518160070160006101000a81548173ffffffffffffffffffffffffffffffffffffffff021916908373ffffffffffffffffffffffffffffffffffffffff160217905550905050600260003373ffffffffffffffffffffffffffffffffffffffff1673ffffffffffffffffffffffffffffffffffffffff168152602001908152602001600020829080600181540180825580915050600190039060005260206000200160009091909190915055600260008673ffffffffffffffffffffffffffffffffffffffff1673ffffffffffffffffffffffffffffffffffffffff1681526020019081526020016000208290806001815401808255809150506001900390600052602060002001600090919091909150558473ffffffffffffffffffffffffffffffffffffffff163373ffffffffffffffffffffffffffffffffffffffff16837f899644d4eb82881fe02a2f3ff5b90179caf815a74b619e0bf8a03d6f316c0212426040516107139190611b6c565b60405180910390a48193505050509695505050505050565b600560009054906101000a900473ffffffffffffffffffffffffffffffffffffffff1673ffffffffffffffffffffffffffffffffffffffff163373ffffffffffffffffffffffffffffffffffffffff16146107bb576040517f08c379a00000000000000000000000000000000000000000000000000000000081526004016107b290611bf9565b60405180910390fd5b600460008273ffffffffffffffffffffffffffffffffffffffff1673ffffffffffffffffffffffffffffffffffffffff16815260200190815260200160002060009054906101000a900460ff1615610848576040517f08c379a000000000000000000000000000000000000000000000000000000000815260040161083f90611c65565b60405180910390fd5b6001600460008373ffffffffffffffffffffffffffffffffffffffff1673ffffffffffffffffffffffffffffffffffffffff16815260200190815260200160002060006101000a81548160ff0219169083151502179055508073ffffffffffffffffffffffffffffffffffffffff167f82903e79efc257a6e1dcc47396601792ac42dfaa46590342a3b29ae45fa5a713426040516108e69190611b6c565b60405180910390a250565b600560009054906101000a900473ffffffffffffffffffffffffffffffffffffffff1673ffffffffffffffffffffffffffffffffffffffff163373ffffffffffffffffffffffffffffffffffffffff1614610981576040517f08c379a000000000000000000000000000000000000000000000000000000000815260040161097890611bf9565b60405180910390fd5b600460008273ffffffffffffffffffffffffffffffffffffffff1673ffffffffffffffffffffffffffffffffffffffff16815260200190815260200160002060009054906101000a900460ff16610a0d576040517f08c379a0000000000000000000000000000000000000000000000000000000008152600401610a0490611cd1565b60405180910390fd5b6000600460008373ffffffffffffffffffffffffffffffffffffffff1673ffffffffffffffffffffffffffffffffffffffff16815260200190815260200160002060006101000a81548160ff0219169083151502179055508073ffffffffffffffffffffffffffffffffffffffff167fe8d2a3ac660549a08f637582b6cbe854156af7ef2042247240ffc1fd34db7bcd42604051610aab9190611b6c565b60405180910390a250565b60046020528060005260406000206000915054906101000a900460ff1681565b60006003600083815260200190815260200160002060009054906101000a900460ff169050919050565b60003373ffffffffffffffffffffffffffffffffffffffff1660008084815260200190815260200160002060009054906101000a900473ffffffffffffffffffffffffffffffffffffffff1673ffffffffffffffffffffffffffffffffffffffff161480610bbb5750600560009054906101000a900473ffffffffffffffffffffffffffffffffffffffff1673ffffffffffffffffffffffffffffffffffffffff163373ffffffffffffffffffffffffffffffffffffffff16145b610bfa576040517f08c379a0000000000000000000000000000000000000000000000000000000008152600401610bf190611d63565b60405180910390fd5b60008083815260200190815260200160002060009054906101000a900473ffffffffffffffffffffffffffffffffffffffff169050919050565b600080600080600080600060016000898152602001908152602001600020604051806101200160405290816000820154815260200160018201548152602001600282015481526020016003820154815260200160048201548152602001600582015481526020016006820160009054906101000a900460ff161515151581526020016006820160019054906101000a900473ffffffffffffffffffffffffffffffffffffffff1673ffffffffffffffffffffffffffffffffffffffff1673ffffffffffffffffffffffffffffffffffffffff1681526020016007820160009054906101000a900473ffffffffffffffffffffffffffffffffffffffff1673ffffffffffffffffffffffffffffffffffffffff1673ffffffffffffffffffffffffffffffffffffffff168152505090506000801b8160a0015103610dac576040517f08c379a0000000000000000000000000000000000000000000000000000000008152600401610da390611dcf565b60405180910390fd5b8060e0015173ffffffffffffffffffffffffffffffffffffffff163373ffffffffffffffffffffffffffffffffffffffff161480610e1a575080610100015173ffffffffffffffffffffffffffffffffffffffff163373ffffffffffffffffffffffffffffffffffffffff16145b610e59576040517f08c379a0000000000000000000000000000000000000000000000000000000008152600401610e5090611e61565b60405180910390fd5b806000015181602001518260400151836060015184608001518560c001519650965096509650965096505091939550919395565b600460003373ffffffffffffffffffffffffffffffffffffffff1673ffffffffffffffffffffffffffffffffffffffff16815260200190815260200160002060009054906101000a900460ff16610f19576040517f08c379a0000000000000000000000000000000000000000000000000000000008152600401610f1090611ef3565b60405180910390fd5b6003600084815260200190815260200160002060009054906101000a900460ff1615610f7a576040517f08c379a0000000000000000000000000000000000000000000000000000000008152600401610f7190611f5f565b60405180910390fd5b3360008085815260200190815260200160002060006101000a81548173ffffffffffffffffffffffffffffffffffffffff021916908373ffffffffffffffffffffffffffffffffffffffff16021790555060016003600085815260200190815260200160002060006101000a81548160ff0219169083151502179055503373ffffffffffffffffffffffffffffffffffffffff16837f7382bacf18bd3d25a7b5073d2c9845f9859d0c1f96e17d3bf4ddf8a0a099534e4260405161103e9190611b6c565b60405180910390a3505050565b600560009054906101000a900473ffffffffffffffffffffffffffffffffffffffff1681565b60006001600084815260200190815260200160002090506000801b8160050154036110d1576040517f08c379a00000000000000000000000000000000000000000000000000000000081526004016110c890611dcf565b60405180910390fd5b8060060160009054906101000a900460ff1615611123576040517f08c379a000000000000000000000000000000000000000000000000000000000815260040161111a90611fcb565b60405180910390fd5b8060070160009054906101000a900473ffffffffffffffffffffffffffffffffffffffff1673ffffffffffffffffffffffffffffffffffffffff163373ffffffffffffffffffffffffffffffffffffffff16146111b5576040517f08c379a00000000000000000000000000000000000000000000000000000000081526004016111ac9061205d565b60405180910390fd5b8060060160019054906101000a900473ffffffffffffffffffffffffffffffffffffffff1673ffffffffffffffffffffffffffffffffffffffff1660008084815260200190815260200160002060009054906101000a900473ffffffffffffffffffffffffffffffffffffffff1673ffffffffffffffffffffffffffffffffffffffff1614611279576040517f08c379a0000000000000000000000000000000000000000000000000000000008152600401611270906120c9565b60405180910390fd5b8060070160009054906101000a900473ffffffffffffffffffffffffffffffffffffffff1660008084815260200190815260200160002060006101000a81548173ffffffffffffffffffffffffffffffffffffffff021916908373ffffffffffffffffffffffffffffffffffffffff16021790555060018160060160006101000a81548160ff021916908315150217905550827ff698c1d18e531666d86ab9a9062dbc6e994abb53ff9ece034d24d336ce13ed2d4260405161133b9190611b6c565b60405180910390a2505050565b60608173ffffffffffffffffffffffffffffffffffffffff163373ffffffffffffffffffffffffffffffffffffffff1614806113d15750600560009054906101000a900473ffffffffffffffffffffffffffffffffffffffff1673ffffffffffffffffffffffffffffffffffffffff163373ffffffffffffffffffffffffffffffffffffffff16145b611410576040517f08c379a000000000000000000000000000000000000000000000000000000000815260040161140790612135565b60405180910390fd5b600260008373ffffffffffffffffffffffffffffffffffffffff1673ffffffffffffffffffffffffffffffffffffffff16815260200190815260200160002080548060200260200160405190810160405280929190818152602001828054801561149957602002820191906000526020600020905b815481526020019060010190808311611485575b50505050509050919050565b600080fd5b6000819050919050565b6114bd816114aa565b81146114c857600080fd5b50565b6000813590506114da816114b4565b92915050565b600073ffffffffffffffffffffffffffffffffffffffff82169050919050565b600061150b826114e0565b9050919050565b61151b81611500565b811461152657600080fd5b50565b60008135905061153881611512565b92915050565b60008060008060008060c0878903121561155b5761155a6114a5565b5b600061156989828a016114cb565b965050602061157a89828a016114cb565b955050604061158b89828a016114cb565b945050606061159c89828a016114cb565b93505060806115ad89828a016114cb565b92505060a06115be89828a01611529565b9150509295509295509295565b6115d4816114aa565b82525050565b60006020820190506115ef60008301846115cb565b92915050565b60006020828403121561160b5761160a6114a5565b5b600061161984828501611529565b91505092915050565b60008115159050919050565b61163781611622565b82525050565b6000602082019050611652600083018461162e565b92915050565b60006020828403121561166e5761166d6114a5565b5b600061167c848285016114cb565b91505092915050565b61168e81611500565b82525050565b60006020820190506116a96000830184611685565b92915050565b6000819050919050565b6116c2816116af565b82525050565b600060c0820190506116dd60008301896115cb565b6116ea60208301886115cb565b6116f760408301876115cb565b61170460608301866115cb565b61171160808301856116b9565b61171e60a083018461162e565b979650505050505050565b600080600060608486031215611742576117416114a5565b5b6000611750868287016114cb565b9350506020611761868287016114cb565b9250506040611772868287016114cb565b9150509250925092565b60008060408385031215611793576117926114a5565b5b60006117a1858286016114cb565b92505060206117b2858286016114cb565b9150509250929050565b600081519050919050565b600082825260208201905092915050565b6000819050602082019050919050565b6117f1816114aa565b82525050565b600061180383836117e8565b60208301905092915050565b6000602082019050919050565b6000611827826117bc565b61183181856117c7565b935061183c836117d8565b8060005b8381101561186d57815161185488826117f7565b975061185f8361180f565b925050600181019050611840565b5085935050505092915050565b60006020820190508181036000830152611894818461181c565b905092915050565b600082825260208201905092915050565b7f596f7520617265206e6f74207468652063757272656e74206f776e6572206f6660008201527f2074686973206974656d00000000000000000000000000000000000000000000602082015250565b6000611909602a8361189c565b9150611914826118ad565b604082019050919050565b60006020820190508181036000830152611938816118fc565b9050919050565b7f50726f64756374206e6f74207265676973746572656400000000000000000000600082015250565b600061197560168361189c565b91506119808261193f565b602082019050919050565b600060208201905081810360008301526119a481611968565b9050919050565b7f496e76616c696420726563656976657220616464726573730000000000000000600082015250565b60006119e160188361189c565b91506119ec826119ab565b602082019050919050565b60006020820190508181036000830152611a10816119d4565b9050919050565b7f43616e6e6f74207368697020746f20796f757273656c66000000000000000000600082015250565b6000611a4d60178361189c565b9150611a5882611a17565b602082019050919050565b60006020820190508181036000830152611a7c81611a40565b9050919050565b6000819050919050565b611a9e611a99826114aa565b611a83565b82525050565b60008160601b9050919050565b6000611abc82611aa4565b9050919050565b6000611ace82611ab1565b9050919050565b611ae6611ae182611500565b611ac3565b82525050565b6000819050919050565b611b07611b02826116af565b611aec565b82525050565b6000611b198288611a8d565b602082019150611b298287611ad5565b601482019150611b398286611ad5565b601482019150611b498285611af6565b602082019150611b598284611af6565b6020820191508190509695505050505050565b6000602082019050611b8160008301846116b9565b92915050565b7f4f6e6c7920636f6e7472616374206f776e65722063616e20706572666f726d2060008201527f7468697320616374696f6e000000000000000000000000000000000000000000602082015250565b6000611be3602b8361189c565b9150611bee82611b87565b604082019050919050565b60006020820190508181036000830152611c1281611bd6565b9050919050565b7f4d616e75666163747572657220616c726561647920617574686f72697a656400600082015250565b6000611c4f601f8361189c565b9150611c5a82611c19565b602082019050919050565b60006020820190508181036000830152611c7e81611c42565b9050919050565b7f4d616e756661637475726572206e6f7420617574686f72697a65640000000000600082015250565b6000611cbb601b8361189c565b9150611cc682611c85565b602082019050919050565b60006020820190508181036000830152611cea81611cae565b9050919050565b7f4f6e6c792063757272656e74206f776e65722063616e20636865636b206f776e60008201527f6572736869700000000000000000000000000000000000000000000000000000602082015250565b6000611d4d60268361189c565b9150611d5882611cf1565b604082019050919050565b60006020820190508181036000830152611d7c81611d40565b9050919050565b7f5472616e73616374696f6e20646f6573206e6f74206578697374000000000000600082015250565b6000611db9601a8361189c565b9150611dc482611d83565b602082019050919050565b60006020820190508181036000830152611de881611dac565b9050919050565b7f4f6e6c792073686970706572206f722072656365697665722063616e2076696560008201527f77207472616e73616374696f6e00000000000000000000000000000000000000602082015250565b6000611e4b602d8361189c565b9150611e5682611def565b604082019050919050565b60006020820190508181036000830152611e7a81611e3e565b9050919050565b7f4f6e6c7920617574686f72697a6564206d616e7566616374757265727320636160008201527f6e2072656769737465722070726f647563747300000000000000000000000000602082015250565b6000611edd60338361189c565b9150611ee882611e81565b604082019050919050565b60006020820190508181036000830152611f0c81611ed0565b9050919050565b7f50726f6475637420616c72656164792072656769737465726564000000000000600082015250565b6000611f49601a8361189c565b9150611f5482611f13565b602082019050919050565b60006020820190508181036000830152611f7881611f3c565b9050919050565b7f5472616e73616374696f6e20616c726561647920636f6d706c65746564000000600082015250565b6000611fb5601d8361189c565b9150611fc082611f7f565b602082019050919050565b60006020820190508181036000830152611fe481611fa8565b9050919050565b7f4f6e6c792072656365697665722063616e20636f6d706c657465207472616e7360008201527f616374696f6e0000000000000000000000000000000000000000000000000000602082015250565b600061204760268361189c565b915061205282611feb565b604082019050919050565b600060208201905081810360008301526120768161203a565b9050919050565b7f53686970706572206973206e6f742063757272656e74206f776e657200000000600082015250565b60006120b3601c8361189c565b91506120be8261207d565b602082019050919050565b600060208201905081810360008301526120e2816120a6565b9050919050565b7f556e617574686f72697a65642061636365737300000000000000000000000000600082015250565b600061211f60138361189c565b915061212a826120e9565b602082019050919050565b6000602082019050818103600083015261214e81612112565b905091905056fea264697066735822122012544649357b26bb958a93bd9b27cf398492a36722d51063dc608a84ac6f142a64736f6c63430008140033",
  "linkReferences": {},
  "deployedLinkReferences": {}
}