{
	"SupplyChain.sol": {
		"PharmaceuticalSupplyChain": {
			"abi": [
				{
					"inputs": [],
					"stateMutability": "nonpayable",
					"type": "constructor"
				},
				{
					"anonymous": false,
					"inputs": [
						{
							"indexed": true,
							"internalType": "address",
							"name": "manufacturer",
							"type": "address"
						},
						{
							"indexed": false,
							"internalType": "uint256",
							"name": "timestamp",
							"type": "uint256"
						}
					],
					"name": "ManufacturerAuthorized",
					"type": "event"
				},
				{
					"anonymous": false,
					"inputs": [
						{
							"indexed": true,
							"internalType": "address",
							"name": "manufacturer",
							"type": "address"
						},
						{
							"indexed": false,
							"internalType": "uint256",
							"name": "timestamp",
							"type": "uint256"
						}
					],
					"name": "ManufacturerRevoked",
					"type": "event"
				},
				{
					"anonymous": false,
					"inputs": [
						{
							"indexed": true,
							"internalType": "bytes32",
							"name": "serialNumberHash",
							"type": "bytes32"
						},
						{
							"indexed": true,
							"internalType": "address",
							"name": "manufacturer",
							"type": "address"
						},
						{
							"indexed": false,
							"internalType": "uint256",
							"name": "timestamp",
							"type": "uint256"
						}
					],
					"name": "ProductRegistered",
					"type": "event"
				},
				{
					"anonymous": false,
					"inputs": [
						{
							"indexed": true,
							"internalType": "bytes32",
							"name": "transactionHash",
							"type": "bytes32"
						},
						{
							"indexed": false,
							"internalType": "uint256",
							"name": "timestamp",
							"type": "uint256"
						}
					],
					"name": "TransactionCompleted",
					"type": "event"
				},
				{
					"anonymous": false,
					"inputs": [
						{
							"indexed": true,
							"internalType": "bytes32",
							"name": "transactionHash",
							"type": "bytes32"
						},
						{
							"indexed": true,
							"internalType": "address",
							"name": "shipper",
							"type": "address"
						},
						{
							"indexed": true,
							"internalType": "address",
							"name": "receiver",
							"type": "address"
						},
						{
							"indexed": false,
							"internalType": "uint256",
							"name": "timestamp",
							"type": "uint256"
						}
					],
					"name": "TransactionCreated",
					"type": "event"
				},
				{
					"inputs": [
						{
							"internalType": "address",
							"name": "_manufacturer",
							"type": "address"
						}
					],
					"name": "authorizeManufacturer",
					"outputs": [],
					"stateMutability": "nonpayable",
					"type": "function"
				},
				{
					"inputs": [
						{
							"internalType": "address",
							"name": "",
							"type": "address"
						}
					],
					"name": "authorizedManufacturers",
					"outputs": [
						{
							"internalType": "bool",
							"name": "",
							"type": "bool"
						}
					],
					"stateMutability": "view",
					"type": "function"
				},
				{
					"inputs": [
						{
							"internalType": "bytes32",
							"name": "_transactionHash",
							"type": "bytes32"
						},
						{
							"internalType": "bytes32",
							"name": "_serialNumberHash",
							"type": "bytes32"
						}
					],
					"name": "completeTransaction",
					"outputs": [],
					"stateMutability": "nonpayable",
					"type": "function"
				},
				{
					"inputs": [],
					"name": "contractOwner",
					"outputs": [
						{
							"internalType": "address",
							"name": "",
							"type": "address"
						}
					],
					"stateMutability": "view",
					"type": "function"
				},
				{
					"inputs": [
						{
							"internalType": "bytes32",
							"name": "_serialNumberHash",
							"type": "bytes32"
						},
						{
							"internalType": "bytes32",
							"name": "_encryptedProductId",
							"type": "bytes32"
						},
						{
							"internalType": "bytes32",
							"name": "_encryptedSerialNumber",
							"type": "bytes32"
						},
						{
							"internalType": "bytes32",
							"name": "_encryptedShipperId",
							"type": "bytes32"
						},
						{
							"internalType": "bytes32",
							"name": "_encryptedReceiverId",
							"type": "bytes32"
						},
						{
							"internalType": "address",
							"name": "_receiverAddress",
							"type": "address"
						}
					],
					"name": "createTransaction",
					"outputs": [
						{
							"internalType": "bytes32",
							"name": "",
							"type": "bytes32"
						}
					],
					"stateMutability": "nonpayable",
					"type": "function"
				},
				{
					"inputs": [
						{
							"internalType": "bytes32",
							"name": "_serialNumberHash",
							"type": "bytes32"
						}
					],
					"name": "getCurrentOwner",
					"outputs": [
						{
							"internalType": "address",
							"name": "",
							"type": "address"
						}
					],
					"stateMutability": "view",
					"type": "function"
				},
				{
					"inputs": [
						{
							"internalType": "bytes32",
							"name": "_transactionHash",
							"type": "bytes32"
						}
					],
					"name": "getTransaction",
					"outputs": [
						{
							"internalType": "bytes32",
							"name": "encryptedProductId",
							"type": "bytes32"
						},
						{
							"internalType": "bytes32",
							"name": "encryptedSerialNumber",
							"type": "bytes32"
						},
						{
							"internalType": "bytes32",
							"name": "encryptedShipperId",
							"type": "bytes32"
						},
						{
							"internalType": "bytes32",
							"name": "encryptedReceiverId",
							"type": "bytes32"
						},
						{
							"internalType": "uint256",
							"name": "timestamp",
							"type": "uint256"
						},
						{
							"internalType": "bool",
							"name": "isCompleted",
							"type": "bool"
						}
					],
					"stateMutability": "view",
					"type": "function"
				},
				{
					"inputs": [
						{
							"internalType": "address",
							"name": "_user",
							"type": "address"
						}
					],
					"name": "getUserTransactions",
					"outputs": [
						{
							"internalType": "bytes32[]",
							"name": "",
							"type": "bytes32[]"
						}
					],
					"stateMutability": "view",
					"type": "function"
				},
				{
					"inputs": [
						{
							"internalType": "bytes32",
							"name": "_serialNumberHash",
							"type": "bytes32"
						}
					],
					"name": "isRegistered",
					"outputs": [
						{
							"internalType": "bool",
							"name": "",
							"type": "bool"
						}
					],
					"stateMutability": "view",
					"type": "function"
				},
				{
					"inputs": [
						{
							"internalType": "bytes32",
							"name": "_serialNumberHash",
							"type": "bytes32"
						},
						{
							"internalType": "bytes32",
							"name": "_encryptedProductId",
							"type": "bytes32"
						},
						{
							"internalType": "bytes32",
							"name": "_encryptedSerialNumber",
							"type": "bytes32"
						}
					],
					"name": "registerProduct",
					"outputs": [],
					"stateMutability": "nonpayable",
					"type": "function"
				},
				{
					"inputs": [
						{
							"internalType": "address",
							"name": "_manufacturer",
							"type": "address"
						}
					],
					"name": "revokeManufacturer",
					"outputs": [],
					"stateMutability": "nonpayable",
					"type": "function"
				}
			],
			"devdoc": {
				"details": "Manages pharmaceutical product transactions with privacy and ownership validation",
				"kind": "dev",
				"methods": {
					"authorizeManufacturer(address)": {
						"details": "Authorize a manufacturer to register initial products"
					},
					"completeTransaction(bytes32,bytes32)": {
						"details": "Complete transaction and transfer ownership",
						"params": {
							"_serialNumberHash": "Hash of the serial number",
							"_transactionHash": "Hash of the transaction"
						}
					},
					"createTransaction(bytes32,bytes32,bytes32,bytes32,bytes32,address)": {
						"details": "Create a new transaction to transfer product ownership",
						"params": {
							"_encryptedProductId": "Encrypted product ID (only shipper/receiver can decrypt)",
							"_encryptedReceiverId": "Encrypted receiver ID",
							"_encryptedSerialNumber": "Encrypted serial number",
							"_encryptedShipperId": "Encrypted shipper ID",
							"_receiverAddress": "Blockchain address of receiver",
							"_serialNumberHash": "Hash of the serial number"
						}
					},
					"getCurrentOwner(bytes32)": {
						"details": "Check current owner of a product"
					},
					"getTransaction(bytes32)": {
						"details": "Get transaction details (only shipper or receiver can access)"
					},
					"getUserTransactions(address)": {
						"details": "Get user's transaction hashes"
					},
					"isRegistered(bytes32)": {
						"details": "Check if product is registered"
					},
					"registerProduct(bytes32,bytes32,bytes32)": {
						"details": "Register initial product by manufacturer",
						"params": {
							"_encryptedProductId": "Encrypted product ID",
							"_encryptedSerialNumber": "Encrypted serial number",
							"_serialNumberHash": "Hash of the serial number for privacy"
						}
					},
					"revokeManufacturer(address)": {
						"details": "Revoke manufacturer authorization"
					}
				},
				"title": "PharmaceuticalSupplyChain",
				"version": 1
			},
			"evm": {
				"assembly": "    /* \"SupplyChain.sol\":199:9277  contract PharmaceuticalSupplyChain {... */\n  mstore(0x40, 0x80)\n    /* \"SupplyChain.sol\":2631:2743  constructor() {... */\n  callvalue\n  dup1\n  iszero\n  tag_1\n  jumpi\n  revert(0x00, 0x00)\ntag_1:\n  pop\n    /* \"SupplyChain.sol\":2672:2682  msg.sender */\n  caller\n    /* \"SupplyChain.sol\":2656:2669  contractOwner */\n  0x05\n  0x00\n    /* \"SupplyChain.sol\":2656:2682  contractOwner = msg.sender */\n  0x0100\n  exp\n  dup2\n  sload\n  dup2\n  0xffffffffffffffffffffffffffffffffffffffff\n  mul\n  not\n  and\n  swap1\n  dup4\n  0xffffffffffffffffffffffffffffffffffffffff\n  and\n  mul\n  or\n  swap1\n  sstore\n  pop\n    /* \"SupplyChain.sol\":2731:2735  true */\n  0x01\n    /* \"SupplyChain.sol\":2693:2716  authorizedManufacturers */\n  0x04\n    /* \"SupplyChain.sol\":2693:2728  authorizedManufacturers[msg.sender] */\n  0x00\n    /* \"SupplyChain.sol\":2717:2727  msg.sender */\n  caller\n    /* \"SupplyChain.sol\":2693:2728  authorizedManufacturers[msg.sender] */\n  0xffffffffffffffffffffffffffffffffffffffff\n  and\n  0xffffffffffffffffffffffffffffffffffffffff\n  and\n  dup2\n  mstore\n  0x20\n  add\n  swap1\n  dup2\n  mstore\n  0x20\n  add\n  0x00\n  keccak256\n  0x00\n    /* \"SupplyChain.sol\":2693:2735  authorizedManufacturers[msg.sender] = true */\n  0x0100\n  exp\n  dup2\n  sload\n  dup2\n  0xff\n  mul\n  not\n  and\n  swap1\n  dup4\n  iszero\n  iszero\n  mul\n  or\n  swap1\n  sstore\n  pop\n    /* \"SupplyChain.sol\":199:9277  contract PharmaceuticalSupplyChain {... */\n  dataSize(sub_0)\n  dup1\n  dataOffset(sub_0)\n  0x00\n  codecopy\n  0x00\n  return\nstop\n\nsub_0: assembly {\n        /* \"SupplyChain.sol\":199:9277  contract PharmaceuticalSupplyChain {... */\n      mstore(0x40, 0x80)\n      callvalue\n      dup1\n      iszero\n      tag_1\n      jumpi\n      revert(0x00, 0x00)\n    tag_1:\n      pop\n      jumpi(tag_2, lt(calldatasize, 0x04))\n      shr(0xe0, calldataload(0x00))\n      dup1\n      0x3aea18cc\n      gt\n      tag_14\n      jumpi\n      dup1\n      0x3aea18cc\n      eq\n      tag_8\n      jumpi\n      dup1\n      0x4aae13ca\n      eq\n      tag_9\n      jumpi\n      dup1\n      0xc763fe2e\n      eq\n      tag_10\n      jumpi\n      dup1\n      0xce606ee0\n      eq\n      tag_11\n      jumpi\n      dup1\n      0xdbe1b0e5\n      eq\n      tag_12\n      jumpi\n      dup1\n      0xef925399\n      eq\n      tag_13\n      jumpi\n      jump(tag_2)\n    tag_14:\n      dup1\n      0x05ca1ec2\n      eq\n      tag_3\n      jumpi\n      dup1\n      0x089e1b39\n      eq\n      tag_4\n      jumpi\n      dup1\n      0x18b45238\n      eq\n      tag_5\n      jumpi\n      dup1\n      0x24b04245\n      eq\n      tag_6\n      jumpi\n      dup1\n      0x27258b22\n      eq\n      tag_7\n      jumpi\n    tag_2:\n      revert(0x00, 0x00)\n        /* \"SupplyChain.sol\":4752:6409  function createTransaction(... */\n    tag_3:\n      tag_15\n      0x04\n      dup1\n      calldatasize\n      sub\n      dup2\n      add\n      swap1\n      tag_16\n      swap2\n      swap1\n      tag_17\n      jump\t// in\n    tag_16:\n      tag_18\n      jump\t// in\n    tag_15:\n      mload(0x40)\n      tag_19\n      swap2\n      swap1\n      tag_20\n      jump\t// in\n    tag_19:\n      mload(0x40)\n      dup1\n      swap2\n      sub\n      swap1\n      return\n        /* \"SupplyChain.sol\":2840:3141  function authorizeManufacturer(address _manufacturer) external onlyOwner {... */\n    tag_4:\n      tag_21\n      0x04\n      dup1\n      calldatasize\n      sub\n      dup2\n      add\n      swap1\n      tag_22\n      swap2\n      swap1\n      tag_23\n      jump\t// in\n    tag_22:\n      tag_24\n      jump\t// in\n    tag_21:\n      stop\n        /* \"SupplyChain.sol\":3218:3509  function revokeManufacturer(address _manufacturer) external onlyOwner {... */\n    tag_5:\n      tag_25\n      0x04\n      dup1\n      calldatasize\n      sub\n      dup2\n      add\n      swap1\n      tag_26\n      swap2\n      swap1\n      tag_23\n      jump\t// in\n    tag_26:\n      tag_27\n      jump\t// in\n    tag_25:\n      stop\n        /* \"SupplyChain.sol\":1450:1505  mapping(address => bool) public authorizedManufacturers */\n    tag_6:\n      tag_28\n      0x04\n      dup1\n      calldatasize\n      sub\n      dup2\n      add\n      swap1\n      tag_29\n      swap2\n      swap1\n      tag_23\n      jump\t// in\n    tag_29:\n      tag_30\n      jump\t// in\n    tag_28:\n      mload(0x40)\n      tag_31\n      swap2\n      swap1\n      tag_32\n      jump\t// in\n    tag_31:\n      mload(0x40)\n      dup1\n      swap2\n      sub\n      swap1\n      return\n        /* \"SupplyChain.sol\":9132:9274  function isRegistered(bytes32 _serialNumberHash) external view returns (bool) {... */\n    tag_7:\n      tag_33\n      0x04\n      dup1\n      calldatasize\n      sub\n      dup2\n      add\n      swap1\n      tag_34\n      swap2\n      swap1\n      tag_35\n      jump\t// in\n    tag_34:\n      tag_36\n      jump\t// in\n    tag_33:\n      mload(0x40)\n      tag_37\n      swap2\n      swap1\n      tag_32\n      jump\t// in\n    tag_37:\n      mload(0x40)\n      dup1\n      swap2\n      sub\n      swap1\n      return\n        /* \"SupplyChain.sol\":8742:9058  function getCurrentOwner(bytes32 _serialNumberHash) external view returns (address) {... */\n    tag_8:\n      tag_38\n      0x04\n      dup1\n      calldatasize\n      sub\n      dup2\n      add\n      swap1\n      tag_39\n      swap2\n      swap1\n      tag_35\n      jump\t// in\n    tag_39:\n      tag_40\n      jump\t// in\n    tag_38:\n      mload(0x40)\n      tag_41\n      swap2\n      swap1\n      tag_42\n      jump\t// in\n    tag_41:\n      mload(0x40)\n      dup1\n      swap2\n      sub\n      swap1\n      return\n        /* \"SupplyChain.sol\":7488:8366  function getTransaction(bytes32 _transactionHash) external view returns (... */\n    tag_9:\n      tag_43\n      0x04\n      dup1\n      calldatasize\n      sub\n      dup2\n      add\n      swap1\n      tag_44\n      swap2\n      swap1\n      tag_35\n      jump\t// in\n    tag_44:\n      tag_45\n      jump\t// in\n    tag_43:\n      mload(0x40)\n      tag_46\n      swap7\n      swap6\n      swap5\n      swap4\n      swap3\n      swap2\n      swap1\n      tag_47\n      jump\t// in\n    tag_46:\n      mload(0x40)\n      dup1\n      swap2\n      sub\n      swap1\n      return\n        /* \"SupplyChain.sol\":3782:4264  function registerProduct(... */\n    tag_10:\n      tag_48\n      0x04\n      dup1\n      calldatasize\n      sub\n      dup2\n      add\n      swap1\n      tag_49\n      swap2\n      swap1\n      tag_50\n      jump\t// in\n    tag_49:\n      tag_51\n      jump\t// in\n    tag_48:\n      stop\n        /* \"SupplyChain.sol\":1541:1569  address public contractOwner */\n    tag_11:\n      tag_52\n      tag_53\n      jump\t// in\n    tag_52:\n      mload(0x40)\n      tag_54\n      swap2\n      swap1\n      tag_42\n      jump\t// in\n    tag_54:\n      mload(0x40)\n      dup1\n      swap2\n      sub\n      swap1\n      return\n        /* \"SupplyChain.sol\":6611:7383  function completeTransaction(... */\n    tag_12:\n      tag_55\n      0x04\n      dup1\n      calldatasize\n      sub\n      dup2\n      add\n      swap1\n      tag_56\n      swap2\n      swap1\n      tag_57\n      jump\t// in\n    tag_56:\n      tag_58\n      jump\t// in\n    tag_55:\n      stop\n        /* \"SupplyChain.sol\":8439:8666  function getUserTransactions(address _user) external view returns (bytes32[] memory) {... */\n    tag_13:\n      tag_59\n      0x04\n      dup1\n      calldatasize\n      sub\n      dup2\n      add\n      swap1\n      tag_60\n      swap2\n      swap1\n      tag_23\n      jump\t// in\n    tag_60:\n      tag_61\n      jump\t// in\n    tag_59:\n      mload(0x40)\n      tag_62\n      swap2\n      swap1\n      tag_63\n      jump\t// in\n    tag_62:\n      mload(0x40)\n      dup1\n      swap2\n      sub\n      swap1\n      return\n        /* \"SupplyChain.sol\":4752:6409  function createTransaction(... */\n    tag_18:\n        /* \"SupplyChain.sol\":5067:5074  bytes32 */\n      0x00\n        /* \"SupplyChain.sol\":5039:5056  _serialNumberHash */\n      dup7\n        /* \"SupplyChain.sol\":2542:2552  msg.sender */\n      caller\n        /* \"SupplyChain.sol\":2507:2552  currentOwner[_serialNumberHash] == msg.sender */\n      0xffffffffffffffffffffffffffffffffffffffff\n      and\n        /* \"SupplyChain.sol\":2507:2519  currentOwner */\n      0x00\n        /* \"SupplyChain.sol\":2507:2538  currentOwner[_serialNumberHash] */\n      0x00\n        /* \"SupplyChain.sol\":2520:2537  _serialNumberHash */\n      dup4\n        /* \"SupplyChain.sol\":2507:2538  currentOwner[_serialNumberHash] */\n      dup2\n      mstore\n      0x20\n      add\n      swap1\n      dup2\n      mstore\n      0x20\n      add\n      0x00\n      keccak256\n      0x00\n      swap1\n      sload\n      swap1\n      0x0100\n      exp\n      swap1\n      div\n      0xffffffffffffffffffffffffffffffffffffffff\n      and\n        /* \"SupplyChain.sol\":2507:2552  currentOwner[_serialNumberHash] == msg.sender */\n      0xffffffffffffffffffffffffffffffffffffffff\n      and\n      eq\n        /* \"SupplyChain.sol\":2499:2599  require(currentOwner[_serialNumberHash] == msg.sender, \"You are not the current owner of this item\") */\n      tag_65\n      jumpi\n      mload(0x40)\n      0x08c379a000000000000000000000000000000000000000000000000000000000\n      dup2\n      mstore\n      0x04\n      add\n      tag_66\n      swap1\n      tag_67\n      jump\t// in\n    tag_66:\n      mload(0x40)\n      dup1\n      swap2\n      sub\n      swap1\n      revert\n    tag_65:\n        /* \"SupplyChain.sol\":5095:5114  isProductRegistered */\n      0x03\n        /* \"SupplyChain.sol\":5095:5133  isProductRegistered[_serialNumberHash] */\n      0x00\n        /* \"SupplyChain.sol\":5115:5132  _serialNumberHash */\n      dup10\n        /* \"SupplyChain.sol\":5095:5133  isProductRegistered[_serialNumberHash] */\n      dup2\n      mstore\n      0x20\n      add\n      swap1\n      dup2\n      mstore\n      0x20\n      add\n      0x00\n      keccak256\n      0x00\n      swap1\n      sload\n      swap1\n      0x0100\n      exp\n      swap1\n      div\n      0xff\n      and\n        /* \"SupplyChain.sol\":5087:5160  require(isProductRegistered[_serialNumberHash], \"Product not registered\") */\n      tag_69\n      jumpi\n      mload(0x40)\n      0x08c379a000000000000000000000000000000000000000000000000000000000\n      dup2\n      mstore\n      0x04\n      add\n      tag_70\n      swap1\n      tag_71\n      jump\t// in\n    tag_70:\n      mload(0x40)\n      dup1\n      swap2\n      sub\n      swap1\n      revert\n    tag_69:\n        /* \"SupplyChain.sol\":5207:5208  0 */\n      0x00\n        /* \"SupplyChain.sol\":5179:5209  _receiverAddress != address(0) */\n      0xffffffffffffffffffffffffffffffffffffffff\n      and\n        /* \"SupplyChain.sol\":5179:5195  _receiverAddress */\n      dup4\n        /* \"SupplyChain.sol\":5179:5209  _receiverAddress != address(0) */\n      0xffffffffffffffffffffffffffffffffffffffff\n      and\n      sub\n        /* \"SupplyChain.sol\":5171:5238  require(_receiverAddress != address(0), \"Invalid receiver address\") */\n      tag_72\n      jumpi\n      mload(0x40)\n      0x08c379a000000000000000000000000000000000000000000000000000000000\n      dup2\n      mstore\n      0x04\n      add\n      tag_73\n      swap1\n      tag_74\n      jump\t// in\n    tag_73:\n      mload(0x40)\n      dup1\n      swap2\n      sub\n      swap1\n      revert\n    tag_72:\n        /* \"SupplyChain.sol\":5277:5287  msg.sender */\n      caller\n        /* \"SupplyChain.sol\":5257:5287  _receiverAddress != msg.sender */\n      0xffffffffffffffffffffffffffffffffffffffff\n      and\n        /* \"SupplyChain.sol\":5257:5273  _receiverAddress */\n      dup4\n        /* \"SupplyChain.sol\":5257:5287  _receiverAddress != msg.sender */\n      0xffffffffffffffffffffffffffffffffffffffff\n      and\n      sub\n        /* \"SupplyChain.sol\":5249:5315  require(_receiverAddress != msg.sender, \"Cannot ship to yourself\") */\n      tag_75\n      jumpi\n      mload(0x40)\n      0x08c379a000000000000000000000000000000000000000000000000000000000\n      dup2\n      mstore\n      0x04\n      add\n      tag_76\n      swap1\n      tag_77\n      jump\t// in\n    tag_76:\n      mload(0x40)\n      dup1\n      swap2\n      sub\n      swap1\n      revert\n    tag_75:\n        /* \"SupplyChain.sol\":5381:5395  bytes32 txHash */\n      0x00\n        /* \"SupplyChain.sol\":5439:5456  _serialNumberHash */\n      dup9\n        /* \"SupplyChain.sol\":5471:5481  msg.sender */\n      caller\n        /* \"SupplyChain.sol\":5496:5512  _receiverAddress */\n      dup6\n        /* \"SupplyChain.sol\":5527:5542  block.timestamp */\n      timestamp\n        /* \"SupplyChain.sol\":5557:5569  block.number */\n      number\n        /* \"SupplyChain.sol\":5408:5580  abi.encodePacked(... */\n      add(0x20, mload(0x40))\n      tag_78\n      swap6\n      swap5\n      swap4\n      swap3\n      swap2\n      swap1\n      tag_79\n      jump\t// in\n    tag_78:\n      mload(0x40)\n      0x20\n      dup2\n      dup4\n      sub\n      sub\n      dup2\n      mstore\n      swap1\n      0x40\n      mstore\n        /* \"SupplyChain.sol\":5398:5581  keccak256(abi.encodePacked(... */\n      dup1\n      mload\n      swap1\n      0x20\n      add\n      keccak256\n        /* \"SupplyChain.sol\":5381:5581  bytes32 txHash = keccak256(abi.encodePacked(... */\n      swap1\n      pop\n        /* \"SupplyChain.sol\":5633:5657  Transaction memory newTx */\n      0x00\n        /* \"SupplyChain.sol\":5660:6109  Transaction({... */\n      mload(0x40)\n      dup1\n      0x0120\n      add\n      0x40\n      mstore\n      dup1\n        /* \"SupplyChain.sol\":5707:5726  _encryptedProductId */\n      dup11\n        /* \"SupplyChain.sol\":5660:6109  Transaction({... */\n      dup2\n      mstore\n      0x20\n      add\n        /* \"SupplyChain.sol\":5764:5786  _encryptedSerialNumber */\n      dup10\n        /* \"SupplyChain.sol\":5660:6109  Transaction({... */\n      dup2\n      mstore\n      0x20\n      add\n        /* \"SupplyChain.sol\":5821:5840  _encryptedShipperId */\n      dup9\n        /* \"SupplyChain.sol\":5660:6109  Transaction({... */\n      dup2\n      mstore\n      0x20\n      add\n        /* \"SupplyChain.sol\":5876:5896  _encryptedReceiverId */\n      dup8\n        /* \"SupplyChain.sol\":5660:6109  Transaction({... */\n      dup2\n      mstore\n      0x20\n      add\n        /* \"SupplyChain.sol\":5922:5937  block.timestamp */\n      timestamp\n        /* \"SupplyChain.sol\":5660:6109  Transaction({... */\n      dup2\n      mstore\n      0x20\n      add\n        /* \"SupplyChain.sol\":5969:5975  txHash */\n      dup4\n        /* \"SupplyChain.sol\":5660:6109  Transaction({... */\n      dup2\n      mstore\n      0x20\n      add\n        /* \"SupplyChain.sol\":6003:6008  false */\n      0x00\n        /* \"SupplyChain.sol\":5660:6109  Transaction({... */\n      iszero\n      iszero\n      dup2\n      mstore\n      0x20\n      add\n        /* \"SupplyChain.sol\":6039:6049  msg.sender */\n      caller\n        /* \"SupplyChain.sol\":5660:6109  Transaction({... */\n      0xffffffffffffffffffffffffffffffffffffffff\n      and\n      dup2\n      mstore\n      0x20\n      add\n        /* \"SupplyChain.sol\":6081:6097  _receiverAddress */\n      dup7\n        /* \"SupplyChain.sol\":5660:6109  Transaction({... */\n      0xffffffffffffffffffffffffffffffffffffffff\n      and\n      dup2\n      mstore\n      pop\n        /* \"SupplyChain.sol\":5633:6109  Transaction memory newTx = Transaction({... */\n      swap1\n      pop\n        /* \"SupplyChain.sol\":6153:6158  newTx */\n      dup1\n        /* \"SupplyChain.sol\":6130:6142  transactions */\n      0x01\n        /* \"SupplyChain.sol\":6130:6150  transactions[txHash] */\n      0x00\n        /* \"SupplyChain.sol\":6143:6149  txHash */\n      dup5\n        /* \"SupplyChain.sol\":6130:6150  transactions[txHash] */\n      dup2\n      mstore\n      0x20\n      add\n      swap1\n      dup2\n      mstore\n      0x20\n      add\n      0x00\n      keccak256\n        /* \"SupplyChain.sol\":6130:6158  transactions[txHash] = newTx */\n      0x00\n      dup3\n      add\n      mload\n      dup2\n      0x00\n      add\n      sstore\n      0x20\n      dup3\n      add\n      mload\n      dup2\n      0x01\n      add\n      sstore\n      0x40\n      dup3\n      add\n      mload\n      dup2\n      0x02\n      add\n      sstore\n      0x60\n      dup3\n      add\n      mload\n      dup2\n      0x03\n      add\n      sstore\n      0x80\n      dup3\n      add\n      mload\n      dup2\n      0x04\n      add\n      sstore\n      0xa0\n      dup3\n      add\n      mload\n      dup2\n      0x05\n      add\n      sstore\n      0xc0\n      dup3\n      add\n      mload\n      dup2\n      0x06\n      add\n      exp(0x0100, 0x00)\n      dup2\n      sload\n      dup2\n      0xff\n      mul\n      not\n      and\n      swap1\n      dup4\n      iszero\n      iszero\n      mul\n      or\n      swap1\n      sstore\n      pop\n      0xe0\n      dup3\n      add\n      mload\n      dup2\n      0x06\n      add\n      exp(0x0100, 0x01)\n      dup2\n      sload\n      dup2\n      0xffffffffffffffffffffffffffffffffffffffff\n      mul\n      not\n      and\n      swap1\n      dup4\n      0xffffffffffffffffffffffffffffffffffffffff\n      and\n      mul\n      or\n      swap1\n      sstore\n      pop\n      0x0100\n      dup3\n      add\n      mload\n      dup2\n      0x07\n      add\n      exp(0x0100, 0x00)\n      dup2\n      sload\n      dup2\n      0xffffffffffffffffffffffffffffffffffffffff\n      mul\n      not\n      and\n      swap1\n      dup4\n      0xffffffffffffffffffffffffffffffffffffffff\n      and\n      mul\n      or\n      swap1\n      sstore\n      pop\n      swap1\n      pop\n      pop\n        /* \"SupplyChain.sol\":6169:6185  userTransactions */\n      0x02\n        /* \"SupplyChain.sol\":6169:6197  userTransactions[msg.sender] */\n      0x00\n        /* \"SupplyChain.sol\":6186:6196  msg.sender */\n      caller\n        /* \"SupplyChain.sol\":6169:6197  userTransactions[msg.sender] */\n      0xffffffffffffffffffffffffffffffffffffffff\n      and\n      0xffffffffffffffffffffffffffffffffffffffff\n      and\n      dup2\n      mstore\n      0x20\n      add\n      swap1\n      dup2\n      mstore\n      0x20\n      add\n      0x00\n      keccak256\n        /* \"SupplyChain.sol\":6203:6209  txHash */\n      dup3\n        /* \"SupplyChain.sol\":6169:6210  userTransactions[msg.sender].push(txHash) */\n      swap1\n      dup1\n      0x01\n      dup2\n      sload\n      add\n      dup1\n      dup3\n      sstore\n      dup1\n      swap2\n      pop\n      pop\n      0x01\n      swap1\n      sub\n      swap1\n      0x00\n      mstore\n      keccak256(0x00, 0x20)\n      add\n      0x00\n      swap1\n      swap2\n      swap1\n      swap2\n      swap1\n      swap2\n      pop\n      sstore\n        /* \"SupplyChain.sol\":6221:6237  userTransactions */\n      0x02\n        /* \"SupplyChain.sol\":6221:6255  userTransactions[_receiverAddress] */\n      0x00\n        /* \"SupplyChain.sol\":6238:6254  _receiverAddress */\n      dup7\n        /* \"SupplyChain.sol\":6221:6255  userTransactions[_receiverAddress] */\n      0xffffffffffffffffffffffffffffffffffffffff\n      and\n      0xffffffffffffffffffffffffffffffffffffffff\n      and\n      dup2\n      mstore\n      0x20\n      add\n      swap1\n      dup2\n      mstore\n      0x20\n      add\n      0x00\n      keccak256\n        /* \"SupplyChain.sol\":6261:6267  txHash */\n      dup3\n        /* \"SupplyChain.sol\":6221:6268  userTransactions[_receiverAddress].push(txHash) */\n      swap1\n      dup1\n      0x01\n      dup2\n      sload\n      add\n      dup1\n      dup3\n      sstore\n      dup1\n      swap2\n      pop\n      pop\n      0x01\n      swap1\n      sub\n      swap1\n      0x00\n      mstore\n      keccak256(0x00, 0x20)\n      add\n      0x00\n      swap1\n      swap2\n      swap1\n      swap2\n      swap1\n      swap2\n      pop\n      sstore\n        /* \"SupplyChain.sol\":6333:6349  _receiverAddress */\n      dup5\n        /* \"SupplyChain.sol\":6294:6367  TransactionCreated(txHash, msg.sender, _receiverAddress, block.timestamp) */\n      0xffffffffffffffffffffffffffffffffffffffff\n      and\n        /* \"SupplyChain.sol\":6321:6331  msg.sender */\n      caller\n        /* \"SupplyChain.sol\":6294:6367  TransactionCreated(txHash, msg.sender, _receiverAddress, block.timestamp) */\n      0xffffffffffffffffffffffffffffffffffffffff\n      and\n        /* \"SupplyChain.sol\":6313:6319  txHash */\n      dup4\n        /* \"SupplyChain.sol\":6294:6367  TransactionCreated(txHash, msg.sender, _receiverAddress, block.timestamp) */\n      0x899644d4eb82881fe02a2f3ff5b90179caf815a74b619e0bf8a03d6f316c0212\n        /* \"SupplyChain.sol\":6351:6366  block.timestamp */\n      timestamp\n        /* \"SupplyChain.sol\":6294:6367  TransactionCreated(txHash, msg.sender, _receiverAddress, block.timestamp) */\n      mload(0x40)\n      tag_82\n      swap2\n      swap1\n      tag_83\n      jump\t// in\n    tag_82:\n      mload(0x40)\n      dup1\n      swap2\n      sub\n      swap1\n      log4\n        /* \"SupplyChain.sol\":6395:6401  txHash */\n      dup2\n        /* \"SupplyChain.sol\":6388:6401  return txHash */\n      swap4\n      pop\n      pop\n      pop\n        /* \"SupplyChain.sol\":4752:6409  function createTransaction(... */\n      pop\n      swap7\n      swap6\n      pop\n      pop\n      pop\n      pop\n      pop\n      pop\n      jump\t// out\n        /* \"SupplyChain.sol\":2840:3141  function authorizeManufacturer(address _manufacturer) external onlyOwner {... */\n    tag_24:\n        /* \"SupplyChain.sol\":2172:2185  contractOwner */\n      0x05\n      0x00\n      swap1\n      sload\n      swap1\n      0x0100\n      exp\n      swap1\n      div\n      0xffffffffffffffffffffffffffffffffffffffff\n      and\n        /* \"SupplyChain.sol\":2158:2185  msg.sender == contractOwner */\n      0xffffffffffffffffffffffffffffffffffffffff\n      and\n        /* \"SupplyChain.sol\":2158:2168  msg.sender */\n      caller\n        /* \"SupplyChain.sol\":2158:2185  msg.sender == contractOwner */\n      0xffffffffffffffffffffffffffffffffffffffff\n      and\n      eq\n        /* \"SupplyChain.sol\":2150:2233  require(msg.sender == contractOwner, \"Only contract owner can perform this action\") */\n      tag_85\n      jumpi\n      mload(0x40)\n      0x08c379a000000000000000000000000000000000000000000000000000000000\n      dup2\n      mstore\n      0x04\n      add\n      tag_86\n      swap1\n      tag_87\n      jump\t// in\n    tag_86:\n      mload(0x40)\n      dup1\n      swap2\n      sub\n      swap1\n      revert\n    tag_85:\n        /* \"SupplyChain.sol\":2933:2956  authorizedManufacturers */\n      0x04\n        /* \"SupplyChain.sol\":2933:2971  authorizedManufacturers[_manufacturer] */\n      0x00\n        /* \"SupplyChain.sol\":2957:2970  _manufacturer */\n      dup3\n        /* \"SupplyChain.sol\":2933:2971  authorizedManufacturers[_manufacturer] */\n      0xffffffffffffffffffffffffffffffffffffffff\n      and\n      0xffffffffffffffffffffffffffffffffffffffff\n      and\n      dup2\n      mstore\n      0x20\n      add\n      swap1\n      dup2\n      mstore\n      0x20\n      add\n      0x00\n      keccak256\n      0x00\n      swap1\n      sload\n      swap1\n      0x0100\n      exp\n      swap1\n      div\n      0xff\n      and\n        /* \"SupplyChain.sol\":2932:2971  !authorizedManufacturers[_manufacturer] */\n      iszero\n        /* \"SupplyChain.sol\":2924:3007  require(!authorizedManufacturers[_manufacturer], \"Manufacturer already authorized\") */\n      tag_89\n      jumpi\n      mload(0x40)\n      0x08c379a000000000000000000000000000000000000000000000000000000000\n      dup2\n      mstore\n      0x04\n      add\n      tag_90\n      swap1\n      tag_91\n      jump\t// in\n    tag_90:\n      mload(0x40)\n      dup1\n      swap2\n      sub\n      swap1\n      revert\n    tag_89:\n        /* \"SupplyChain.sol\":3059:3063  true */\n      0x01\n        /* \"SupplyChain.sol\":3018:3041  authorizedManufacturers */\n      0x04\n        /* \"SupplyChain.sol\":3018:3056  authorizedManufacturers[_manufacturer] */\n      0x00\n        /* \"SupplyChain.sol\":3042:3055  _manufacturer */\n      dup4\n        /* \"SupplyChain.sol\":3018:3056  authorizedManufacturers[_manufacturer] */\n      0xffffffffffffffffffffffffffffffffffffffff\n      and\n      0xffffffffffffffffffffffffffffffffffffffff\n      and\n      dup2\n      mstore\n      0x20\n      add\n      swap1\n      dup2\n      mstore\n      0x20\n      add\n      0x00\n      keccak256\n      0x00\n        /* \"SupplyChain.sol\":3018:3063  authorizedManufacturers[_manufacturer] = true */\n      0x0100\n      exp\n      dup2\n      sload\n      dup2\n      0xff\n      mul\n      not\n      and\n      swap1\n      dup4\n      iszero\n      iszero\n      mul\n      or\n      swap1\n      sstore\n      pop\n        /* \"SupplyChain.sol\":3102:3115  _manufacturer */\n      dup1\n        /* \"SupplyChain.sol\":3079:3133  ManufacturerAuthorized(_manufacturer, block.timestamp) */\n      0xffffffffffffffffffffffffffffffffffffffff\n      and\n      0x82903e79efc257a6e1dcc47396601792ac42dfaa46590342a3b29ae45fa5a713\n        /* \"SupplyChain.sol\":3117:3132  block.timestamp */\n      timestamp\n        /* \"SupplyChain.sol\":3079:3133  ManufacturerAuthorized(_manufacturer, block.timestamp) */\n      mload(0x40)\n      tag_92\n      swap2\n      swap1\n      tag_83\n      jump\t// in\n    tag_92:\n      mload(0x40)\n      dup1\n      swap2\n      sub\n      swap1\n      log2\n        /* \"SupplyChain.sol\":2840:3141  function authorizeManufacturer(address _manufacturer) external onlyOwner {... */\n      pop\n      jump\t// out\n        /* \"SupplyChain.sol\":3218:3509  function revokeManufacturer(address _manufacturer) external onlyOwner {... */\n    tag_27:\n        /* \"SupplyChain.sol\":2172:2185  contractOwner */\n      0x05\n      0x00\n      swap1\n      sload\n      swap1\n      0x0100\n      exp\n      swap1\n      div\n      0xffffffffffffffffffffffffffffffffffffffff\n      and\n        /* \"SupplyChain.sol\":2158:2185  msg.sender == contractOwner */\n      0xffffffffffffffffffffffffffffffffffffffff\n      and\n        /* \"SupplyChain.sol\":2158:2168  msg.sender */\n      caller\n        /* \"SupplyChain.sol\":2158:2185  msg.sender == contractOwner */\n      0xffffffffffffffffffffffffffffffffffffffff\n      and\n      eq\n        /* \"SupplyChain.sol\":2150:2233  require(msg.sender == contractOwner, \"Only contract owner can perform this action\") */\n      tag_94\n      jumpi\n      mload(0x40)\n      0x08c379a000000000000000000000000000000000000000000000000000000000\n      dup2\n      mstore\n      0x04\n      add\n      tag_95\n      swap1\n      tag_87\n      jump\t// in\n    tag_95:\n      mload(0x40)\n      dup1\n      swap2\n      sub\n      swap1\n      revert\n    tag_94:\n        /* \"SupplyChain.sol\":3307:3330  authorizedManufacturers */\n      0x04\n        /* \"SupplyChain.sol\":3307:3345  authorizedManufacturers[_manufacturer] */\n      0x00\n        /* \"SupplyChain.sol\":3331:3344  _manufacturer */\n      dup3\n        /* \"SupplyChain.sol\":3307:3345  authorizedManufacturers[_manufacturer] */\n      0xffffffffffffffffffffffffffffffffffffffff\n      and\n      0xffffffffffffffffffffffffffffffffffffffff\n      and\n      dup2\n      mstore\n      0x20\n      add\n      swap1\n      dup2\n      mstore\n      0x20\n      add\n      0x00\n      keccak256\n      0x00\n      swap1\n      sload\n      swap1\n      0x0100\n      exp\n      swap1\n      div\n      0xff\n      and\n        /* \"SupplyChain.sol\":3299:3377  require(authorizedManufacturers[_manufacturer], \"Manufacturer not authorized\") */\n      tag_97\n      jumpi\n      mload(0x40)\n      0x08c379a000000000000000000000000000000000000000000000000000000000\n      dup2\n      mstore\n      0x04\n      add\n      tag_98\n      swap1\n      tag_99\n      jump\t// in\n    tag_98:\n      mload(0x40)\n      dup1\n      swap2\n      sub\n      swap1\n      revert\n    tag_97:\n        /* \"SupplyChain.sol\":3429:3434  false */\n      0x00\n        /* \"SupplyChain.sol\":3388:3411  authorizedManufacturers */\n      0x04\n        /* \"SupplyChain.sol\":3388:3426  authorizedManufacturers[_manufacturer] */\n      0x00\n        /* \"SupplyChain.sol\":3412:3425  _manufacturer */\n      dup4\n        /* \"SupplyChain.sol\":3388:3426  authorizedManufacturers[_manufacturer] */\n      0xffffffffffffffffffffffffffffffffffffffff\n      and\n      0xffffffffffffffffffffffffffffffffffffffff\n      and\n      dup2\n      mstore\n      0x20\n      add\n      swap1\n      dup2\n      mstore\n      0x20\n      add\n      0x00\n      keccak256\n      0x00\n        /* \"SupplyChain.sol\":3388:3434  authorizedManufacturers[_manufacturer] = false */\n      0x0100\n      exp\n      dup2\n      sload\n      dup2\n      0xff\n      mul\n      not\n      and\n      swap1\n      dup4\n      iszero\n      iszero\n      mul\n      or\n      swap1\n      sstore\n      pop\n        /* \"SupplyChain.sol\":3470:3483  _manufacturer */\n      dup1\n        /* \"SupplyChain.sol\":3450:3501  ManufacturerRevoked(_manufacturer, block.timestamp) */\n      0xffffffffffffffffffffffffffffffffffffffff\n      and\n      0xe8d2a3ac660549a08f637582b6cbe854156af7ef2042247240ffc1fd34db7bcd\n        /* \"SupplyChain.sol\":3485:3500  block.timestamp */\n      timestamp\n        /* \"SupplyChain.sol\":3450:3501  ManufacturerRevoked(_manufacturer, block.timestamp) */\n      mload(0x40)\n      tag_100\n      swap2\n      swap1\n      tag_83\n      jump\t// in\n    tag_100:\n      mload(0x40)\n      dup1\n      swap2\n      sub\n      swap1\n      log2\n        /* \"SupplyChain.sol\":3218:3509  function revokeManufacturer(address _manufacturer) external onlyOwner {... */\n      pop\n      jump\t// out\n        /* \"SupplyChain.sol\":1450:1505  mapping(address => bool) public authorizedManufacturers */\n    tag_30:\n      mstore(0x20, 0x04)\n      dup1\n      0x00\n      mstore\n      keccak256(0x00, 0x40)\n      0x00\n      swap2\n      pop\n      sload\n      swap1\n      0x0100\n      exp\n      swap1\n      div\n      0xff\n      and\n      dup2\n      jump\t// out\n        /* \"SupplyChain.sol\":9132:9274  function isRegistered(bytes32 _serialNumberHash) external view returns (bool) {... */\n    tag_36:\n        /* \"SupplyChain.sol\":9204:9208  bool */\n      0x00\n        /* \"SupplyChain.sol\":9228:9247  isProductRegistered */\n      0x03\n        /* \"SupplyChain.sol\":9228:9266  isProductRegistered[_serialNumberHash] */\n      0x00\n        /* \"SupplyChain.sol\":9248:9265  _serialNumberHash */\n      dup4\n        /* \"SupplyChain.sol\":9228:9266  isProductRegistered[_serialNumberHash] */\n      dup2\n      mstore\n      0x20\n      add\n      swap1\n      dup2\n      mstore\n      0x20\n      add\n      0x00\n      keccak256\n      0x00\n      swap1\n      sload\n      swap1\n      0x0100\n      exp\n      swap1\n      div\n      0xff\n      and\n        /* \"SupplyChain.sol\":9221:9266  return isProductRegistered[_serialNumberHash] */\n      swap1\n      pop\n        /* \"SupplyChain.sol\":9132:9274  function isRegistered(bytes32 _serialNumberHash) external view returns (bool) {... */\n      swap2\n      swap1\n      pop\n      jump\t// out\n        /* \"SupplyChain.sol\":8742:9058  function getCurrentOwner(bytes32 _serialNumberHash) external view returns (address) {... */\n    tag_40:\n        /* \"SupplyChain.sol\":8817:8824  address */\n      0x00\n        /* \"SupplyChain.sol\":8894:8904  msg.sender */\n      caller\n        /* \"SupplyChain.sol\":8859:8904  currentOwner[_serialNumberHash] == msg.sender */\n      0xffffffffffffffffffffffffffffffffffffffff\n      and\n        /* \"SupplyChain.sol\":8859:8871  currentOwner */\n      0x00\n        /* \"SupplyChain.sol\":8859:8890  currentOwner[_serialNumberHash] */\n      0x00\n        /* \"SupplyChain.sol\":8872:8889  _serialNumberHash */\n      dup5\n        /* \"SupplyChain.sol\":8859:8890  currentOwner[_serialNumberHash] */\n      dup2\n      mstore\n      0x20\n      add\n      swap1\n      dup2\n      mstore\n      0x20\n      add\n      0x00\n      keccak256\n      0x00\n      swap1\n      sload\n      swap1\n      0x0100\n      exp\n      swap1\n      div\n      0xffffffffffffffffffffffffffffffffffffffff\n      and\n        /* \"SupplyChain.sol\":8859:8904  currentOwner[_serialNumberHash] == msg.sender */\n      0xffffffffffffffffffffffffffffffffffffffff\n      and\n      eq\n        /* \"SupplyChain.sol\":8859:8935  currentOwner[_serialNumberHash] == msg.sender || msg.sender == contractOwner */\n      dup1\n      tag_103\n      jumpi\n      pop\n        /* \"SupplyChain.sol\":8922:8935  contractOwner */\n      0x05\n      0x00\n      swap1\n      sload\n      swap1\n      0x0100\n      exp\n      swap1\n      div\n      0xffffffffffffffffffffffffffffffffffffffff\n      and\n        /* \"SupplyChain.sol\":8908:8935  msg.sender == contractOwner */\n      0xffffffffffffffffffffffffffffffffffffffff\n      and\n        /* \"SupplyChain.sol\":8908:8918  msg.sender */\n      caller\n        /* \"SupplyChain.sol\":8908:8935  msg.sender == contractOwner */\n      0xffffffffffffffffffffffffffffffffffffffff\n      and\n      eq\n        /* \"SupplyChain.sol\":8859:8935  currentOwner[_serialNumberHash] == msg.sender || msg.sender == contractOwner */\n    tag_103:\n        /* \"SupplyChain.sol\":8837:9001  require(... */\n      tag_104\n      jumpi\n      mload(0x40)\n      0x08c379a000000000000000000000000000000000000000000000000000000000\n      dup2\n      mstore\n      0x04\n      add\n      tag_105\n      swap1\n      tag_106\n      jump\t// in\n    tag_105:\n      mload(0x40)\n      dup1\n      swap2\n      sub\n      swap1\n      revert\n    tag_104:\n        /* \"SupplyChain.sol\":9019:9031  currentOwner */\n      0x00\n        /* \"SupplyChain.sol\":9019:9050  currentOwner[_serialNumberHash] */\n      0x00\n        /* \"SupplyChain.sol\":9032:9049  _serialNumberHash */\n      dup4\n        /* \"SupplyChain.sol\":9019:9050  currentOwner[_serialNumberHash] */\n      dup2\n      mstore\n      0x20\n      add\n      swap1\n      dup2\n      mstore\n      0x20\n      add\n      0x00\n      keccak256\n      0x00\n      swap1\n      sload\n      swap1\n      0x0100\n      exp\n      swap1\n      div\n      0xffffffffffffffffffffffffffffffffffffffff\n      and\n        /* \"SupplyChain.sol\":9012:9050  return currentOwner[_serialNumberHash] */\n      swap1\n      pop\n        /* \"SupplyChain.sol\":8742:9058  function getCurrentOwner(bytes32 _serialNumberHash) external view returns (address) {... */\n      swap2\n      swap1\n      pop\n      jump\t// out\n        /* \"SupplyChain.sol\":7488:8366  function getTransaction(bytes32 _transactionHash) external view returns (... */\n    tag_45:\n        /* \"SupplyChain.sol\":7571:7597  bytes32 encryptedProductId */\n      0x00\n        /* \"SupplyChain.sol\":7608:7637  bytes32 encryptedSerialNumber */\n      0x00\n        /* \"SupplyChain.sol\":7648:7674  bytes32 encryptedShipperId */\n      0x00\n        /* \"SupplyChain.sol\":7685:7712  bytes32 encryptedReceiverId */\n      0x00\n        /* \"SupplyChain.sol\":7723:7740  uint256 timestamp */\n      0x00\n        /* \"SupplyChain.sol\":7751:7767  bool isCompleted */\n      0x00\n        /* \"SupplyChain.sol\":7786:7808  Transaction memory txn */\n      0x00\n        /* \"SupplyChain.sol\":7811:7823  transactions */\n      0x01\n        /* \"SupplyChain.sol\":7811:7841  transactions[_transactionHash] */\n      0x00\n        /* \"SupplyChain.sol\":7824:7840  _transactionHash */\n      dup10\n        /* \"SupplyChain.sol\":7811:7841  transactions[_transactionHash] */\n      dup2\n      mstore\n      0x20\n      add\n      swap1\n      dup2\n      mstore\n      0x20\n      add\n      0x00\n      keccak256\n        /* \"SupplyChain.sol\":7786:7841  Transaction memory txn = transactions[_transactionHash] */\n      mload(0x40)\n      dup1\n      0x0120\n      add\n      0x40\n      mstore\n      swap1\n      dup2\n      0x00\n      dup3\n      add\n      sload\n      dup2\n      mstore\n      0x20\n      add\n      0x01\n      dup3\n      add\n      sload\n      dup2\n      mstore\n      0x20\n      add\n      0x02\n      dup3\n      add\n      sload\n      dup2\n      mstore\n      0x20\n      add\n      0x03\n      dup3\n      add\n      sload\n      dup2\n      mstore\n      0x20\n      add\n      0x04\n      dup3\n      add\n      sload\n      dup2\n      mstore\n      0x20\n      add\n      0x05\n      dup3\n      add\n      sload\n      dup2\n      mstore\n      0x20\n      add\n      0x06\n      dup3\n      add\n      0x00\n      swap1\n      sload\n      swap1\n      0x0100\n      exp\n      swap1\n      div\n      0xff\n      and\n      iszero\n      iszero\n      iszero\n      iszero\n      dup2\n      mstore\n      0x20\n      add\n      0x06\n      dup3\n      add\n      0x01\n      swap1\n      sload\n      swap1\n      0x0100\n      exp\n      swap1\n      div\n      0xffffffffffffffffffffffffffffffffffffffff\n      and\n      0xffffffffffffffffffffffffffffffffffffffff\n      and\n      0xffffffffffffffffffffffffffffffffffffffff\n      and\n      dup2\n      mstore\n      0x20\n      add\n      0x07\n      dup3\n      add\n      0x00\n      swap1\n      sload\n      swap1\n      0x0100\n      exp\n      swap1\n      div\n      0xffffffffffffffffffffffffffffffffffffffff\n      and\n      0xffffffffffffffffffffffffffffffffffffffff\n      and\n      0xffffffffffffffffffffffffffffffffffffffff\n      and\n      dup2\n      mstore\n      pop\n      pop\n      swap1\n      pop\n        /* \"SupplyChain.sol\":7901:7902  0 */\n      0x00\n        /* \"SupplyChain.sol\":7893:7903  bytes32(0) */\n      0x00\n      shl\n        /* \"SupplyChain.sol\":7870:7873  txn */\n      dup2\n        /* \"SupplyChain.sol\":7870:7889  txn.transactionHash */\n      0xa0\n      add\n      mload\n        /* \"SupplyChain.sol\":7870:7903  txn.transactionHash != bytes32(0) */\n      sub\n        /* \"SupplyChain.sol\":7862:7934  require(txn.transactionHash != bytes32(0), \"Transaction does not exist\") */\n      tag_108\n      jumpi\n      mload(0x40)\n      0x08c379a000000000000000000000000000000000000000000000000000000000\n      dup2\n      mstore\n      0x04\n      add\n      tag_109\n      swap1\n      tag_110\n      jump\t// in\n    tag_109:\n      mload(0x40)\n      dup1\n      swap2\n      sub\n      swap1\n      revert\n    tag_108:\n        /* \"SupplyChain.sol\":7981:7984  txn */\n      dup1\n        /* \"SupplyChain.sol\":7981:7999  txn.shipperAddress */\n      0xe0\n      add\n      mload\n        /* \"SupplyChain.sol\":7967:7999  msg.sender == txn.shipperAddress */\n      0xffffffffffffffffffffffffffffffffffffffff\n      and\n        /* \"SupplyChain.sol\":7967:7977  msg.sender */\n      caller\n        /* \"SupplyChain.sol\":7967:7999  msg.sender == txn.shipperAddress */\n      0xffffffffffffffffffffffffffffffffffffffff\n      and\n      eq\n        /* \"SupplyChain.sol\":7967:8036  msg.sender == txn.shipperAddress || msg.sender == txn.receiverAddress */\n      dup1\n      tag_111\n      jumpi\n      pop\n        /* \"SupplyChain.sol\":8017:8020  txn */\n      dup1\n        /* \"SupplyChain.sol\":8017:8036  txn.receiverAddress */\n      0x0100\n      add\n      mload\n        /* \"SupplyChain.sol\":8003:8036  msg.sender == txn.receiverAddress */\n      0xffffffffffffffffffffffffffffffffffffffff\n      and\n        /* \"SupplyChain.sol\":8003:8013  msg.sender */\n      caller\n        /* \"SupplyChain.sol\":8003:8036  msg.sender == txn.receiverAddress */\n      0xffffffffffffffffffffffffffffffffffffffff\n      and\n      eq\n        /* \"SupplyChain.sol\":7967:8036  msg.sender == txn.shipperAddress || msg.sender == txn.receiverAddress */\n    tag_111:\n        /* \"SupplyChain.sol\":7945:8109  require(... */\n      tag_112\n      jumpi\n      mload(0x40)\n      0x08c379a000000000000000000000000000000000000000000000000000000000\n      dup2\n      mstore\n      0x04\n      add\n      tag_113\n      swap1\n      tag_114\n      jump\t// in\n    tag_113:\n      mload(0x40)\n      dup1\n      swap2\n      sub\n      swap1\n      revert\n    tag_112:\n        /* \"SupplyChain.sol\":8152:8155  txn */\n      dup1\n        /* \"SupplyChain.sol\":8152:8174  txn.encryptedProductId */\n      0x00\n      add\n      mload\n        /* \"SupplyChain.sol\":8189:8192  txn */\n      dup2\n        /* \"SupplyChain.sol\":8189:8214  txn.encryptedSerialNumber */\n      0x20\n      add\n      mload\n        /* \"SupplyChain.sol\":8229:8232  txn */\n      dup3\n        /* \"SupplyChain.sol\":8229:8251  txn.encryptedShipperId */\n      0x40\n      add\n      mload\n        /* \"SupplyChain.sol\":8266:8269  txn */\n      dup4\n        /* \"SupplyChain.sol\":8266:8289  txn.encryptedReceiverId */\n      0x60\n      add\n      mload\n        /* \"SupplyChain.sol\":8304:8307  txn */\n      dup5\n        /* \"SupplyChain.sol\":8304:8317  txn.timestamp */\n      0x80\n      add\n      mload\n        /* \"SupplyChain.sol\":8332:8335  txn */\n      dup6\n        /* \"SupplyChain.sol\":8332:8347  txn.isCompleted */\n      0xc0\n      add\n      mload\n        /* \"SupplyChain.sol\":8130:8358  return (... */\n      swap7\n      pop\n      swap7\n      pop\n      swap7\n      pop\n      swap7\n      pop\n      swap7\n      pop\n      swap7\n      pop\n      pop\n        /* \"SupplyChain.sol\":7488:8366  function getTransaction(bytes32 _transactionHash) external view returns (... */\n      swap2\n      swap4\n      swap6\n      pop\n      swap2\n      swap4\n      swap6\n      jump\t// out\n        /* \"SupplyChain.sol\":3782:4264  function registerProduct(... */\n    tag_51:\n        /* \"SupplyChain.sol\":2312:2335  authorizedManufacturers */\n      0x04\n        /* \"SupplyChain.sol\":2312:2347  authorizedManufacturers[msg.sender] */\n      0x00\n        /* \"SupplyChain.sol\":2336:2346  msg.sender */\n      caller\n        /* \"SupplyChain.sol\":2312:2347  authorizedManufacturers[msg.sender] */\n      0xffffffffffffffffffffffffffffffffffffffff\n      and\n      0xffffffffffffffffffffffffffffffffffffffff\n      and\n      dup2\n      mstore\n      0x20\n      add\n      swap1\n      dup2\n      mstore\n      0x20\n      add\n      0x00\n      keccak256\n      0x00\n      swap1\n      sload\n      swap1\n      0x0100\n      exp\n      swap1\n      div\n      0xff\n      and\n        /* \"SupplyChain.sol\":2304:2403  require(authorizedManufacturers[msg.sender], \"Only authorized manufacturers can register products\") */\n      tag_116\n      jumpi\n      mload(0x40)\n      0x08c379a000000000000000000000000000000000000000000000000000000000\n      dup2\n      mstore\n      0x04\n      add\n      tag_117\n      swap1\n      tag_118\n      jump\t// in\n    tag_117:\n      mload(0x40)\n      dup1\n      swap2\n      sub\n      swap1\n      revert\n    tag_116:\n        /* \"SupplyChain.sol\":3975:3994  isProductRegistered */\n      0x03\n        /* \"SupplyChain.sol\":3975:4013  isProductRegistered[_serialNumberHash] */\n      0x00\n        /* \"SupplyChain.sol\":3995:4012  _serialNumberHash */\n      dup5\n        /* \"SupplyChain.sol\":3975:4013  isProductRegistered[_serialNumberHash] */\n      dup2\n      mstore\n      0x20\n      add\n      swap1\n      dup2\n      mstore\n      0x20\n      add\n      0x00\n      keccak256\n      0x00\n      swap1\n      sload\n      swap1\n      0x0100\n      exp\n      swap1\n      div\n      0xff\n      and\n        /* \"SupplyChain.sol\":3974:4013  !isProductRegistered[_serialNumberHash] */\n      iszero\n        /* \"SupplyChain.sol\":3966:4044  require(!isProductRegistered[_serialNumberHash], \"Product already registered\") */\n      tag_120\n      jumpi\n      mload(0x40)\n      0x08c379a000000000000000000000000000000000000000000000000000000000\n      dup2\n      mstore\n      0x04\n      add\n      tag_121\n      swap1\n      tag_122\n      jump\t// in\n    tag_121:\n      mload(0x40)\n      dup1\n      swap2\n      sub\n      swap1\n      revert\n    tag_120:\n        /* \"SupplyChain.sol\":4099:4109  msg.sender */\n      caller\n        /* \"SupplyChain.sol\":4065:4077  currentOwner */\n      0x00\n        /* \"SupplyChain.sol\":4065:4096  currentOwner[_serialNumberHash] */\n      0x00\n        /* \"SupplyChain.sol\":4078:4095  _serialNumberHash */\n      dup6\n        /* \"SupplyChain.sol\":4065:4096  currentOwner[_serialNumberHash] */\n      dup2\n      mstore\n      0x20\n      add\n      swap1\n      dup2\n      mstore\n      0x20\n      add\n      0x00\n      keccak256\n      0x00\n        /* \"SupplyChain.sol\":4065:4109  currentOwner[_serialNumberHash] = msg.sender */\n      0x0100\n      exp\n      dup2\n      sload\n      dup2\n      0xffffffffffffffffffffffffffffffffffffffff\n      mul\n      not\n      and\n      swap1\n      dup4\n      0xffffffffffffffffffffffffffffffffffffffff\n      and\n      mul\n      or\n      swap1\n      sstore\n      pop\n        /* \"SupplyChain.sol\":4161:4165  true */\n      0x01\n        /* \"SupplyChain.sol\":4120:4139  isProductRegistered */\n      0x03\n        /* \"SupplyChain.sol\":4120:4158  isProductRegistered[_serialNumberHash] */\n      0x00\n        /* \"SupplyChain.sol\":4140:4157  _serialNumberHash */\n      dup6\n        /* \"SupplyChain.sol\":4120:4158  isProductRegistered[_serialNumberHash] */\n      dup2\n      mstore\n      0x20\n      add\n      swap1\n      dup2\n      mstore\n      0x20\n      add\n      0x00\n      keccak256\n      0x00\n        /* \"SupplyChain.sol\":4120:4165  isProductRegistered[_serialNumberHash] = true */\n      0x0100\n      exp\n      dup2\n      sload\n      dup2\n      0xff\n      mul\n      not\n      and\n      swap1\n      dup4\n      iszero\n      iszero\n      mul\n      or\n      swap1\n      sstore\n      pop\n        /* \"SupplyChain.sol\":4228:4238  msg.sender */\n      caller\n        /* \"SupplyChain.sol\":4191:4256  ProductRegistered(_serialNumberHash, msg.sender, block.timestamp) */\n      0xffffffffffffffffffffffffffffffffffffffff\n      and\n        /* \"SupplyChain.sol\":4209:4226  _serialNumberHash */\n      dup4\n        /* \"SupplyChain.sol\":4191:4256  ProductRegistered(_serialNumberHash, msg.sender, block.timestamp) */\n      0x7382bacf18bd3d25a7b5073d2c9845f9859d0c1f96e17d3bf4ddf8a0a099534e\n        /* \"SupplyChain.sol\":4240:4255  block.timestamp */\n      timestamp\n        /* \"SupplyChain.sol\":4191:4256  ProductRegistered(_serialNumberHash, msg.sender, block.timestamp) */\n      mload(0x40)\n      tag_123\n      swap2\n      swap1\n      tag_83\n      jump\t// in\n    tag_123:\n      mload(0x40)\n      dup1\n      swap2\n      sub\n      swap1\n      log3\n        /* \"SupplyChain.sol\":3782:4264  function registerProduct(... */\n      pop\n      pop\n      pop\n      jump\t// out\n        /* \"SupplyChain.sol\":1541:1569  address public contractOwner */\n    tag_53:\n      0x05\n      0x00\n      swap1\n      sload\n      swap1\n      0x0100\n      exp\n      swap1\n      div\n      0xffffffffffffffffffffffffffffffffffffffff\n      and\n      dup2\n      jump\t// out\n        /* \"SupplyChain.sol\":6611:7383  function completeTransaction(... */\n    tag_58:\n        /* \"SupplyChain.sol\":6738:6761  Transaction storage txn */\n      0x00\n        /* \"SupplyChain.sol\":6764:6776  transactions */\n      0x01\n        /* \"SupplyChain.sol\":6764:6794  transactions[_transactionHash] */\n      0x00\n        /* \"SupplyChain.sol\":6777:6793  _transactionHash */\n      dup5\n        /* \"SupplyChain.sol\":6764:6794  transactions[_transactionHash] */\n      dup2\n      mstore\n      0x20\n      add\n      swap1\n      dup2\n      mstore\n      0x20\n      add\n      0x00\n      keccak256\n        /* \"SupplyChain.sol\":6738:6794  Transaction storage txn = transactions[_transactionHash] */\n      swap1\n      pop\n        /* \"SupplyChain.sol\":6854:6855  0 */\n      0x00\n        /* \"SupplyChain.sol\":6846:6856  bytes32(0) */\n      0x00\n      shl\n        /* \"SupplyChain.sol\":6823:6826  txn */\n      dup2\n        /* \"SupplyChain.sol\":6823:6842  txn.transactionHash */\n      0x05\n      add\n      sload\n        /* \"SupplyChain.sol\":6823:6856  txn.transactionHash != bytes32(0) */\n      sub\n        /* \"SupplyChain.sol\":6815:6887  require(txn.transactionHash != bytes32(0), \"Transaction does not exist\") */\n      tag_125\n      jumpi\n      mload(0x40)\n      0x08c379a000000000000000000000000000000000000000000000000000000000\n      dup2\n      mstore\n      0x04\n      add\n      tag_126\n      swap1\n      tag_110\n      jump\t// in\n    tag_126:\n      mload(0x40)\n      dup1\n      swap2\n      sub\n      swap1\n      revert\n    tag_125:\n        /* \"SupplyChain.sol\":6907:6910  txn */\n      dup1\n        /* \"SupplyChain.sol\":6907:6922  txn.isCompleted */\n      0x06\n      add\n      0x00\n      swap1\n      sload\n      swap1\n      0x0100\n      exp\n      swap1\n      div\n      0xff\n      and\n        /* \"SupplyChain.sol\":6906:6922  !txn.isCompleted */\n      iszero\n        /* \"SupplyChain.sol\":6898:6956  require(!txn.isCompleted, \"Transaction already completed\") */\n      tag_127\n      jumpi\n      mload(0x40)\n      0x08c379a000000000000000000000000000000000000000000000000000000000\n      dup2\n      mstore\n      0x04\n      add\n      tag_128\n      swap1\n      tag_129\n      jump\t// in\n    tag_128:\n      mload(0x40)\n      dup1\n      swap2\n      sub\n      swap1\n      revert\n    tag_127:\n        /* \"SupplyChain.sol\":6989:6992  txn */\n      dup1\n        /* \"SupplyChain.sol\":6989:7008  txn.receiverAddress */\n      0x07\n      add\n      0x00\n      swap1\n      sload\n      swap1\n      0x0100\n      exp\n      swap1\n      div\n      0xffffffffffffffffffffffffffffffffffffffff\n      and\n        /* \"SupplyChain.sol\":6975:7008  msg.sender == txn.receiverAddress */\n      0xffffffffffffffffffffffffffffffffffffffff\n      and\n        /* \"SupplyChain.sol\":6975:6985  msg.sender */\n      caller\n        /* \"SupplyChain.sol\":6975:7008  msg.sender == txn.receiverAddress */\n      0xffffffffffffffffffffffffffffffffffffffff\n      and\n      eq\n        /* \"SupplyChain.sol\":6967:7051  require(msg.sender == txn.receiverAddress, \"Only receiver can complete transaction\") */\n      tag_130\n      jumpi\n      mload(0x40)\n      0x08c379a000000000000000000000000000000000000000000000000000000000\n      dup2\n      mstore\n      0x04\n      add\n      tag_131\n      swap1\n      tag_132\n      jump\t// in\n    tag_131:\n      mload(0x40)\n      dup1\n      swap2\n      sub\n      swap1\n      revert\n    tag_130:\n        /* \"SupplyChain.sol\":7105:7108  txn */\n      dup1\n        /* \"SupplyChain.sol\":7105:7123  txn.shipperAddress */\n      0x06\n      add\n      0x01\n      swap1\n      sload\n      swap1\n      0x0100\n      exp\n      swap1\n      div\n      0xffffffffffffffffffffffffffffffffffffffff\n      and\n        /* \"SupplyChain.sol\":7070:7123  currentOwner[_serialNumberHash] == txn.shipperAddress */\n      0xffffffffffffffffffffffffffffffffffffffff\n      and\n        /* \"SupplyChain.sol\":7070:7082  currentOwner */\n      0x00\n        /* \"SupplyChain.sol\":7070:7101  currentOwner[_serialNumberHash] */\n      0x00\n        /* \"SupplyChain.sol\":7083:7100  _serialNumberHash */\n      dup5\n        /* \"SupplyChain.sol\":7070:7101  currentOwner[_serialNumberHash] */\n      dup2\n      mstore\n      0x20\n      add\n      swap1\n      dup2\n      mstore\n      0x20\n      add\n      0x00\n      keccak256\n      0x00\n      swap1\n      sload\n      swap1\n      0x0100\n      exp\n      swap1\n      div\n      0xffffffffffffffffffffffffffffffffffffffff\n      and\n        /* \"SupplyChain.sol\":7070:7123  currentOwner[_serialNumberHash] == txn.shipperAddress */\n      0xffffffffffffffffffffffffffffffffffffffff\n      and\n      eq\n        /* \"SupplyChain.sol\":7062:7156  require(currentOwner[_serialNumberHash] == txn.shipperAddress, \"Shipper is not current owner\") */\n      tag_133\n      jumpi\n      mload(0x40)\n      0x08c379a000000000000000000000000000000000000000000000000000000000\n      dup2\n      mstore\n      0x04\n      add\n      tag_134\n      swap1\n      tag_135\n      jump\t// in\n    tag_134:\n      mload(0x40)\n      dup1\n      swap2\n      sub\n      swap1\n      revert\n    tag_133:\n        /* \"SupplyChain.sol\":7242:7245  txn */\n      dup1\n        /* \"SupplyChain.sol\":7242:7261  txn.receiverAddress */\n      0x07\n      add\n      0x00\n      swap1\n      sload\n      swap1\n      0x0100\n      exp\n      swap1\n      div\n      0xffffffffffffffffffffffffffffffffffffffff\n      and\n        /* \"SupplyChain.sol\":7208:7220  currentOwner */\n      0x00\n        /* \"SupplyChain.sol\":7208:7239  currentOwner[_serialNumberHash] */\n      0x00\n        /* \"SupplyChain.sol\":7221:7238  _serialNumberHash */\n      dup5\n        /* \"SupplyChain.sol\":7208:7239  currentOwner[_serialNumberHash] */\n      dup2\n      mstore\n      0x20\n      add\n      swap1\n      dup2\n      mstore\n      0x20\n      add\n      0x00\n      keccak256\n      0x00\n        /* \"SupplyChain.sol\":7208:7261  currentOwner[_serialNumberHash] = txn.receiverAddress */\n      0x0100\n      exp\n      dup2\n      sload\n      dup2\n      0xffffffffffffffffffffffffffffffffffffffff\n      mul\n      not\n      and\n      swap1\n      dup4\n      0xffffffffffffffffffffffffffffffffffffffff\n      and\n      mul\n      or\n      swap1\n      sstore\n      pop\n        /* \"SupplyChain.sol\":7290:7294  true */\n      0x01\n        /* \"SupplyChain.sol\":7272:7275  txn */\n      dup2\n        /* \"SupplyChain.sol\":7272:7287  txn.isCompleted */\n      0x06\n      add\n      0x00\n        /* \"SupplyChain.sol\":7272:7294  txn.isCompleted = true */\n      0x0100\n      exp\n      dup2\n      sload\n      dup2\n      0xff\n      mul\n      not\n      and\n      swap1\n      dup4\n      iszero\n      iszero\n      mul\n      or\n      swap1\n      sstore\n      pop\n        /* \"SupplyChain.sol\":7341:7357  _transactionHash */\n      dup3\n        /* \"SupplyChain.sol\":7320:7375  TransactionCompleted(_transactionHash, block.timestamp) */\n      0xf698c1d18e531666d86ab9a9062dbc6e994abb53ff9ece034d24d336ce13ed2d\n        /* \"SupplyChain.sol\":7359:7374  block.timestamp */\n      timestamp\n        /* \"SupplyChain.sol\":7320:7375  TransactionCompleted(_transactionHash, block.timestamp) */\n      mload(0x40)\n      tag_136\n      swap2\n      swap1\n      tag_83\n      jump\t// in\n    tag_136:\n      mload(0x40)\n      dup1\n      swap2\n      sub\n      swap1\n      log2\n        /* \"SupplyChain.sol\":6727:7383  {... */\n      pop\n        /* \"SupplyChain.sol\":6611:7383  function completeTransaction(... */\n      pop\n      pop\n      jump\t// out\n        /* \"SupplyChain.sol\":8439:8666  function getUserTransactions(address _user) external view returns (bytes32[] memory) {... */\n    tag_61:\n        /* \"SupplyChain.sol\":8506:8522  bytes32[] memory */\n      0x60\n        /* \"SupplyChain.sol\":8557:8562  _user */\n      dup2\n        /* \"SupplyChain.sol\":8543:8562  msg.sender == _user */\n      0xffffffffffffffffffffffffffffffffffffffff\n      and\n        /* \"SupplyChain.sol\":8543:8553  msg.sender */\n      caller\n        /* \"SupplyChain.sol\":8543:8562  msg.sender == _user */\n      0xffffffffffffffffffffffffffffffffffffffff\n      and\n      eq\n        /* \"SupplyChain.sol\":8543:8593  msg.sender == _user || msg.sender == contractOwner */\n      dup1\n      tag_138\n      jumpi\n      pop\n        /* \"SupplyChain.sol\":8580:8593  contractOwner */\n      0x05\n      0x00\n      swap1\n      sload\n      swap1\n      0x0100\n      exp\n      swap1\n      div\n      0xffffffffffffffffffffffffffffffffffffffff\n      and\n        /* \"SupplyChain.sol\":8566:8593  msg.sender == contractOwner */\n      0xffffffffffffffffffffffffffffffffffffffff\n      and\n        /* \"SupplyChain.sol\":8566:8576  msg.sender */\n      caller\n        /* \"SupplyChain.sol\":8566:8593  msg.sender == contractOwner */\n      0xffffffffffffffffffffffffffffffffffffffff\n      and\n      eq\n        /* \"SupplyChain.sol\":8543:8593  msg.sender == _user || msg.sender == contractOwner */\n    tag_138:\n        /* \"SupplyChain.sol\":8535:8617  require(msg.sender == _user || msg.sender == contractOwner, \"Unauthorized access\") */\n      tag_139\n      jumpi\n      mload(0x40)\n      0x08c379a000000000000000000000000000000000000000000000000000000000\n      dup2\n      mstore\n      0x04\n      add\n      tag_140\n      swap1\n      tag_141\n      jump\t// in\n    tag_140:\n      mload(0x40)\n      dup1\n      swap2\n      sub\n      swap1\n      revert\n    tag_139:\n        /* \"SupplyChain.sol\":8635:8651  userTransactions */\n      0x02\n        /* \"SupplyChain.sol\":8635:8658  userTransactions[_user] */\n      0x00\n        /* \"SupplyChain.sol\":8652:8657  _user */\n      dup4\n        /* \"SupplyChain.sol\":8635:8658  userTransactions[_user] */\n      0xffffffffffffffffffffffffffffffffffffffff\n      and\n      0xffffffffffffffffffffffffffffffffffffffff\n      and\n      dup2\n      mstore\n      0x20\n      add\n      swap1\n      dup2\n      mstore\n      0x20\n      add\n      0x00\n      keccak256\n        /* \"SupplyChain.sol\":8628:8658  return userTransactions[_user] */\n      dup1\n      sload\n      dup1\n      0x20\n      mul\n      0x20\n      add\n      mload(0x40)\n      swap1\n      dup2\n      add\n      0x40\n      mstore\n      dup1\n      swap3\n      swap2\n      swap1\n      dup2\n      dup2\n      mstore\n      0x20\n      add\n      dup3\n      dup1\n      sload\n      dup1\n      iszero\n      tag_142\n      jumpi\n      0x20\n      mul\n      dup3\n      add\n      swap2\n      swap1\n      0x00\n      mstore\n      keccak256(0x00, 0x20)\n      swap1\n    tag_143:\n      dup2\n      sload\n      dup2\n      mstore\n      0x20\n      add\n      swap1\n      0x01\n      add\n      swap1\n      dup1\n      dup4\n      gt\n      tag_143\n      jumpi\n    tag_142:\n      pop\n      pop\n      pop\n      pop\n      pop\n      swap1\n      pop\n        /* \"SupplyChain.sol\":8439:8666  function getUserTransactions(address _user) external view returns (bytes32[] memory) {... */\n      swap2\n      swap1\n      pop\n      jump\t// out\n        /* \"#utility.yul\":88:205   */\n    tag_145:\n        /* \"#utility.yul\":197:198   */\n      0x00\n        /* \"#utility.yul\":194:195   */\n      0x00\n        /* \"#utility.yul\":187:199   */\n      revert\n        /* \"#utility.yul\":334:411   */\n    tag_147:\n        /* \"#utility.yul\":371:378   */\n      0x00\n        /* \"#utility.yul\":400:405   */\n      dup2\n        /* \"#utility.yul\":389:405   */\n      swap1\n      pop\n        /* \"#utility.yul\":334:411   */\n      swap2\n      swap1\n      pop\n      jump\t// out\n        /* \"#utility.yul\":417:539   */\n    tag_148:\n        /* \"#utility.yul\":490:514   */\n      tag_214\n        /* \"#utility.yul\":508:513   */\n      dup2\n        /* \"#utility.yul\":490:514   */\n      tag_147\n      jump\t// in\n    tag_214:\n        /* \"#utility.yul\":483:488   */\n      dup2\n        /* \"#utility.yul\":480:515   */\n      eq\n        /* \"#utility.yul\":470:533   */\n      tag_215\n      jumpi\n        /* \"#utility.yul\":529:530   */\n      0x00\n        /* \"#utility.yul\":526:527   */\n      0x00\n        /* \"#utility.yul\":519:531   */\n      revert\n        /* \"#utility.yul\":470:533   */\n    tag_215:\n        /* \"#utility.yul\":417:539   */\n      pop\n      jump\t// out\n        /* \"#utility.yul\":545:684   */\n    tag_149:\n        /* \"#utility.yul\":591:596   */\n      0x00\n        /* \"#utility.yul\":629:635   */\n      dup2\n        /* \"#utility.yul\":616:636   */\n      calldataload\n        /* \"#utility.yul\":607:636   */\n      swap1\n      pop\n        /* \"#utility.yul\":645:678   */\n      tag_217\n        /* \"#utility.yul\":672:677   */\n      dup2\n        /* \"#utility.yul\":645:678   */\n      tag_148\n      jump\t// in\n    tag_217:\n        /* \"#utility.yul\":545:684   */\n      swap3\n      swap2\n      pop\n      pop\n      jump\t// out\n        /* \"#utility.yul\":690:816   */\n    tag_150:\n        /* \"#utility.yul\":727:734   */\n      0x00\n        /* \"#utility.yul\":767:809   */\n      0xffffffffffffffffffffffffffffffffffffffff\n        /* \"#utility.yul\":760:765   */\n      dup3\n        /* \"#utility.yul\":756:810   */\n      and\n        /* \"#utility.yul\":745:810   */\n      swap1\n      pop\n        /* \"#utility.yul\":690:816   */\n      swap2\n      swap1\n      pop\n      jump\t// out\n        /* \"#utility.yul\":822:918   */\n    tag_151:\n        /* \"#utility.yul\":859:866   */\n      0x00\n        /* \"#utility.yul\":888:912   */\n      tag_220\n        /* \"#utility.yul\":906:911   */\n      dup3\n        /* \"#utility.yul\":888:912   */\n      tag_150\n      jump\t// in\n    tag_220:\n        /* \"#utility.yul\":877:912   */\n      swap1\n      pop\n        /* \"#utility.yul\":822:918   */\n      swap2\n      swap1\n      pop\n      jump\t// out\n        /* \"#utility.yul\":924:1046   */\n    tag_152:\n        /* \"#utility.yul\":997:1021   */\n      tag_222\n        /* \"#utility.yul\":1015:1020   */\n      dup2\n        /* \"#utility.yul\":997:1021   */\n      tag_151\n      jump\t// in\n    tag_222:\n        /* \"#utility.yul\":990:995   */\n      dup2\n        /* \"#utility.yul\":987:1022   */\n      eq\n        /* \"#utility.yul\":977:1040   */\n      tag_223\n      jumpi\n        /* \"#utility.yul\":1036:1037   */\n      0x00\n        /* \"#utility.yul\":1033:1034   */\n      0x00\n        /* \"#utility.yul\":1026:1038   */\n      revert\n        /* \"#utility.yul\":977:1040   */\n    tag_223:\n        /* \"#utility.yul\":924:1046   */\n      pop\n      jump\t// out\n        /* \"#utility.yul\":1052:1191   */\n    tag_153:\n        /* \"#utility.yul\":1098:1103   */\n      0x00\n        /* \"#utility.yul\":1136:1142   */\n      dup2\n        /* \"#utility.yul\":1123:1143   */\n      calldataload\n        /* \"#utility.yul\":1114:1143   */\n      swap1\n      pop\n        /* \"#utility.yul\":1152:1185   */\n      tag_225\n        /* \"#utility.yul\":1179:1184   */\n      dup2\n        /* \"#utility.yul\":1152:1185   */\n      tag_152\n      jump\t// in\n    tag_225:\n        /* \"#utility.yul\":1052:1191   */\n      swap3\n      swap2\n      pop\n      pop\n      jump\t// out\n        /* \"#utility.yul\":1197:2254   */\n    tag_17:\n        /* \"#utility.yul\":1301:1307   */\n      0x00\n        /* \"#utility.yul\":1309:1315   */\n      0x00\n        /* \"#utility.yul\":1317:1323   */\n      0x00\n        /* \"#utility.yul\":1325:1331   */\n      0x00\n        /* \"#utility.yul\":1333:1339   */\n      0x00\n        /* \"#utility.yul\":1341:1347   */\n      0x00\n        /* \"#utility.yul\":1390:1393   */\n      0xc0\n        /* \"#utility.yul\":1378:1387   */\n      dup8\n        /* \"#utility.yul\":1369:1376   */\n      dup10\n        /* \"#utility.yul\":1365:1388   */\n      sub\n        /* \"#utility.yul\":1361:1394   */\n      slt\n        /* \"#utility.yul\":1358:1478   */\n      iszero\n      tag_227\n      jumpi\n        /* \"#utility.yul\":1397:1476   */\n      tag_228\n      tag_145\n      jump\t// in\n    tag_228:\n        /* \"#utility.yul\":1358:1478   */\n    tag_227:\n        /* \"#utility.yul\":1517:1518   */\n      0x00\n        /* \"#utility.yul\":1542:1595   */\n      tag_229\n        /* \"#utility.yul\":1587:1594   */\n      dup10\n        /* \"#utility.yul\":1578:1584   */\n      dup3\n        /* \"#utility.yul\":1567:1576   */\n      dup11\n        /* \"#utility.yul\":1563:1585   */\n      add\n        /* \"#utility.yul\":1542:1595   */\n      tag_149\n      jump\t// in\n    tag_229:\n        /* \"#utility.yul\":1532:1595   */\n      swap7\n      pop\n        /* \"#utility.yul\":1488:1605   */\n      pop\n        /* \"#utility.yul\":1644:1646   */\n      0x20\n        /* \"#utility.yul\":1670:1723   */\n      tag_230\n        /* \"#utility.yul\":1715:1722   */\n      dup10\n        /* \"#utility.yul\":1706:1712   */\n      dup3\n        /* \"#utility.yul\":1695:1704   */\n      dup11\n        /* \"#utility.yul\":1691:1713   */\n      add\n        /* \"#utility.yul\":1670:1723   */\n      tag_149\n      jump\t// in\n    tag_230:\n        /* \"#utility.yul\":1660:1723   */\n      swap6\n      pop\n        /* \"#utility.yul\":1615:1733   */\n      pop\n        /* \"#utility.yul\":1772:1774   */\n      0x40\n        /* \"#utility.yul\":1798:1851   */\n      tag_231\n        /* \"#utility.yul\":1843:1850   */\n      dup10\n        /* \"#utility.yul\":1834:1840   */\n      dup3\n        /* \"#utility.yul\":1823:1832   */\n      dup11\n        /* \"#utility.yul\":1819:1841   */\n      add\n        /* \"#utility.yul\":1798:1851   */\n      tag_149\n      jump\t// in\n    tag_231:\n        /* \"#utility.yul\":1788:1851   */\n      swap5\n      pop\n        /* \"#utility.yul\":1743:1861   */\n      pop\n        /* \"#utility.yul\":1900:1902   */\n      0x60\n        /* \"#utility.yul\":1926:1979   */\n      tag_232\n        /* \"#utility.yul\":1971:1978   */\n      dup10\n        /* \"#utility.yul\":1962:1968   */\n      dup3\n        /* \"#utility.yul\":1951:1960   */\n      dup11\n        /* \"#utility.yul\":1947:1969   */\n      add\n        /* \"#utility.yul\":1926:1979   */\n      tag_149\n      jump\t// in\n    tag_232:\n        /* \"#utility.yul\":1916:1979   */\n      swap4\n      pop\n        /* \"#utility.yul\":1871:1989   */\n      pop\n        /* \"#utility.yul\":2028:2031   */\n      0x80\n        /* \"#utility.yul\":2055:2108   */\n      tag_233\n        /* \"#utility.yul\":2100:2107   */\n      dup10\n        /* \"#utility.yul\":2091:2097   */\n      dup3\n        /* \"#utility.yul\":2080:2089   */\n      dup11\n        /* \"#utility.yul\":2076:2098   */\n      add\n        /* \"#utility.yul\":2055:2108   */\n      tag_149\n      jump\t// in\n    tag_233:\n        /* \"#utility.yul\":2045:2108   */\n      swap3\n      pop\n        /* \"#utility.yul\":1999:2118   */\n      pop\n        /* \"#utility.yul\":2157:2160   */\n      0xa0\n        /* \"#utility.yul\":2184:2237   */\n      tag_234\n        /* \"#utility.yul\":2229:2236   */\n      dup10\n        /* \"#utility.yul\":2220:2226   */\n      dup3\n        /* \"#utility.yul\":2209:2218   */\n      dup11\n        /* \"#utility.yul\":2205:2227   */\n      add\n        /* \"#utility.yul\":2184:2237   */\n      tag_153\n      jump\t// in\n    tag_234:\n        /* \"#utility.yul\":2174:2237   */\n      swap2\n      pop\n        /* \"#utility.yul\":2128:2247   */\n      pop\n        /* \"#utility.yul\":1197:2254   */\n      swap3\n      swap6\n      pop\n      swap3\n      swap6\n      pop\n      swap3\n      swap6\n      jump\t// out\n        /* \"#utility.yul\":2260:2378   */\n    tag_154:\n        /* \"#utility.yul\":2347:2371   */\n      tag_236\n        /* \"#utility.yul\":2365:2370   */\n      dup2\n        /* \"#utility.yul\":2347:2371   */\n      tag_147\n      jump\t// in\n    tag_236:\n        /* \"#utility.yul\":2342:2345   */\n      dup3\n        /* \"#utility.yul\":2335:2372   */\n      mstore\n        /* \"#utility.yul\":2260:2378   */\n      pop\n      pop\n      jump\t// out\n        /* \"#utility.yul\":2384:2606   */\n    tag_20:\n        /* \"#utility.yul\":2477:2481   */\n      0x00\n        /* \"#utility.yul\":2515:2517   */\n      0x20\n        /* \"#utility.yul\":2504:2513   */\n      dup3\n        /* \"#utility.yul\":2500:2518   */\n      add\n        /* \"#utility.yul\":2492:2518   */\n      swap1\n      pop\n        /* \"#utility.yul\":2528:2599   */\n      tag_238\n        /* \"#utility.yul\":2596:2597   */\n      0x00\n        /* \"#utility.yul\":2585:2594   */\n      dup4\n        /* \"#utility.yul\":2581:2598   */\n      add\n        /* \"#utility.yul\":2572:2578   */\n      dup5\n        /* \"#utility.yul\":2528:2599   */\n      tag_154\n      jump\t// in\n    tag_238:\n        /* \"#utility.yul\":2384:2606   */\n      swap3\n      swap2\n      pop\n      pop\n      jump\t// out\n        /* \"#utility.yul\":2612:2941   */\n    tag_23:\n        /* \"#utility.yul\":2671:2677   */\n      0x00\n        /* \"#utility.yul\":2720:2722   */\n      0x20\n        /* \"#utility.yul\":2708:2717   */\n      dup3\n        /* \"#utility.yul\":2699:2706   */\n      dup5\n        /* \"#utility.yul\":2695:2718   */\n      sub\n        /* \"#utility.yul\":2691:2723   */\n      slt\n        /* \"#utility.yul\":2688:2807   */\n      iszero\n      tag_240\n      jumpi\n        /* \"#utility.yul\":2726:2805   */\n      tag_241\n      tag_145\n      jump\t// in\n    tag_241:\n        /* \"#utility.yul\":2688:2807   */\n    tag_240:\n        /* \"#utility.yul\":2846:2847   */\n      0x00\n        /* \"#utility.yul\":2871:2924   */\n      tag_242\n        /* \"#utility.yul\":2916:2923   */\n      dup5\n        /* \"#utility.yul\":2907:2913   */\n      dup3\n        /* \"#utility.yul\":2896:2905   */\n      dup6\n        /* \"#utility.yul\":2892:2914   */\n      add\n        /* \"#utility.yul\":2871:2924   */\n      tag_153\n      jump\t// in\n    tag_242:\n        /* \"#utility.yul\":2861:2924   */\n      swap2\n      pop\n        /* \"#utility.yul\":2817:2934   */\n      pop\n        /* \"#utility.yul\":2612:2941   */\n      swap3\n      swap2\n      pop\n      pop\n      jump\t// out\n        /* \"#utility.yul\":2947:3037   */\n    tag_155:\n        /* \"#utility.yul\":2981:2988   */\n      0x00\n        /* \"#utility.yul\":3024:3029   */\n      dup2\n        /* \"#utility.yul\":3017:3030   */\n      iszero\n        /* \"#utility.yul\":3010:3031   */\n      iszero\n        /* \"#utility.yul\":2999:3031   */\n      swap1\n      pop\n        /* \"#utility.yul\":2947:3037   */\n      swap2\n      swap1\n      pop\n      jump\t// out\n        /* \"#utility.yul\":3043:3152   */\n    tag_156:\n        /* \"#utility.yul\":3124:3145   */\n      tag_245\n        /* \"#utility.yul\":3139:3144   */\n      dup2\n        /* \"#utility.yul\":3124:3145   */\n      tag_155\n      jump\t// in\n    tag_245:\n        /* \"#utility.yul\":3119:3122   */\n      dup3\n        /* \"#utility.yul\":3112:3146   */\n      mstore\n        /* \"#utility.yul\":3043:3152   */\n      pop\n      pop\n      jump\t// out\n        /* \"#utility.yul\":3158:3368   */\n    tag_32:\n        /* \"#utility.yul\":3245:3249   */\n      0x00\n        /* \"#utility.yul\":3283:3285   */\n      0x20\n        /* \"#utility.yul\":3272:3281   */\n      dup3\n        /* \"#utility.yul\":3268:3286   */\n      add\n        /* \"#utility.yul\":3260:3286   */\n      swap1\n      pop\n        /* \"#utility.yul\":3296:3361   */\n      tag_247\n        /* \"#utility.yul\":3358:3359   */\n      0x00\n        /* \"#utility.yul\":3347:3356   */\n      dup4\n        /* \"#utility.yul\":3343:3360   */\n      add\n        /* \"#utility.yul\":3334:3340   */\n      dup5\n        /* \"#utility.yul\":3296:3361   */\n      tag_156\n      jump\t// in\n    tag_247:\n        /* \"#utility.yul\":3158:3368   */\n      swap3\n      swap2\n      pop\n      pop\n      jump\t// out\n        /* \"#utility.yul\":3374:3703   */\n    tag_35:\n        /* \"#utility.yul\":3433:3439   */\n      0x00\n        /* \"#utility.yul\":3482:3484   */\n      0x20\n        /* \"#utility.yul\":3470:3479   */\n      dup3\n        /* \"#utility.yul\":3461:3468   */\n      dup5\n        /* \"#utility.yul\":3457:3480   */\n      sub\n        /* \"#utility.yul\":3453:3485   */\n      slt\n        /* \"#utility.yul\":3450:3569   */\n      iszero\n      tag_249\n      jumpi\n        /* \"#utility.yul\":3488:3567   */\n      tag_250\n      tag_145\n      jump\t// in\n    tag_250:\n        /* \"#utility.yul\":3450:3569   */\n    tag_249:\n        /* \"#utility.yul\":3608:3609   */\n      0x00\n        /* \"#utility.yul\":3633:3686   */\n      tag_251\n        /* \"#utility.yul\":3678:3685   */\n      dup5\n        /* \"#utility.yul\":3669:3675   */\n      dup3\n        /* \"#utility.yul\":3658:3667   */\n      dup6\n        /* \"#utility.yul\":3654:3676   */\n      add\n        /* \"#utility.yul\":3633:3686   */\n      tag_149\n      jump\t// in\n    tag_251:\n        /* \"#utility.yul\":3623:3686   */\n      swap2\n      pop\n        /* \"#utility.yul\":3579:3696   */\n      pop\n        /* \"#utility.yul\":3374:3703   */\n      swap3\n      swap2\n      pop\n      pop\n      jump\t// out\n        /* \"#utility.yul\":3709:3827   */\n    tag_157:\n        /* \"#utility.yul\":3796:3820   */\n      tag_253\n        /* \"#utility.yul\":3814:3819   */\n      dup2\n        /* \"#utility.yul\":3796:3820   */\n      tag_151\n      jump\t// in\n    tag_253:\n        /* \"#utility.yul\":3791:3794   */\n      dup3\n        /* \"#utility.yul\":3784:3821   */\n      mstore\n        /* \"#utility.yul\":3709:3827   */\n      pop\n      pop\n      jump\t// out\n        /* \"#utility.yul\":3833:4055   */\n    tag_42:\n        /* \"#utility.yul\":3926:3930   */\n      0x00\n        /* \"#utility.yul\":3964:3966   */\n      0x20\n        /* \"#utility.yul\":3953:3962   */\n      dup3\n        /* \"#utility.yul\":3949:3967   */\n      add\n        /* \"#utility.yul\":3941:3967   */\n      swap1\n      pop\n        /* \"#utility.yul\":3977:4048   */\n      tag_255\n        /* \"#utility.yul\":4045:4046   */\n      0x00\n        /* \"#utility.yul\":4034:4043   */\n      dup4\n        /* \"#utility.yul\":4030:4047   */\n      add\n        /* \"#utility.yul\":4021:4027   */\n      dup5\n        /* \"#utility.yul\":3977:4048   */\n      tag_157\n      jump\t// in\n    tag_255:\n        /* \"#utility.yul\":3833:4055   */\n      swap3\n      swap2\n      pop\n      pop\n      jump\t// out\n        /* \"#utility.yul\":4061:4138   */\n    tag_158:\n        /* \"#utility.yul\":4098:4105   */\n      0x00\n        /* \"#utility.yul\":4127:4132   */\n      dup2\n        /* \"#utility.yul\":4116:4132   */\n      swap1\n      pop\n        /* \"#utility.yul\":4061:4138   */\n      swap2\n      swap1\n      pop\n      jump\t// out\n        /* \"#utility.yul\":4144:4262   */\n    tag_159:\n        /* \"#utility.yul\":4231:4255   */\n      tag_258\n        /* \"#utility.yul\":4249:4254   */\n      dup2\n        /* \"#utility.yul\":4231:4255   */\n      tag_158\n      jump\t// in\n    tag_258:\n        /* \"#utility.yul\":4226:4229   */\n      dup3\n        /* \"#utility.yul\":4219:4256   */\n      mstore\n        /* \"#utility.yul\":4144:4262   */\n      pop\n      pop\n      jump\t// out\n        /* \"#utility.yul\":4268:5031   */\n    tag_47:\n        /* \"#utility.yul\":4495:4499   */\n      0x00\n        /* \"#utility.yul\":4533:4536   */\n      0xc0\n        /* \"#utility.yul\":4522:4531   */\n      dup3\n        /* \"#utility.yul\":4518:4537   */\n      add\n        /* \"#utility.yul\":4510:4537   */\n      swap1\n      pop\n        /* \"#utility.yul\":4547:4618   */\n      tag_260\n        /* \"#utility.yul\":4615:4616   */\n      0x00\n        /* \"#utility.yul\":4604:4613   */\n      dup4\n        /* \"#utility.yul\":4600:4617   */\n      add\n        /* \"#utility.yul\":4591:4597   */\n      dup10\n        /* \"#utility.yul\":4547:4618   */\n      tag_154\n      jump\t// in\n    tag_260:\n        /* \"#utility.yul\":4628:4700   */\n      tag_261\n        /* \"#utility.yul\":4696:4698   */\n      0x20\n        /* \"#utility.yul\":4685:4694   */\n      dup4\n        /* \"#utility.yul\":4681:4699   */\n      add\n        /* \"#utility.yul\":4672:4678   */\n      dup9\n        /* \"#utility.yul\":4628:4700   */\n      tag_154\n      jump\t// in\n    tag_261:\n        /* \"#utility.yul\":4710:4782   */\n      tag_262\n        /* \"#utility.yul\":4778:4780   */\n      0x40\n        /* \"#utility.yul\":4767:4776   */\n      dup4\n        /* \"#utility.yul\":4763:4781   */\n      add\n        /* \"#utility.yul\":4754:4760   */\n      dup8\n        /* \"#utility.yul\":4710:4782   */\n      tag_154\n      jump\t// in\n    tag_262:\n        /* \"#utility.yul\":4792:4864   */\n      tag_263\n        /* \"#utility.yul\":4860:4862   */\n      0x60\n        /* \"#utility.yul\":4849:4858   */\n      dup4\n        /* \"#utility.yul\":4845:4863   */\n      add\n        /* \"#utility.yul\":4836:4842   */\n      dup7\n        /* \"#utility.yul\":4792:4864   */\n      tag_154\n      jump\t// in\n    tag_263:\n        /* \"#utility.yul\":4874:4947   */\n      tag_264\n        /* \"#utility.yul\":4942:4945   */\n      0x80\n        /* \"#utility.yul\":4931:4940   */\n      dup4\n        /* \"#utility.yul\":4927:4946   */\n      add\n        /* \"#utility.yul\":4918:4924   */\n      dup6\n        /* \"#utility.yul\":4874:4947   */\n      tag_159\n      jump\t// in\n    tag_264:\n        /* \"#utility.yul\":4957:5024   */\n      tag_265\n        /* \"#utility.yul\":5019:5022   */\n      0xa0\n        /* \"#utility.yul\":5008:5017   */\n      dup4\n        /* \"#utility.yul\":5004:5023   */\n      add\n        /* \"#utility.yul\":4995:5001   */\n      dup5\n        /* \"#utility.yul\":4957:5024   */\n      tag_156\n      jump\t// in\n    tag_265:\n        /* \"#utility.yul\":4268:5031   */\n      swap8\n      swap7\n      pop\n      pop\n      pop\n      pop\n      pop\n      pop\n      pop\n      jump\t// out\n        /* \"#utility.yul\":5037:5656   */\n    tag_50:\n        /* \"#utility.yul\":5114:5120   */\n      0x00\n        /* \"#utility.yul\":5122:5128   */\n      0x00\n        /* \"#utility.yul\":5130:5136   */\n      0x00\n        /* \"#utility.yul\":5179:5181   */\n      0x60\n        /* \"#utility.yul\":5167:5176   */\n      dup5\n        /* \"#utility.yul\":5158:5165   */\n      dup7\n        /* \"#utility.yul\":5154:5177   */\n      sub\n        /* \"#utility.yul\":5150:5182   */\n      slt\n        /* \"#utility.yul\":5147:5266   */\n      iszero\n      tag_267\n      jumpi\n        /* \"#utility.yul\":5185:5264   */\n      tag_268\n      tag_145\n      jump\t// in\n    tag_268:\n        /* \"#utility.yul\":5147:5266   */\n    tag_267:\n        /* \"#utility.yul\":5305:5306   */\n      0x00\n        /* \"#utility.yul\":5330:5383   */\n      tag_269\n        /* \"#utility.yul\":5375:5382   */\n      dup7\n        /* \"#utility.yul\":5366:5372   */\n      dup3\n        /* \"#utility.yul\":5355:5364   */\n      dup8\n        /* \"#utility.yul\":5351:5373   */\n      add\n        /* \"#utility.yul\":5330:5383   */\n      tag_149\n      jump\t// in\n    tag_269:\n        /* \"#utility.yul\":5320:5383   */\n      swap4\n      pop\n        /* \"#utility.yul\":5276:5393   */\n      pop\n        /* \"#utility.yul\":5432:5434   */\n      0x20\n        /* \"#utility.yul\":5458:5511   */\n      tag_270\n        /* \"#utility.yul\":5503:5510   */\n      dup7\n        /* \"#utility.yul\":5494:5500   */\n      dup3\n        /* \"#utility.yul\":5483:5492   */\n      dup8\n        /* \"#utility.yul\":5479:5501   */\n      add\n        /* \"#utility.yul\":5458:5511   */\n      tag_149\n      jump\t// in\n    tag_270:\n        /* \"#utility.yul\":5448:5511   */\n      swap3\n      pop\n        /* \"#utility.yul\":5403:5521   */\n      pop\n        /* \"#utility.yul\":5560:5562   */\n      0x40\n        /* \"#utility.yul\":5586:5639   */\n      tag_271\n        /* \"#utility.yul\":5631:5638   */\n      dup7\n        /* \"#utility.yul\":5622:5628   */\n      dup3\n        /* \"#utility.yul\":5611:5620   */\n      dup8\n        /* \"#utility.yul\":5607:5629   */\n      add\n        /* \"#utility.yul\":5586:5639   */\n      tag_149\n      jump\t// in\n    tag_271:\n        /* \"#utility.yul\":5576:5639   */\n      swap2\n      pop\n        /* \"#utility.yul\":5531:5649   */\n      pop\n        /* \"#utility.yul\":5037:5656   */\n      swap3\n      pop\n      swap3\n      pop\n      swap3\n      jump\t// out\n        /* \"#utility.yul\":5662:6136   */\n    tag_57:\n        /* \"#utility.yul\":5730:5736   */\n      0x00\n        /* \"#utility.yul\":5738:5744   */\n      0x00\n        /* \"#utility.yul\":5787:5789   */\n      0x40\n        /* \"#utility.yul\":5775:5784   */\n      dup4\n        /* \"#utility.yul\":5766:5773   */\n      dup6\n        /* \"#utility.yul\":5762:5785   */\n      sub\n        /* \"#utility.yul\":5758:5790   */\n      slt\n        /* \"#utility.yul\":5755:5874   */\n      iszero\n      tag_273\n      jumpi\n        /* \"#utility.yul\":5793:5872   */\n      tag_274\n      tag_145\n      jump\t// in\n    tag_274:\n        /* \"#utility.yul\":5755:5874   */\n    tag_273:\n        /* \"#utility.yul\":5913:5914   */\n      0x00\n        /* \"#utility.yul\":5938:5991   */\n      tag_275\n        /* \"#utility.yul\":5983:5990   */\n      dup6\n        /* \"#utility.yul\":5974:5980   */\n      dup3\n        /* \"#utility.yul\":5963:5972   */\n      dup7\n        /* \"#utility.yul\":5959:5981   */\n      add\n        /* \"#utility.yul\":5938:5991   */\n      tag_149\n      jump\t// in\n    tag_275:\n        /* \"#utility.yul\":5928:5991   */\n      swap3\n      pop\n        /* \"#utility.yul\":5884:6001   */\n      pop\n        /* \"#utility.yul\":6040:6042   */\n      0x20\n        /* \"#utility.yul\":6066:6119   */\n      tag_276\n        /* \"#utility.yul\":6111:6118   */\n      dup6\n        /* \"#utility.yul\":6102:6108   */\n      dup3\n        /* \"#utility.yul\":6091:6100   */\n      dup7\n        /* \"#utility.yul\":6087:6109   */\n      add\n        /* \"#utility.yul\":6066:6119   */\n      tag_149\n      jump\t// in\n    tag_276:\n        /* \"#utility.yul\":6056:6119   */\n      swap2\n      pop\n        /* \"#utility.yul\":6011:6129   */\n      pop\n        /* \"#utility.yul\":5662:6136   */\n      swap3\n      pop\n      swap3\n      swap1\n      pop\n      jump\t// out\n        /* \"#utility.yul\":6142:6256   */\n    tag_160:\n        /* \"#utility.yul\":6209:6215   */\n      0x00\n        /* \"#utility.yul\":6243:6248   */\n      dup2\n        /* \"#utility.yul\":6237:6249   */\n      mload\n        /* \"#utility.yul\":6227:6249   */\n      swap1\n      pop\n        /* \"#utility.yul\":6142:6256   */\n      swap2\n      swap1\n      pop\n      jump\t// out\n        /* \"#utility.yul\":6262:6446   */\n    tag_161:\n        /* \"#utility.yul\":6361:6372   */\n      0x00\n        /* \"#utility.yul\":6395:6401   */\n      dup3\n        /* \"#utility.yul\":6390:6393   */\n      dup3\n        /* \"#utility.yul\":6383:6402   */\n      mstore\n        /* \"#utility.yul\":6435:6439   */\n      0x20\n        /* \"#utility.yul\":6430:6433   */\n      dup3\n        /* \"#utility.yul\":6426:6440   */\n      add\n        /* \"#utility.yul\":6411:6440   */\n      swap1\n      pop\n        /* \"#utility.yul\":6262:6446   */\n      swap3\n      swap2\n      pop\n      pop\n      jump\t// out\n        /* \"#utility.yul\":6452:6584   */\n    tag_162:\n        /* \"#utility.yul\":6519:6523   */\n      0x00\n        /* \"#utility.yul\":6542:6545   */\n      dup2\n        /* \"#utility.yul\":6534:6545   */\n      swap1\n      pop\n        /* \"#utility.yul\":6572:6576   */\n      0x20\n        /* \"#utility.yul\":6567:6570   */\n      dup3\n        /* \"#utility.yul\":6563:6577   */\n      add\n        /* \"#utility.yul\":6555:6577   */\n      swap1\n      pop\n        /* \"#utility.yul\":6452:6584   */\n      swap2\n      swap1\n      pop\n      jump\t// out\n        /* \"#utility.yul\":6590:6698   */\n    tag_163:\n        /* \"#utility.yul\":6667:6691   */\n      tag_281\n        /* \"#utility.yul\":6685:6690   */\n      dup2\n        /* \"#utility.yul\":6667:6691   */\n      tag_147\n      jump\t// in\n    tag_281:\n        /* \"#utility.yul\":6662:6665   */\n      dup3\n        /* \"#utility.yul\":6655:6692   */\n      mstore\n        /* \"#utility.yul\":6590:6698   */\n      pop\n      pop\n      jump\t// out\n        /* \"#utility.yul\":6704:6883   */\n    tag_164:\n        /* \"#utility.yul\":6773:6783   */\n      0x00\n        /* \"#utility.yul\":6794:6840   */\n      tag_283\n        /* \"#utility.yul\":6836:6839   */\n      dup4\n        /* \"#utility.yul\":6828:6834   */\n      dup4\n        /* \"#utility.yul\":6794:6840   */\n      tag_163\n      jump\t// in\n    tag_283:\n        /* \"#utility.yul\":6872:6876   */\n      0x20\n        /* \"#utility.yul\":6867:6870   */\n      dup4\n        /* \"#utility.yul\":6863:6877   */\n      add\n        /* \"#utility.yul\":6849:6877   */\n      swap1\n      pop\n        /* \"#utility.yul\":6704:6883   */\n      swap3\n      swap2\n      pop\n      pop\n      jump\t// out\n        /* \"#utility.yul\":6889:7002   */\n    tag_165:\n        /* \"#utility.yul\":6959:6963   */\n      0x00\n        /* \"#utility.yul\":6991:6995   */\n      0x20\n        /* \"#utility.yul\":6986:6989   */\n      dup3\n        /* \"#utility.yul\":6982:6996   */\n      add\n        /* \"#utility.yul\":6974:6996   */\n      swap1\n      pop\n        /* \"#utility.yul\":6889:7002   */\n      swap2\n      swap1\n      pop\n      jump\t// out\n        /* \"#utility.yul\":7038:7770   */\n    tag_166:\n        /* \"#utility.yul\":7157:7160   */\n      0x00\n        /* \"#utility.yul\":7186:7240   */\n      tag_286\n        /* \"#utility.yul\":7234:7239   */\n      dup3\n        /* \"#utility.yul\":7186:7240   */\n      tag_160\n      jump\t// in\n    tag_286:\n        /* \"#utility.yul\":7256:7342   */\n      tag_287\n        /* \"#utility.yul\":7335:7341   */\n      dup2\n        /* \"#utility.yul\":7330:7333   */\n      dup6\n        /* \"#utility.yul\":7256:7342   */\n      tag_161\n      jump\t// in\n    tag_287:\n        /* \"#utility.yul\":7249:7342   */\n      swap4\n      pop\n        /* \"#utility.yul\":7366:7422   */\n      tag_288\n        /* \"#utility.yul\":7416:7421   */\n      dup4\n        /* \"#utility.yul\":7366:7422   */\n      tag_162\n      jump\t// in\n    tag_288:\n        /* \"#utility.yul\":7445:7452   */\n      dup1\n        /* \"#utility.yul\":7476:7477   */\n      0x00\n        /* \"#utility.yul\":7461:7745   */\n    tag_289:\n        /* \"#utility.yul\":7486:7492   */\n      dup4\n        /* \"#utility.yul\":7483:7484   */\n      dup2\n        /* \"#utility.yul\":7480:7493   */\n      lt\n        /* \"#utility.yul\":7461:7745   */\n      iszero\n      tag_291\n      jumpi\n        /* \"#utility.yul\":7562:7568   */\n      dup2\n        /* \"#utility.yul\":7556:7569   */\n      mload\n        /* \"#utility.yul\":7589:7652   */\n      tag_292\n        /* \"#utility.yul\":7648:7651   */\n      dup9\n        /* \"#utility.yul\":7633:7646   */\n      dup3\n        /* \"#utility.yul\":7589:7652   */\n      tag_164\n      jump\t// in\n    tag_292:\n        /* \"#utility.yul\":7582:7652   */\n      swap8\n      pop\n        /* \"#utility.yul\":7675:7735   */\n      tag_293\n        /* \"#utility.yul\":7728:7734   */\n      dup4\n        /* \"#utility.yul\":7675:7735   */\n      tag_165\n      jump\t// in\n    tag_293:\n        /* \"#utility.yul\":7665:7735   */\n      swap3\n      pop\n        /* \"#utility.yul\":7521:7745   */\n      pop\n        /* \"#utility.yul\":7508:7509   */\n      0x01\n        /* \"#utility.yul\":7505:7506   */\n      dup2\n        /* \"#utility.yul\":7501:7510   */\n      add\n        /* \"#utility.yul\":7496:7510   */\n      swap1\n      pop\n        /* \"#utility.yul\":7461:7745   */\n      jump(tag_289)\n    tag_291:\n        /* \"#utility.yul\":7465:7479   */\n      pop\n        /* \"#utility.yul\":7761:7764   */\n      dup6\n        /* \"#utility.yul\":7754:7764   */\n      swap4\n      pop\n        /* \"#utility.yul\":7162:7770   */\n      pop\n      pop\n      pop\n        /* \"#utility.yul\":7038:7770   */\n      swap3\n      swap2\n      pop\n      pop\n      jump\t// out\n        /* \"#utility.yul\":7776:8149   */\n    tag_63:\n        /* \"#utility.yul\":7919:7923   */\n      0x00\n        /* \"#utility.yul\":7957:7959   */\n      0x20\n        /* \"#utility.yul\":7946:7955   */\n      dup3\n        /* \"#utility.yul\":7942:7960   */\n      add\n        /* \"#utility.yul\":7934:7960   */\n      swap1\n      pop\n        /* \"#utility.yul\":8006:8015   */\n      dup2\n        /* \"#utility.yul\":8000:8004   */\n      dup2\n        /* \"#utility.yul\":7996:8016   */\n      sub\n        /* \"#utility.yul\":7992:7993   */\n      0x00\n        /* \"#utility.yul\":7981:7990   */\n      dup4\n        /* \"#utility.yul\":7977:7994   */\n      add\n        /* \"#utility.yul\":7970:8017   */\n      mstore\n        /* \"#utility.yul\":8034:8142   */\n      tag_295\n        /* \"#utility.yul\":8137:8141   */\n      dup2\n        /* \"#utility.yul\":8128:8134   */\n      dup5\n        /* \"#utility.yul\":8034:8142   */\n      tag_166\n      jump\t// in\n    tag_295:\n        /* \"#utility.yul\":8026:8142   */\n      swap1\n      pop\n        /* \"#utility.yul\":7776:8149   */\n      swap3\n      swap2\n      pop\n      pop\n      jump\t// out\n        /* \"#utility.yul\":8155:8324   */\n    tag_167:\n        /* \"#utility.yul\":8239:8250   */\n      0x00\n        /* \"#utility.yul\":8273:8279   */\n      dup3\n        /* \"#utility.yul\":8268:8271   */\n      dup3\n        /* \"#utility.yul\":8261:8280   */\n      mstore\n        /* \"#utility.yul\":8313:8317   */\n      0x20\n        /* \"#utility.yul\":8308:8311   */\n      dup3\n        /* \"#utility.yul\":8304:8318   */\n      add\n        /* \"#utility.yul\":8289:8318   */\n      swap1\n      pop\n        /* \"#utility.yul\":8155:8324   */\n      swap3\n      swap2\n      pop\n      pop\n      jump\t// out\n        /* \"#utility.yul\":8330:8559   */\n    tag_168:\n        /* \"#utility.yul\":8470:8504   */\n      0x596f7520617265206e6f74207468652063757272656e74206f776e6572206f66\n        /* \"#utility.yul\":8466:8467   */\n      0x00\n        /* \"#utility.yul\":8458:8464   */\n      dup3\n        /* \"#utility.yul\":8454:8468   */\n      add\n        /* \"#utility.yul\":8447:8505   */\n      mstore\n        /* \"#utility.yul\":8539:8551   */\n      0x2074686973206974656d00000000000000000000000000000000000000000000\n        /* \"#utility.yul\":8534:8536   */\n      0x20\n        /* \"#utility.yul\":8526:8532   */\n      dup3\n        /* \"#utility.yul\":8522:8537   */\n      add\n        /* \"#utility.yul\":8515:8552   */\n      mstore\n        /* \"#utility.yul\":8330:8559   */\n      pop\n      jump\t// out\n        /* \"#utility.yul\":8565:8931   */\n    tag_169:\n        /* \"#utility.yul\":8707:8710   */\n      0x00\n        /* \"#utility.yul\":8728:8795   */\n      tag_299\n        /* \"#utility.yul\":8792:8794   */\n      0x2a\n        /* \"#utility.yul\":8787:8790   */\n      dup4\n        /* \"#utility.yul\":8728:8795   */\n      tag_167\n      jump\t// in\n    tag_299:\n        /* \"#utility.yul\":8721:8795   */\n      swap2\n      pop\n        /* \"#utility.yul\":8804:8897   */\n      tag_300\n        /* \"#utility.yul\":8893:8896   */\n      dup3\n        /* \"#utility.yul\":8804:8897   */\n      tag_168\n      jump\t// in\n    tag_300:\n        /* \"#utility.yul\":8922:8924   */\n      0x40\n        /* \"#utility.yul\":8917:8920   */\n      dup3\n        /* \"#utility.yul\":8913:8925   */\n      add\n        /* \"#utility.yul\":8906:8925   */\n      swap1\n      pop\n        /* \"#utility.yul\":8565:8931   */\n      swap2\n      swap1\n      pop\n      jump\t// out\n        /* \"#utility.yul\":8937:9356   */\n    tag_67:\n        /* \"#utility.yul\":9103:9107   */\n      0x00\n        /* \"#utility.yul\":9141:9143   */\n      0x20\n        /* \"#utility.yul\":9130:9139   */\n      dup3\n        /* \"#utility.yul\":9126:9144   */\n      add\n        /* \"#utility.yul\":9118:9144   */\n      swap1\n      pop\n        /* \"#utility.yul\":9190:9199   */\n      dup2\n        /* \"#utility.yul\":9184:9188   */\n      dup2\n        /* \"#utility.yul\":9180:9200   */\n      sub\n        /* \"#utility.yul\":9176:9177   */\n      0x00\n        /* \"#utility.yul\":9165:9174   */\n      dup4\n        /* \"#utility.yul\":9161:9178   */\n      add\n        /* \"#utility.yul\":9154:9201   */\n      mstore\n        /* \"#utility.yul\":9218:9349   */\n      tag_302\n        /* \"#utility.yul\":9344:9348   */\n      dup2\n        /* \"#utility.yul\":9218:9349   */\n      tag_169\n      jump\t// in\n    tag_302:\n        /* \"#utility.yul\":9210:9349   */\n      swap1\n      pop\n        /* \"#utility.yul\":8937:9356   */\n      swap2\n      swap1\n      pop\n      jump\t// out\n        /* \"#utility.yul\":9362:9534   */\n    tag_170:\n        /* \"#utility.yul\":9502:9526   */\n      0x50726f64756374206e6f74207265676973746572656400000000000000000000\n        /* \"#utility.yul\":9498:9499   */\n      0x00\n        /* \"#utility.yul\":9490:9496   */\n      dup3\n        /* \"#utility.yul\":9486:9500   */\n      add\n        /* \"#utility.yul\":9479:9527   */\n      mstore\n        /* \"#utility.yul\":9362:9534   */\n      pop\n      jump\t// out\n        /* \"#utility.yul\":9540:9906   */\n    tag_171:\n        /* \"#utility.yul\":9682:9685   */\n      0x00\n        /* \"#utility.yul\":9703:9770   */\n      tag_305\n        /* \"#utility.yul\":9767:9769   */\n      0x16\n        /* \"#utility.yul\":9762:9765   */\n      dup4\n        /* \"#utility.yul\":9703:9770   */\n      tag_167\n      jump\t// in\n    tag_305:\n        /* \"#utility.yul\":9696:9770   */\n      swap2\n      pop\n        /* \"#utility.yul\":9779:9872   */\n      tag_306\n        /* \"#utility.yul\":9868:9871   */\n      dup3\n        /* \"#utility.yul\":9779:9872   */\n      tag_170\n      jump\t// in\n    tag_306:\n        /* \"#utility.yul\":9897:9899   */\n      0x20\n        /* \"#utility.yul\":9892:9895   */\n      dup3\n        /* \"#utility.yul\":9888:9900   */\n      add\n        /* \"#utility.yul\":9881:9900   */\n      swap1\n      pop\n        /* \"#utility.yul\":9540:9906   */\n      swap2\n      swap1\n      pop\n      jump\t// out\n        /* \"#utility.yul\":9912:10331   */\n    tag_71:\n        /* \"#utility.yul\":10078:10082   */\n      0x00\n        /* \"#utility.yul\":10116:10118   */\n      0x20\n        /* \"#utility.yul\":10105:10114   */\n      dup3\n        /* \"#utility.yul\":10101:10119   */\n      add\n        /* \"#utility.yul\":10093:10119   */\n      swap1\n      pop\n        /* \"#utility.yul\":10165:10174   */\n      dup2\n        /* \"#utility.yul\":10159:10163   */\n      dup2\n        /* \"#utility.yul\":10155:10175   */\n      sub\n        /* \"#utility.yul\":10151:10152   */\n      0x00\n        /* \"#utility.yul\":10140:10149   */\n      dup4\n        /* \"#utility.yul\":10136:10153   */\n      add\n        /* \"#utility.yul\":10129:10176   */\n      mstore\n        /* \"#utility.yul\":10193:10324   */\n      tag_308\n        /* \"#utility.yul\":10319:10323   */\n      dup2\n        /* \"#utility.yul\":10193:10324   */\n      tag_171\n      jump\t// in\n    tag_308:\n        /* \"#utility.yul\":10185:10324   */\n      swap1\n      pop\n        /* \"#utility.yul\":9912:10331   */\n      swap2\n      swap1\n      pop\n      jump\t// out\n        /* \"#utility.yul\":10337:10511   */\n    tag_172:\n        /* \"#utility.yul\":10477:10503   */\n      0x496e76616c696420726563656976657220616464726573730000000000000000\n        /* \"#utility.yul\":10473:10474   */\n      0x00\n        /* \"#utility.yul\":10465:10471   */\n      dup3\n        /* \"#utility.yul\":10461:10475   */\n      add\n        /* \"#utility.yul\":10454:10504   */\n      mstore\n        /* \"#utility.yul\":10337:10511   */\n      pop\n      jump\t// out\n        /* \"#utility.yul\":10517:10883   */\n    tag_173:\n        /* \"#utility.yul\":10659:10662   */\n      0x00\n        /* \"#utility.yul\":10680:10747   */\n      tag_311\n        /* \"#utility.yul\":10744:10746   */\n      0x18\n        /* \"#utility.yul\":10739:10742   */\n      dup4\n        /* \"#utility.yul\":10680:10747   */\n      tag_167\n      jump\t// in\n    tag_311:\n        /* \"#utility.yul\":10673:10747   */\n      swap2\n      pop\n        /* \"#utility.yul\":10756:10849   */\n      tag_312\n        /* \"#utility.yul\":10845:10848   */\n      dup3\n        /* \"#utility.yul\":10756:10849   */\n      tag_172\n      jump\t// in\n    tag_312:\n        /* \"#utility.yul\":10874:10876   */\n      0x20\n        /* \"#utility.yul\":10869:10872   */\n      dup3\n        /* \"#utility.yul\":10865:10877   */\n      add\n        /* \"#utility.yul\":10858:10877   */\n      swap1\n      pop\n        /* \"#utility.yul\":10517:10883   */\n      swap2\n      swap1\n      pop\n      jump\t// out\n        /* \"#utility.yul\":10889:11308   */\n    tag_74:\n        /* \"#utility.yul\":11055:11059   */\n      0x00\n        /* \"#utility.yul\":11093:11095   */\n      0x20\n        /* \"#utility.yul\":11082:11091   */\n      dup3\n        /* \"#utility.yul\":11078:11096   */\n      add\n        /* \"#utility.yul\":11070:11096   */\n      swap1\n      pop\n        /* \"#utility.yul\":11142:11151   */\n      dup2\n        /* \"#utility.yul\":11136:11140   */\n      dup2\n        /* \"#utility.yul\":11132:11152   */\n      sub\n        /* \"#utility.yul\":11128:11129   */\n      0x00\n        /* \"#utility.yul\":11117:11126   */\n      dup4\n        /* \"#utility.yul\":11113:11130   */\n      add\n        /* \"#utility.yul\":11106:11153   */\n      mstore\n        /* \"#utility.yul\":11170:11301   */\n      tag_314\n        /* \"#utility.yul\":11296:11300   */\n      dup2\n        /* \"#utility.yul\":11170:11301   */\n      tag_173\n      jump\t// in\n    tag_314:\n        /* \"#utility.yul\":11162:11301   */\n      swap1\n      pop\n        /* \"#utility.yul\":10889:11308   */\n      swap2\n      swap1\n      pop\n      jump\t// out\n        /* \"#utility.yul\":11314:11487   */\n    tag_174:\n        /* \"#utility.yul\":11454:11479   */\n      0x43616e6e6f74207368697020746f20796f757273656c66000000000000000000\n        /* \"#utility.yul\":11450:11451   */\n      0x00\n        /* \"#utility.yul\":11442:11448   */\n      dup3\n        /* \"#utility.yul\":11438:11452   */\n      add\n        /* \"#utility.yul\":11431:11480   */\n      mstore\n        /* \"#utility.yul\":11314:11487   */\n      pop\n      jump\t// out\n        /* \"#utility.yul\":11493:11859   */\n    tag_175:\n        /* \"#utility.yul\":11635:11638   */\n      0x00\n        /* \"#utility.yul\":11656:11723   */\n      tag_317\n        /* \"#utility.yul\":11720:11722   */\n      0x17\n        /* \"#utility.yul\":11715:11718   */\n      dup4\n        /* \"#utility.yul\":11656:11723   */\n      tag_167\n      jump\t// in\n    tag_317:\n        /* \"#utility.yul\":11649:11723   */\n      swap2\n      pop\n        /* \"#utility.yul\":11732:11825   */\n      tag_318\n        /* \"#utility.yul\":11821:11824   */\n      dup3\n        /* \"#utility.yul\":11732:11825   */\n      tag_174\n      jump\t// in\n    tag_318:\n        /* \"#utility.yul\":11850:11852   */\n      0x20\n        /* \"#utility.yul\":11845:11848   */\n      dup3\n        /* \"#utility.yul\":11841:11853   */\n      add\n        /* \"#utility.yul\":11834:11853   */\n      swap1\n      pop\n        /* \"#utility.yul\":11493:11859   */\n      swap2\n      swap1\n      pop\n      jump\t// out\n        /* \"#utility.yul\":11865:12284   */\n    tag_77:\n        /* \"#utility.yul\":12031:12035   */\n      0x00\n        /* \"#utility.yul\":12069:12071   */\n      0x20\n        /* \"#utility.yul\":12058:12067   */\n      dup3\n        /* \"#utility.yul\":12054:12072   */\n      add\n        /* \"#utility.yul\":12046:12072   */\n      swap1\n      pop\n        /* \"#utility.yul\":12118:12127   */\n      dup2\n        /* \"#utility.yul\":12112:12116   */\n      dup2\n        /* \"#utility.yul\":12108:12128   */\n      sub\n        /* \"#utility.yul\":12104:12105   */\n      0x00\n        /* \"#utility.yul\":12093:12102   */\n      dup4\n        /* \"#utility.yul\":12089:12106   */\n      add\n        /* \"#utility.yul\":12082:12129   */\n      mstore\n        /* \"#utility.yul\":12146:12277   */\n      tag_320\n        /* \"#utility.yul\":12272:12276   */\n      dup2\n        /* \"#utility.yul\":12146:12277   */\n      tag_175\n      jump\t// in\n    tag_320:\n        /* \"#utility.yul\":12138:12277   */\n      swap1\n      pop\n        /* \"#utility.yul\":11865:12284   */\n      swap2\n      swap1\n      pop\n      jump\t// out\n        /* \"#utility.yul\":12290:12369   */\n    tag_176:\n        /* \"#utility.yul\":12329:12336   */\n      0x00\n        /* \"#utility.yul\":12358:12363   */\n      dup2\n        /* \"#utility.yul\":12347:12363   */\n      swap1\n      pop\n        /* \"#utility.yul\":12290:12369   */\n      swap2\n      swap1\n      pop\n      jump\t// out\n        /* \"#utility.yul\":12375:12532   */\n    tag_177:\n        /* \"#utility.yul\":12480:12525   */\n      tag_323\n        /* \"#utility.yul\":12500:12524   */\n      tag_324\n        /* \"#utility.yul\":12518:12523   */\n      dup3\n        /* \"#utility.yul\":12500:12524   */\n      tag_147\n      jump\t// in\n    tag_324:\n        /* \"#utility.yul\":12480:12525   */\n      tag_176\n      jump\t// in\n    tag_323:\n        /* \"#utility.yul\":12475:12478   */\n      dup3\n        /* \"#utility.yul\":12468:12526   */\n      mstore\n        /* \"#utility.yul\":12375:12532   */\n      pop\n      pop\n      jump\t// out\n        /* \"#utility.yul\":12538:12632   */\n    tag_178:\n        /* \"#utility.yul\":12571:12579   */\n      0x00\n        /* \"#utility.yul\":12619:12624   */\n      dup2\n        /* \"#utility.yul\":12615:12617   */\n      0x60\n        /* \"#utility.yul\":12611:12625   */\n      shl\n        /* \"#utility.yul\":12590:12625   */\n      swap1\n      pop\n        /* \"#utility.yul\":12538:12632   */\n      swap2\n      swap1\n      pop\n      jump\t// out\n        /* \"#utility.yul\":12638:12732   */\n    tag_179:\n        /* \"#utility.yul\":12677:12684   */\n      0x00\n        /* \"#utility.yul\":12706:12726   */\n      tag_327\n        /* \"#utility.yul\":12720:12725   */\n      dup3\n        /* \"#utility.yul\":12706:12726   */\n      tag_178\n      jump\t// in\n    tag_327:\n        /* \"#utility.yul\":12695:12726   */\n      swap1\n      pop\n        /* \"#utility.yul\":12638:12732   */\n      swap2\n      swap1\n      pop\n      jump\t// out\n        /* \"#utility.yul\":12738:12838   */\n    tag_180:\n        /* \"#utility.yul\":12777:12784   */\n      0x00\n        /* \"#utility.yul\":12806:12832   */\n      tag_329\n        /* \"#utility.yul\":12826:12831   */\n      dup3\n        /* \"#utility.yul\":12806:12832   */\n      tag_179\n      jump\t// in\n    tag_329:\n        /* \"#utility.yul\":12795:12832   */\n      swap1\n      pop\n        /* \"#utility.yul\":12738:12838   */\n      swap2\n      swap1\n      pop\n      jump\t// out\n        /* \"#utility.yul\":12844:13001   */\n    tag_181:\n        /* \"#utility.yul\":12949:12994   */\n      tag_331\n        /* \"#utility.yul\":12969:12993   */\n      tag_332\n        /* \"#utility.yul\":12987:12992   */\n      dup3\n        /* \"#utility.yul\":12969:12993   */\n      tag_151\n      jump\t// in\n    tag_332:\n        /* \"#utility.yul\":12949:12994   */\n      tag_180\n      jump\t// in\n    tag_331:\n        /* \"#utility.yul\":12944:12947   */\n      dup3\n        /* \"#utility.yul\":12937:12995   */\n      mstore\n        /* \"#utility.yul\":12844:13001   */\n      pop\n      pop\n      jump\t// out\n        /* \"#utility.yul\":13007:13086   */\n    tag_182:\n        /* \"#utility.yul\":13046:13053   */\n      0x00\n        /* \"#utility.yul\":13075:13080   */\n      dup2\n        /* \"#utility.yul\":13064:13080   */\n      swap1\n      pop\n        /* \"#utility.yul\":13007:13086   */\n      swap2\n      swap1\n      pop\n      jump\t// out\n        /* \"#utility.yul\":13092:13249   */\n    tag_183:\n        /* \"#utility.yul\":13197:13242   */\n      tag_335\n        /* \"#utility.yul\":13217:13241   */\n      tag_336\n        /* \"#utility.yul\":13235:13240   */\n      dup3\n        /* \"#utility.yul\":13217:13241   */\n      tag_158\n      jump\t// in\n    tag_336:\n        /* \"#utility.yul\":13197:13242   */\n      tag_182\n      jump\t// in\n    tag_335:\n        /* \"#utility.yul\":13192:13195   */\n      dup3\n        /* \"#utility.yul\":13185:13243   */\n      mstore\n        /* \"#utility.yul\":13092:13249   */\n      pop\n      pop\n      jump\t// out\n        /* \"#utility.yul\":13255:14075   */\n    tag_79:\n        /* \"#utility.yul\":13479:13482   */\n      0x00\n        /* \"#utility.yul\":13494:13569   */\n      tag_338\n        /* \"#utility.yul\":13565:13568   */\n      dup3\n        /* \"#utility.yul\":13556:13562   */\n      dup9\n        /* \"#utility.yul\":13494:13569   */\n      tag_177\n      jump\t// in\n    tag_338:\n        /* \"#utility.yul\":13594:13596   */\n      0x20\n        /* \"#utility.yul\":13589:13592   */\n      dup3\n        /* \"#utility.yul\":13585:13597   */\n      add\n        /* \"#utility.yul\":13578:13597   */\n      swap2\n      pop\n        /* \"#utility.yul\":13607:13682   */\n      tag_339\n        /* \"#utility.yul\":13678:13681   */\n      dup3\n        /* \"#utility.yul\":13669:13675   */\n      dup8\n        /* \"#utility.yul\":13607:13682   */\n      tag_181\n      jump\t// in\n    tag_339:\n        /* \"#utility.yul\":13707:13709   */\n      0x14\n        /* \"#utility.yul\":13702:13705   */\n      dup3\n        /* \"#utility.yul\":13698:13710   */\n      add\n        /* \"#utility.yul\":13691:13710   */\n      swap2\n      pop\n        /* \"#utility.yul\":13720:13795   */\n      tag_340\n        /* \"#utility.yul\":13791:13794   */\n      dup3\n        /* \"#utility.yul\":13782:13788   */\n      dup7\n        /* \"#utility.yul\":13720:13795   */\n      tag_181\n      jump\t// in\n    tag_340:\n        /* \"#utility.yul\":13820:13822   */\n      0x14\n        /* \"#utility.yul\":13815:13818   */\n      dup3\n        /* \"#utility.yul\":13811:13823   */\n      add\n        /* \"#utility.yul\":13804:13823   */\n      swap2\n      pop\n        /* \"#utility.yul\":13833:13908   */\n      tag_341\n        /* \"#utility.yul\":13904:13907   */\n      dup3\n        /* \"#utility.yul\":13895:13901   */\n      dup6\n        /* \"#utility.yul\":13833:13908   */\n      tag_183\n      jump\t// in\n    tag_341:\n        /* \"#utility.yul\":13933:13935   */\n      0x20\n        /* \"#utility.yul\":13928:13931   */\n      dup3\n        /* \"#utility.yul\":13924:13936   */\n      add\n        /* \"#utility.yul\":13917:13936   */\n      swap2\n      pop\n        /* \"#utility.yul\":13946:14021   */\n      tag_342\n        /* \"#utility.yul\":14017:14020   */\n      dup3\n        /* \"#utility.yul\":14008:14014   */\n      dup5\n        /* \"#utility.yul\":13946:14021   */\n      tag_183\n      jump\t// in\n    tag_342:\n        /* \"#utility.yul\":14046:14048   */\n      0x20\n        /* \"#utility.yul\":14041:14044   */\n      dup3\n        /* \"#utility.yul\":14037:14049   */\n      add\n        /* \"#utility.yul\":14030:14049   */\n      swap2\n      pop\n        /* \"#utility.yul\":14066:14069   */\n      dup2\n        /* \"#utility.yul\":14059:14069   */\n      swap1\n      pop\n        /* \"#utility.yul\":13255:14075   */\n      swap7\n      swap6\n      pop\n      pop\n      pop\n      pop\n      pop\n      pop\n      jump\t// out\n        /* \"#utility.yul\":14081:14303   */\n    tag_83:\n        /* \"#utility.yul\":14174:14178   */\n      0x00\n        /* \"#utility.yul\":14212:14214   */\n      0x20\n        /* \"#utility.yul\":14201:14210   */\n      dup3\n        /* \"#utility.yul\":14197:14215   */\n      add\n        /* \"#utility.yul\":14189:14215   */\n      swap1\n      pop\n        /* \"#utility.yul\":14225:14296   */\n      tag_344\n        /* \"#utility.yul\":14293:14294   */\n      0x00\n        /* \"#utility.yul\":14282:14291   */\n      dup4\n        /* \"#utility.yul\":14278:14295   */\n      add\n        /* \"#utility.yul\":14269:14275   */\n      dup5\n        /* \"#utility.yul\":14225:14296   */\n      tag_159\n      jump\t// in\n    tag_344:\n        /* \"#utility.yul\":14081:14303   */\n      swap3\n      swap2\n      pop\n      pop\n      jump\t// out\n        /* \"#utility.yul\":14309:14539   */\n    tag_184:\n        /* \"#utility.yul\":14449:14483   */\n      0x4f6e6c7920636f6e7472616374206f776e65722063616e20706572666f726d20\n        /* \"#utility.yul\":14445:14446   */\n      0x00\n        /* \"#utility.yul\":14437:14443   */\n      dup3\n        /* \"#utility.yul\":14433:14447   */\n      add\n        /* \"#utility.yul\":14426:14484   */\n      mstore\n        /* \"#utility.yul\":14518:14531   */\n      0x7468697320616374696f6e000000000000000000000000000000000000000000\n        /* \"#utility.yul\":14513:14515   */\n      0x20\n        /* \"#utility.yul\":14505:14511   */\n      dup3\n        /* \"#utility.yul\":14501:14516   */\n      add\n        /* \"#utility.yul\":14494:14532   */\n      mstore\n        /* \"#utility.yul\":14309:14539   */\n      pop\n      jump\t// out\n        /* \"#utility.yul\":14545:14911   */\n    tag_185:\n        /* \"#utility.yul\":14687:14690   */\n      0x00\n        /* \"#utility.yul\":14708:14775   */\n      tag_347\n        /* \"#utility.yul\":14772:14774   */\n      0x2b\n        /* \"#utility.yul\":14767:14770   */\n      dup4\n        /* \"#utility.yul\":14708:14775   */\n      tag_167\n      jump\t// in\n    tag_347:\n        /* \"#utility.yul\":14701:14775   */\n      swap2\n      pop\n        /* \"#utility.yul\":14784:14877   */\n      tag_348\n        /* \"#utility.yul\":14873:14876   */\n      dup3\n        /* \"#utility.yul\":14784:14877   */\n      tag_184\n      jump\t// in\n    tag_348:\n        /* \"#utility.yul\":14902:14904   */\n      0x40\n        /* \"#utility.yul\":14897:14900   */\n      dup3\n        /* \"#utility.yul\":14893:14905   */\n      add\n        /* \"#utility.yul\":14886:14905   */\n      swap1\n      pop\n        /* \"#utility.yul\":14545:14911   */\n      swap2\n      swap1\n      pop\n      jump\t// out\n        /* \"#utility.yul\":14917:15336   */\n    tag_87:\n        /* \"#utility.yul\":15083:15087   */\n      0x00\n        /* \"#utility.yul\":15121:15123   */\n      0x20\n        /* \"#utility.yul\":15110:15119   */\n      dup3\n        /* \"#utility.yul\":15106:15124   */\n      add\n        /* \"#utility.yul\":15098:15124   */\n      swap1\n      pop\n        /* \"#utility.yul\":15170:15179   */\n      dup2\n        /* \"#utility.yul\":15164:15168   */\n      dup2\n        /* \"#utility.yul\":15160:15180   */\n      sub\n        /* \"#utility.yul\":15156:15157   */\n      0x00\n        /* \"#utility.yul\":15145:15154   */\n      dup4\n        /* \"#utility.yul\":15141:15158   */\n      add\n        /* \"#utility.yul\":15134:15181   */\n      mstore\n        /* \"#utility.yul\":15198:15329   */\n      tag_350\n        /* \"#utility.yul\":15324:15328   */\n      dup2\n        /* \"#utility.yul\":15198:15329   */\n      tag_185\n      jump\t// in\n    tag_350:\n        /* \"#utility.yul\":15190:15329   */\n      swap1\n      pop\n        /* \"#utility.yul\":14917:15336   */\n      swap2\n      swap1\n      pop\n      jump\t// out\n        /* \"#utility.yul\":15342:15523   */\n    tag_186:\n        /* \"#utility.yul\":15482:15515   */\n      0x4d616e75666163747572657220616c726561647920617574686f72697a656400\n        /* \"#utility.yul\":15478:15479   */\n      0x00\n        /* \"#utility.yul\":15470:15476   */\n      dup3\n        /* \"#utility.yul\":15466:15480   */\n      add\n        /* \"#utility.yul\":15459:15516   */\n      mstore\n        /* \"#utility.yul\":15342:15523   */\n      pop\n      jump\t// out\n        /* \"#utility.yul\":15529:15895   */\n    tag_187:\n        /* \"#utility.yul\":15671:15674   */\n      0x00\n        /* \"#utility.yul\":15692:15759   */\n      tag_353\n        /* \"#utility.yul\":15756:15758   */\n      0x1f\n        /* \"#utility.yul\":15751:15754   */\n      dup4\n        /* \"#utility.yul\":15692:15759   */\n      tag_167\n      jump\t// in\n    tag_353:\n        /* \"#utility.yul\":15685:15759   */\n      swap2\n      pop\n        /* \"#utility.yul\":15768:15861   */\n      tag_354\n        /* \"#utility.yul\":15857:15860   */\n      dup3\n        /* \"#utility.yul\":15768:15861   */\n      tag_186\n      jump\t// in\n    tag_354:\n        /* \"#utility.yul\":15886:15888   */\n      0x20\n        /* \"#utility.yul\":15881:15884   */\n      dup3\n        /* \"#utility.yul\":15877:15889   */\n      add\n        /* \"#utility.yul\":15870:15889   */\n      swap1\n      pop\n        /* \"#utility.yul\":15529:15895   */\n      swap2\n      swap1\n      pop\n      jump\t// out\n        /* \"#utility.yul\":15901:16320   */\n    tag_91:\n        /* \"#utility.yul\":16067:16071   */\n      0x00\n        /* \"#utility.yul\":16105:16107   */\n      0x20\n        /* \"#utility.yul\":16094:16103   */\n      dup3\n        /* \"#utility.yul\":16090:16108   */\n      add\n        /* \"#utility.yul\":16082:16108   */\n      swap1\n      pop\n        /* \"#utility.yul\":16154:16163   */\n      dup2\n        /* \"#utility.yul\":16148:16152   */\n      dup2\n        /* \"#utility.yul\":16144:16164   */\n      sub\n        /* \"#utility.yul\":16140:16141   */\n      0x00\n        /* \"#utility.yul\":16129:16138   */\n      dup4\n        /* \"#utility.yul\":16125:16142   */\n      add\n        /* \"#utility.yul\":16118:16165   */\n      mstore\n        /* \"#utility.yul\":16182:16313   */\n      tag_356\n        /* \"#utility.yul\":16308:16312   */\n      dup2\n        /* \"#utility.yul\":16182:16313   */\n      tag_187\n      jump\t// in\n    tag_356:\n        /* \"#utility.yul\":16174:16313   */\n      swap1\n      pop\n        /* \"#utility.yul\":15901:16320   */\n      swap2\n      swap1\n      pop\n      jump\t// out\n        /* \"#utility.yul\":16326:16503   */\n    tag_188:\n        /* \"#utility.yul\":16466:16495   */\n      0x4d616e756661637475726572206e6f7420617574686f72697a65640000000000\n        /* \"#utility.yul\":16462:16463   */\n      0x00\n        /* \"#utility.yul\":16454:16460   */\n      dup3\n        /* \"#utility.yul\":16450:16464   */\n      add\n        /* \"#utility.yul\":16443:16496   */\n      mstore\n        /* \"#utility.yul\":16326:16503   */\n      pop\n      jump\t// out\n        /* \"#utility.yul\":16509:16875   */\n    tag_189:\n        /* \"#utility.yul\":16651:16654   */\n      0x00\n        /* \"#utility.yul\":16672:16739   */\n      tag_359\n        /* \"#utility.yul\":16736:16738   */\n      0x1b\n        /* \"#utility.yul\":16731:16734   */\n      dup4\n        /* \"#utility.yul\":16672:16739   */\n      tag_167\n      jump\t// in\n    tag_359:\n        /* \"#utility.yul\":16665:16739   */\n      swap2\n      pop\n        /* \"#utility.yul\":16748:16841   */\n      tag_360\n        /* \"#utility.yul\":16837:16840   */\n      dup3\n        /* \"#utility.yul\":16748:16841   */\n      tag_188\n      jump\t// in\n    tag_360:\n        /* \"#utility.yul\":16866:16868   */\n      0x20\n        /* \"#utility.yul\":16861:16864   */\n      dup3\n        /* \"#utility.yul\":16857:16869   */\n      add\n        /* \"#utility.yul\":16850:16869   */\n      swap1\n      pop\n        /* \"#utility.yul\":16509:16875   */\n      swap2\n      swap1\n      pop\n      jump\t// out\n        /* \"#utility.yul\":16881:17300   */\n    tag_99:\n        /* \"#utility.yul\":17047:17051   */\n      0x00\n        /* \"#utility.yul\":17085:17087   */\n      0x20\n        /* \"#utility.yul\":17074:17083   */\n      dup3\n        /* \"#utility.yul\":17070:17088   */\n      add\n        /* \"#utility.yul\":17062:17088   */\n      swap1\n      pop\n        /* \"#utility.yul\":17134:17143   */\n      dup2\n        /* \"#utility.yul\":17128:17132   */\n      dup2\n        /* \"#utility.yul\":17124:17144   */\n      sub\n        /* \"#utility.yul\":17120:17121   */\n      0x00\n        /* \"#utility.yul\":17109:17118   */\n      dup4\n        /* \"#utility.yul\":17105:17122   */\n      add\n        /* \"#utility.yul\":17098:17145   */\n      mstore\n        /* \"#utility.yul\":17162:17293   */\n      tag_362\n        /* \"#utility.yul\":17288:17292   */\n      dup2\n        /* \"#utility.yul\":17162:17293   */\n      tag_189\n      jump\t// in\n    tag_362:\n        /* \"#utility.yul\":17154:17293   */\n      swap1\n      pop\n        /* \"#utility.yul\":16881:17300   */\n      swap2\n      swap1\n      pop\n      jump\t// out\n        /* \"#utility.yul\":17306:17531   */\n    tag_190:\n        /* \"#utility.yul\":17446:17480   */\n      0x4f6e6c792063757272656e74206f776e65722063616e20636865636b206f776e\n        /* \"#utility.yul\":17442:17443   */\n      0x00\n        /* \"#utility.yul\":17434:17440   */\n      dup3\n        /* \"#utility.yul\":17430:17444   */\n      add\n        /* \"#utility.yul\":17423:17481   */\n      mstore\n        /* \"#utility.yul\":17515:17523   */\n      0x6572736869700000000000000000000000000000000000000000000000000000\n        /* \"#utility.yul\":17510:17512   */\n      0x20\n        /* \"#utility.yul\":17502:17508   */\n      dup3\n        /* \"#utility.yul\":17498:17513   */\n      add\n        /* \"#utility.yul\":17491:17524   */\n      mstore\n        /* \"#utility.yul\":17306:17531   */\n      pop\n      jump\t// out\n        /* \"#utility.yul\":17537:17903   */\n    tag_191:\n        /* \"#utility.yul\":17679:17682   */\n      0x00\n        /* \"#utility.yul\":17700:17767   */\n      tag_365\n        /* \"#utility.yul\":17764:17766   */\n      0x26\n        /* \"#utility.yul\":17759:17762   */\n      dup4\n        /* \"#utility.yul\":17700:17767   */\n      tag_167\n      jump\t// in\n    tag_365:\n        /* \"#utility.yul\":17693:17767   */\n      swap2\n      pop\n        /* \"#utility.yul\":17776:17869   */\n      tag_366\n        /* \"#utility.yul\":17865:17868   */\n      dup3\n        /* \"#utility.yul\":17776:17869   */\n      tag_190\n      jump\t// in\n    tag_366:\n        /* \"#utility.yul\":17894:17896   */\n      0x40\n        /* \"#utility.yul\":17889:17892   */\n      dup3\n        /* \"#utility.yul\":17885:17897   */\n      add\n        /* \"#utility.yul\":17878:17897   */\n      swap1\n      pop\n        /* \"#utility.yul\":17537:17903   */\n      swap2\n      swap1\n      pop\n      jump\t// out\n        /* \"#utility.yul\":17909:18328   */\n    tag_106:\n        /* \"#utility.yul\":18075:18079   */\n      0x00\n        /* \"#utility.yul\":18113:18115   */\n      0x20\n        /* \"#utility.yul\":18102:18111   */\n      dup3\n        /* \"#utility.yul\":18098:18116   */\n      add\n        /* \"#utility.yul\":18090:18116   */\n      swap1\n      pop\n        /* \"#utility.yul\":18162:18171   */\n      dup2\n        /* \"#utility.yul\":18156:18160   */\n      dup2\n        /* \"#utility.yul\":18152:18172   */\n      sub\n        /* \"#utility.yul\":18148:18149   */\n      0x00\n        /* \"#utility.yul\":18137:18146   */\n      dup4\n        /* \"#utility.yul\":18133:18150   */\n      add\n        /* \"#utility.yul\":18126:18173   */\n      mstore\n        /* \"#utility.yul\":18190:18321   */\n      tag_368\n        /* \"#utility.yul\":18316:18320   */\n      dup2\n        /* \"#utility.yul\":18190:18321   */\n      tag_191\n      jump\t// in\n    tag_368:\n        /* \"#utility.yul\":18182:18321   */\n      swap1\n      pop\n        /* \"#utility.yul\":17909:18328   */\n      swap2\n      swap1\n      pop\n      jump\t// out\n        /* \"#utility.yul\":18334:18510   */\n    tag_192:\n        /* \"#utility.yul\":18474:18502   */\n      0x5472616e73616374696f6e20646f6573206e6f74206578697374000000000000\n        /* \"#utility.yul\":18470:18471   */\n      0x00\n        /* \"#utility.yul\":18462:18468   */\n      dup3\n        /* \"#utility.yul\":18458:18472   */\n      add\n        /* \"#utility.yul\":18451:18503   */\n      mstore\n        /* \"#utility.yul\":18334:18510   */\n      pop\n      jump\t// out\n        /* \"#utility.yul\":18516:18882   */\n    tag_193:\n        /* \"#utility.yul\":18658:18661   */\n      0x00\n        /* \"#utility.yul\":18679:18746   */\n      tag_371\n        /* \"#utility.yul\":18743:18745   */\n      0x1a\n        /* \"#utility.yul\":18738:18741   */\n      dup4\n        /* \"#utility.yul\":18679:18746   */\n      tag_167\n      jump\t// in\n    tag_371:\n        /* \"#utility.yul\":18672:18746   */\n      swap2\n      pop\n        /* \"#utility.yul\":18755:18848   */\n      tag_372\n        /* \"#utility.yul\":18844:18847   */\n      dup3\n        /* \"#utility.yul\":18755:18848   */\n      tag_192\n      jump\t// in\n    tag_372:\n        /* \"#utility.yul\":18873:18875   */\n      0x20\n        /* \"#utility.yul\":18868:18871   */\n      dup3\n        /* \"#utility.yul\":18864:18876   */\n      add\n        /* \"#utility.yul\":18857:18876   */\n      swap1\n      pop\n        /* \"#utility.yul\":18516:18882   */\n      swap2\n      swap1\n      pop\n      jump\t// out\n        /* \"#utility.yul\":18888:19307   */\n    tag_110:\n        /* \"#utility.yul\":19054:19058   */\n      0x00\n        /* \"#utility.yul\":19092:19094   */\n      0x20\n        /* \"#utility.yul\":19081:19090   */\n      dup3\n        /* \"#utility.yul\":19077:19095   */\n      add\n        /* \"#utility.yul\":19069:19095   */\n      swap1\n      pop\n        /* \"#utility.yul\":19141:19150   */\n      dup2\n        /* \"#utility.yul\":19135:19139   */\n      dup2\n        /* \"#utility.yul\":19131:19151   */\n      sub\n        /* \"#utility.yul\":19127:19128   */\n      0x00\n        /* \"#utility.yul\":19116:19125   */\n      dup4\n        /* \"#utility.yul\":19112:19129   */\n      add\n        /* \"#utility.yul\":19105:19152   */\n      mstore\n        /* \"#utility.yul\":19169:19300   */\n      tag_374\n        /* \"#utility.yul\":19295:19299   */\n      dup2\n        /* \"#utility.yul\":19169:19300   */\n      tag_193\n      jump\t// in\n    tag_374:\n        /* \"#utility.yul\":19161:19300   */\n      swap1\n      pop\n        /* \"#utility.yul\":18888:19307   */\n      swap2\n      swap1\n      pop\n      jump\t// out\n        /* \"#utility.yul\":19313:19545   */\n    tag_194:\n        /* \"#utility.yul\":19453:19487   */\n      0x4f6e6c792073686970706572206f722072656365697665722063616e20766965\n        /* \"#utility.yul\":19449:19450   */\n      0x00\n        /* \"#utility.yul\":19441:19447   */\n      dup3\n        /* \"#utility.yul\":19437:19451   */\n      add\n        /* \"#utility.yul\":19430:19488   */\n      mstore\n        /* \"#utility.yul\":19522:19537   */\n      0x77207472616e73616374696f6e00000000000000000000000000000000000000\n        /* \"#utility.yul\":19517:19519   */\n      0x20\n        /* \"#utility.yul\":19509:19515   */\n      dup3\n        /* \"#utility.yul\":19505:19520   */\n      add\n        /* \"#utility.yul\":19498:19538   */\n      mstore\n        /* \"#utility.yul\":19313:19545   */\n      pop\n      jump\t// out\n        /* \"#utility.yul\":19551:19917   */\n    tag_195:\n        /* \"#utility.yul\":19693:19696   */\n      0x00\n        /* \"#utility.yul\":19714:19781   */\n      tag_377\n        /* \"#utility.yul\":19778:19780   */\n      0x2d\n        /* \"#utility.yul\":19773:19776   */\n      dup4\n        /* \"#utility.yul\":19714:19781   */\n      tag_167\n      jump\t// in\n    tag_377:\n        /* \"#utility.yul\":19707:19781   */\n      swap2\n      pop\n        /* \"#utility.yul\":19790:19883   */\n      tag_378\n        /* \"#utility.yul\":19879:19882   */\n      dup3\n        /* \"#utility.yul\":19790:19883   */\n      tag_194\n      jump\t// in\n    tag_378:\n        /* \"#utility.yul\":19908:19910   */\n      0x40\n        /* \"#utility.yul\":19903:19906   */\n      dup3\n        /* \"#utility.yul\":19899:19911   */\n      add\n        /* \"#utility.yul\":19892:19911   */\n      swap1\n      pop\n        /* \"#utility.yul\":19551:19917   */\n      swap2\n      swap1\n      pop\n      jump\t// out\n        /* \"#utility.yul\":19923:20342   */\n    tag_114:\n        /* \"#utility.yul\":20089:20093   */\n      0x00\n        /* \"#utility.yul\":20127:20129   */\n      0x20\n        /* \"#utility.yul\":20116:20125   */\n      dup3\n        /* \"#utility.yul\":20112:20130   */\n      add\n        /* \"#utility.yul\":20104:20130   */\n      swap1\n      pop\n        /* \"#utility.yul\":20176:20185   */\n      dup2\n        /* \"#utility.yul\":20170:20174   */\n      dup2\n        /* \"#utility.yul\":20166:20186   */\n      sub\n        /* \"#utility.yul\":20162:20163   */\n      0x00\n        /* \"#utility.yul\":20151:20160   */\n      dup4\n        /* \"#utility.yul\":20147:20164   */\n      add\n        /* \"#utility.yul\":20140:20187   */\n      mstore\n        /* \"#utility.yul\":20204:20335   */\n      tag_380\n        /* \"#utility.yul\":20330:20334   */\n      dup2\n        /* \"#utility.yul\":20204:20335   */\n      tag_195\n      jump\t// in\n    tag_380:\n        /* \"#utility.yul\":20196:20335   */\n      swap1\n      pop\n        /* \"#utility.yul\":19923:20342   */\n      swap2\n      swap1\n      pop\n      jump\t// out\n        /* \"#utility.yul\":20348:20586   */\n    tag_196:\n        /* \"#utility.yul\":20488:20522   */\n      0x4f6e6c7920617574686f72697a6564206d616e75666163747572657273206361\n        /* \"#utility.yul\":20484:20485   */\n      0x00\n        /* \"#utility.yul\":20476:20482   */\n      dup3\n        /* \"#utility.yul\":20472:20486   */\n      add\n        /* \"#utility.yul\":20465:20523   */\n      mstore\n        /* \"#utility.yul\":20557:20578   */\n      0x6e2072656769737465722070726f647563747300000000000000000000000000\n        /* \"#utility.yul\":20552:20554   */\n      0x20\n        /* \"#utility.yul\":20544:20550   */\n      dup3\n        /* \"#utility.yul\":20540:20555   */\n      add\n        /* \"#utility.yul\":20533:20579   */\n      mstore\n        /* \"#utility.yul\":20348:20586   */\n      pop\n      jump\t// out\n        /* \"#utility.yul\":20592:20958   */\n    tag_197:\n        /* \"#utility.yul\":20734:20737   */\n      0x00\n        /* \"#utility.yul\":20755:20822   */\n      tag_383\n        /* \"#utility.yul\":20819:20821   */\n      0x33\n        /* \"#utility.yul\":20814:20817   */\n      dup4\n        /* \"#utility.yul\":20755:20822   */\n      tag_167\n      jump\t// in\n    tag_383:\n        /* \"#utility.yul\":20748:20822   */\n      swap2\n      pop\n        /* \"#utility.yul\":20831:20924   */\n      tag_384\n        /* \"#utility.yul\":20920:20923   */\n      dup3\n        /* \"#utility.yul\":20831:20924   */\n      tag_196\n      jump\t// in\n    tag_384:\n        /* \"#utility.yul\":20949:20951   */\n      0x40\n        /* \"#utility.yul\":20944:20947   */\n      dup3\n        /* \"#utility.yul\":20940:20952   */\n      add\n        /* \"#utility.yul\":20933:20952   */\n      swap1\n      pop\n        /* \"#utility.yul\":20592:20958   */\n      swap2\n      swap1\n      pop\n      jump\t// out\n        /* \"#utility.yul\":20964:21383   */\n    tag_118:\n        /* \"#utility.yul\":21130:21134   */\n      0x00\n        /* \"#utility.yul\":21168:21170   */\n      0x20\n        /* \"#utility.yul\":21157:21166   */\n      dup3\n        /* \"#utility.yul\":21153:21171   */\n      add\n        /* \"#utility.yul\":21145:21171   */\n      swap1\n      pop\n        /* \"#utility.yul\":21217:21226   */\n      dup2\n        /* \"#utility.yul\":21211:21215   */\n      dup2\n        /* \"#utility.yul\":21207:21227   */\n      sub\n        /* \"#utility.yul\":21203:21204   */\n      0x00\n        /* \"#utility.yul\":21192:21201   */\n      dup4\n        /* \"#utility.yul\":21188:21205   */\n      add\n        /* \"#utility.yul\":21181:21228   */\n      mstore\n        /* \"#utility.yul\":21245:21376   */\n      tag_386\n        /* \"#utility.yul\":21371:21375   */\n      dup2\n        /* \"#utility.yul\":21245:21376   */\n      tag_197\n      jump\t// in\n    tag_386:\n        /* \"#utility.yul\":21237:21376   */\n      swap1\n      pop\n        /* \"#utility.yul\":20964:21383   */\n      swap2\n      swap1\n      pop\n      jump\t// out\n        /* \"#utility.yul\":21389:21565   */\n    tag_198:\n        /* \"#utility.yul\":21529:21557   */\n      0x50726f6475637420616c72656164792072656769737465726564000000000000\n        /* \"#utility.yul\":21525:21526   */\n      0x00\n        /* \"#utility.yul\":21517:21523   */\n      dup3\n        /* \"#utility.yul\":21513:21527   */\n      add\n        /* \"#utility.yul\":21506:21558   */\n      mstore\n        /* \"#utility.yul\":21389:21565   */\n      pop\n      jump\t// out\n        /* \"#utility.yul\":21571:21937   */\n    tag_199:\n        /* \"#utility.yul\":21713:21716   */\n      0x00\n        /* \"#utility.yul\":21734:21801   */\n      tag_389\n        /* \"#utility.yul\":21798:21800   */\n      0x1a\n        /* \"#utility.yul\":21793:21796   */\n      dup4\n        /* \"#utility.yul\":21734:21801   */\n      tag_167\n      jump\t// in\n    tag_389:\n        /* \"#utility.yul\":21727:21801   */\n      swap2\n      pop\n        /* \"#utility.yul\":21810:21903   */\n      tag_390\n        /* \"#utility.yul\":21899:21902   */\n      dup3\n        /* \"#utility.yul\":21810:21903   */\n      tag_198\n      jump\t// in\n    tag_390:\n        /* \"#utility.yul\":21928:21930   */\n      0x20\n        /* \"#utility.yul\":21923:21926   */\n      dup3\n        /* \"#utility.yul\":21919:21931   */\n      add\n        /* \"#utility.yul\":21912:21931   */\n      swap1\n      pop\n        /* \"#utility.yul\":21571:21937   */\n      swap2\n      swap1\n      pop\n      jump\t// out\n        /* \"#utility.yul\":21943:22362   */\n    tag_122:\n        /* \"#utility.yul\":22109:22113   */\n      0x00\n        /* \"#utility.yul\":22147:22149   */\n      0x20\n        /* \"#utility.yul\":22136:22145   */\n      dup3\n        /* \"#utility.yul\":22132:22150   */\n      add\n        /* \"#utility.yul\":22124:22150   */\n      swap1\n      pop\n        /* \"#utility.yul\":22196:22205   */\n      dup2\n        /* \"#utility.yul\":22190:22194   */\n      dup2\n        /* \"#utility.yul\":22186:22206   */\n      sub\n        /* \"#utility.yul\":22182:22183   */\n      0x00\n        /* \"#utility.yul\":22171:22180   */\n      dup4\n        /* \"#utility.yul\":22167:22184   */\n      add\n        /* \"#utility.yul\":22160:22207   */\n      mstore\n        /* \"#utility.yul\":22224:22355   */\n      tag_392\n        /* \"#utility.yul\":22350:22354   */\n      dup2\n        /* \"#utility.yul\":22224:22355   */\n      tag_199\n      jump\t// in\n    tag_392:\n        /* \"#utility.yul\":22216:22355   */\n      swap1\n      pop\n        /* \"#utility.yul\":21943:22362   */\n      swap2\n      swap1\n      pop\n      jump\t// out\n        /* \"#utility.yul\":22368:22547   */\n    tag_200:\n        /* \"#utility.yul\":22508:22539   */\n      0x5472616e73616374696f6e20616c726561647920636f6d706c65746564000000\n        /* \"#utility.yul\":22504:22505   */\n      0x00\n        /* \"#utility.yul\":22496:22502   */\n      dup3\n        /* \"#utility.yul\":22492:22506   */\n      add\n        /* \"#utility.yul\":22485:22540   */\n      mstore\n        /* \"#utility.yul\":22368:22547   */\n      pop\n      jump\t// out\n        /* \"#utility.yul\":22553:22919   */\n    tag_201:\n        /* \"#utility.yul\":22695:22698   */\n      0x00\n        /* \"#utility.yul\":22716:22783   */\n      tag_395\n        /* \"#utility.yul\":22780:22782   */\n      0x1d\n        /* \"#utility.yul\":22775:22778   */\n      dup4\n        /* \"#utility.yul\":22716:22783   */\n      tag_167\n      jump\t// in\n    tag_395:\n        /* \"#utility.yul\":22709:22783   */\n      swap2\n      pop\n        /* \"#utility.yul\":22792:22885   */\n      tag_396\n        /* \"#utility.yul\":22881:22884   */\n      dup3\n        /* \"#utility.yul\":22792:22885   */\n      tag_200\n      jump\t// in\n    tag_396:\n        /* \"#utility.yul\":22910:22912   */\n      0x20\n        /* \"#utility.yul\":22905:22908   */\n      dup3\n        /* \"#utility.yul\":22901:22913   */\n      add\n        /* \"#utility.yul\":22894:22913   */\n      swap1\n      pop\n        /* \"#utility.yul\":22553:22919   */\n      swap2\n      swap1\n      pop\n      jump\t// out\n        /* \"#utility.yul\":22925:23344   */\n    tag_129:\n        /* \"#utility.yul\":23091:23095   */\n      0x00\n        /* \"#utility.yul\":23129:23131   */\n      0x20\n        /* \"#utility.yul\":23118:23127   */\n      dup3\n        /* \"#utility.yul\":23114:23132   */\n      add\n        /* \"#utility.yul\":23106:23132   */\n      swap1\n      pop\n        /* \"#utility.yul\":23178:23187   */\n      dup2\n        /* \"#utility.yul\":23172:23176   */\n      dup2\n        /* \"#utility.yul\":23168:23188   */\n      sub\n        /* \"#utility.yul\":23164:23165   */\n      0x00\n        /* \"#utility.yul\":23153:23162   */\n      dup4\n        /* \"#utility.yul\":23149:23166   */\n      add\n        /* \"#utility.yul\":23142:23189   */\n      mstore\n        /* \"#utility.yul\":23206:23337   */\n      tag_398\n        /* \"#utility.yul\":23332:23336   */\n      dup2\n        /* \"#utility.yul\":23206:23337   */\n      tag_201\n      jump\t// in\n    tag_398:\n        /* \"#utility.yul\":23198:23337   */\n      swap1\n      pop\n        /* \"#utility.yul\":22925:23344   */\n      swap2\n      swap1\n      pop\n      jump\t// out\n        /* \"#utility.yul\":23350:23575   */\n    tag_202:\n        /* \"#utility.yul\":23490:23524   */\n      0x4f6e6c792072656365697665722063616e20636f6d706c657465207472616e73\n        /* \"#utility.yul\":23486:23487   */\n      0x00\n        /* \"#utility.yul\":23478:23484   */\n      dup3\n        /* \"#utility.yul\":23474:23488   */\n      add\n        /* \"#utility.yul\":23467:23525   */\n      mstore\n        /* \"#utility.yul\":23559:23567   */\n      0x616374696f6e0000000000000000000000000000000000000000000000000000\n        /* \"#utility.yul\":23554:23556   */\n      0x20\n        /* \"#utility.yul\":23546:23552   */\n      dup3\n        /* \"#utility.yul\":23542:23557   */\n      add\n        /* \"#utility.yul\":23535:23568   */\n      mstore\n        /* \"#utility.yul\":23350:23575   */\n      pop\n      jump\t// out\n        /* \"#utility.yul\":23581:23947   */\n    tag_203:\n        /* \"#utility.yul\":23723:23726   */\n      0x00\n        /* \"#utility.yul\":23744:23811   */\n      tag_401\n        /* \"#utility.yul\":23808:23810   */\n      0x26\n        /* \"#utility.yul\":23803:23806   */\n      dup4\n        /* \"#utility.yul\":23744:23811   */\n      tag_167\n      jump\t// in\n    tag_401:\n        /* \"#utility.yul\":23737:23811   */\n      swap2\n      pop\n        /* \"#utility.yul\":23820:23913   */\n      tag_402\n        /* \"#utility.yul\":23909:23912   */\n      dup3\n        /* \"#utility.yul\":23820:23913   */\n      tag_202\n      jump\t// in\n    tag_402:\n        /* \"#utility.yul\":23938:23940   */\n      0x40\n        /* \"#utility.yul\":23933:23936   */\n      dup3\n        /* \"#utility.yul\":23929:23941   */\n      add\n        /* \"#utility.yul\":23922:23941   */\n      swap1\n      pop\n        /* \"#utility.yul\":23581:23947   */\n      swap2\n      swap1\n      pop\n      jump\t// out\n        /* \"#utility.yul\":23953:24372   */\n    tag_132:\n        /* \"#utility.yul\":24119:24123   */\n      0x00\n        /* \"#utility.yul\":24157:24159   */\n      0x20\n        /* \"#utility.yul\":24146:24155   */\n      dup3\n        /* \"#utility.yul\":24142:24160   */\n      add\n        /* \"#utility.yul\":24134:24160   */\n      swap1\n      pop\n        /* \"#utility.yul\":24206:24215   */\n      dup2\n        /* \"#utility.yul\":24200:24204   */\n      dup2\n        /* \"#utility.yul\":24196:24216   */\n      sub\n        /* \"#utility.yul\":24192:24193   */\n      0x00\n        /* \"#utility.yul\":24181:24190   */\n      dup4\n        /* \"#utility.yul\":24177:24194   */\n      add\n        /* \"#utility.yul\":24170:24217   */\n      mstore\n        /* \"#utility.yul\":24234:24365   */\n      tag_404\n        /* \"#utility.yul\":24360:24364   */\n      dup2\n        /* \"#utility.yul\":24234:24365   */\n      tag_203\n      jump\t// in\n    tag_404:\n        /* \"#utility.yul\":24226:24365   */\n      swap1\n      pop\n        /* \"#utility.yul\":23953:24372   */\n      swap2\n      swap1\n      pop\n      jump\t// out\n        /* \"#utility.yul\":24378:24556   */\n    tag_204:\n        /* \"#utility.yul\":24518:24548   */\n      0x53686970706572206973206e6f742063757272656e74206f776e657200000000\n        /* \"#utility.yul\":24514:24515   */\n      0x00\n        /* \"#utility.yul\":24506:24512   */\n      dup3\n        /* \"#utility.yul\":24502:24516   */\n      add\n        /* \"#utility.yul\":24495:24549   */\n      mstore\n        /* \"#utility.yul\":24378:24556   */\n      pop\n      jump\t// out\n        /* \"#utility.yul\":24562:24928   */\n    tag_205:\n        /* \"#utility.yul\":24704:24707   */\n      0x00\n        /* \"#utility.yul\":24725:24792   */\n      tag_407\n        /* \"#utility.yul\":24789:24791   */\n      0x1c\n        /* \"#utility.yul\":24784:24787   */\n      dup4\n        /* \"#utility.yul\":24725:24792   */\n      tag_167\n      jump\t// in\n    tag_407:\n        /* \"#utility.yul\":24718:24792   */\n      swap2\n      pop\n        /* \"#utility.yul\":24801:24894   */\n      tag_408\n        /* \"#utility.yul\":24890:24893   */\n      dup3\n        /* \"#utility.yul\":24801:24894   */\n      tag_204\n      jump\t// in\n    tag_408:\n        /* \"#utility.yul\":24919:24921   */\n      0x20\n        /* \"#utility.yul\":24914:24917   */\n      dup3\n        /* \"#utility.yul\":24910:24922   */\n      add\n        /* \"#utility.yul\":24903:24922   */\n      swap1\n      pop\n        /* \"#utility.yul\":24562:24928   */\n      swap2\n      swap1\n      pop\n      jump\t// out\n        /* \"#utility.yul\":24934:25353   */\n    tag_135:\n        /* \"#utility.yul\":25100:25104   */\n      0x00\n        /* \"#utility.yul\":25138:25140   */\n      0x20\n        /* \"#utility.yul\":25127:25136   */\n      dup3\n        /* \"#utility.yul\":25123:25141   */\n      add\n        /* \"#utility.yul\":25115:25141   */\n      swap1\n      pop\n        /* \"#utility.yul\":25187:25196   */\n      dup2\n        /* \"#utility.yul\":25181:25185   */\n      dup2\n        /* \"#utility.yul\":25177:25197   */\n      sub\n        /* \"#utility.yul\":25173:25174   */\n      0x00\n        /* \"#utility.yul\":25162:25171   */\n      dup4\n        /* \"#utility.yul\":25158:25175   */\n      add\n        /* \"#utility.yul\":25151:25198   */\n      mstore\n        /* \"#utility.yul\":25215:25346   */\n      tag_410\n        /* \"#utility.yul\":25341:25345   */\n      dup2\n        /* \"#utility.yul\":25215:25346   */\n      tag_205\n      jump\t// in\n    tag_410:\n        /* \"#utility.yul\":25207:25346   */\n      swap1\n      pop\n        /* \"#utility.yul\":24934:25353   */\n      swap2\n      swap1\n      pop\n      jump\t// out\n        /* \"#utility.yul\":25359:25528   */\n    tag_206:\n        /* \"#utility.yul\":25499:25520   */\n      0x556e617574686f72697a65642061636365737300000000000000000000000000\n        /* \"#utility.yul\":25495:25496   */\n      0x00\n        /* \"#utility.yul\":25487:25493   */\n      dup3\n        /* \"#utility.yul\":25483:25497   */\n      add\n        /* \"#utility.yul\":25476:25521   */\n      mstore\n        /* \"#utility.yul\":25359:25528   */\n      pop\n      jump\t// out\n        /* \"#utility.yul\":25534:25900   */\n    tag_207:\n        /* \"#utility.yul\":25676:25679   */\n      0x00\n        /* \"#utility.yul\":25697:25764   */\n      tag_413\n        /* \"#utility.yul\":25761:25763   */\n      0x13\n        /* \"#utility.yul\":25756:25759   */\n      dup4\n        /* \"#utility.yul\":25697:25764   */\n      tag_167\n      jump\t// in\n    tag_413:\n        /* \"#utility.yul\":25690:25764   */\n      swap2\n      pop\n        /* \"#utility.yul\":25773:25866   */\n      tag_414\n        /* \"#utility.yul\":25862:25865   */\n      dup3\n        /* \"#utility.yul\":25773:25866   */\n      tag_206\n      jump\t// in\n    tag_414:\n        /* \"#utility.yul\":25891:25893   */\n      0x20\n        /* \"#utility.yul\":25886:25889   */\n      dup3\n        /* \"#utility.yul\":25882:25894   */\n      add\n        /* \"#utility.yul\":25875:25894   */\n      swap1\n      pop\n        /* \"#utility.yul\":25534:25900   */\n      swap2\n      swap1\n      pop\n      jump\t// out\n        /* \"#utility.yul\":25906:26325   */\n    tag_141:\n        /* \"#utility.yul\":26072:26076   */\n      0x00\n        /* \"#utility.yul\":26110:26112   */\n      0x20\n        /* \"#utility.yul\":26099:26108   */\n      dup3\n        /* \"#utility.yul\":26095:26113   */\n      add\n        /* \"#utility.yul\":26087:26113   */\n      swap1\n      pop\n        /* \"#utility.yul\":26159:26168   */\n      dup2\n        /* \"#utility.yul\":26153:26157   */\n      dup2\n        /* \"#utility.yul\":26149:26169   */\n      sub\n        /* \"#utility.yul\":26145:26146   */\n      0x00\n        /* \"#utility.yul\":26134:26143   */\n      dup4\n        /* \"#utility.yul\":26130:26147   */\n      add\n        /* \"#utility.yul\":26123:26170   */\n      mstore\n        /* \"#utility.yul\":26187:26318   */\n      tag_416\n        /* \"#utility.yul\":26313:26317   */\n      dup2\n        /* \"#utility.yul\":26187:26318   */\n      tag_207\n      jump\t// in\n    tag_416:\n        /* \"#utility.yul\":26179:26318   */\n      swap1\n      pop\n        /* \"#utility.yul\":25906:26325   */\n      swap2\n      swap1\n      pop\n      jump\t// out\n\n    auxdata: 0xa2646970667358221220c7b20df8cf3531bc9bb829a43834842d37bec36dab088b4f8ab876b64e16d8fc64736f6c634300081e0033\n}\n",
				"bytecode": {
					"linkReferences": {},
					"object": "6080604052348015600e575f5ffd5b503360055f6101000a81548173ffffffffffffffffffffffffffffffffffffffff021916908373ffffffffffffffffffffffffffffffffffffffff160217905550600160045f3373ffffffffffffffffffffffffffffffffffffffff1673ffffffffffffffffffffffffffffffffffffffff1681526020019081526020015f205f6101000a81548160ff0219169083151502179055506120b3806100b15f395ff3fe608060405234801561000f575f5ffd5b50600436106100a7575f3560e01c80633aea18cc1161006f5780633aea18cc146101735780634aae13ca146101a3578063c763fe2e146101d8578063ce606ee0146101f4578063dbe1b0e514610212578063ef9253991461022e576100a7565b806305ca1ec2146100ab578063089e1b39146100db57806318b45238146100f757806324b042451461011357806327258b2214610143575b5f5ffd5b6100c560048036038101906100c091906114cf565b61025e565b6040516100d29190611567565b60405180910390f35b6100f560048036038101906100f09190611580565b61070d565b005b610111600480360381019061010c9190611580565b6108cc565b005b61012d60048036038101906101289190611580565b610a89565b60405161013a91906115c5565b60405180910390f35b61015d600480360381019061015891906115de565b610aa6565b60405161016a91906115c5565b60405180910390f35b61018d600480360381019061018891906115de565b610acc565b60405161019a9190611618565b60405180910390f35b6101bd60048036038101906101b891906115de565b610bf8565b6040516101cf96959493929190611649565b60405180910390f35b6101f260048036038101906101ed91906116a8565b610e46565b005b6101fc610ff8565b6040516102099190611618565b60405180910390f35b61022c600480360381019061022791906116f8565b61101d565b005b61024860048036038101906102439190611580565b6112e6565b60405161025591906117ed565b60405180910390f35b5f863373ffffffffffffffffffffffffffffffffffffffff165f5f8381526020019081526020015f205f9054906101000a900473ffffffffffffffffffffffffffffffffffffffff1673ffffffffffffffffffffffffffffffffffffffff16146102fd576040517f08c379a00000000000000000000000000000000000000000000000000000000081526004016102f49061188d565b60405180910390fd5b60035f8981526020019081526020015f205f9054906101000a900460ff1661035a576040517f08c379a0000000000000000000000000000000000000000000000000000000008152600401610351906118f5565b60405180910390fd5b5f73ffffffffffffffffffffffffffffffffffffffff168373ffffffffffffffffffffffffffffffffffffffff16036103c8576040517f08c379a00000000000000000000000000000000000000000000000000000000081526004016103bf9061195d565b60405180910390fd5b3373ffffffffffffffffffffffffffffffffffffffff168373ffffffffffffffffffffffffffffffffffffffff1603610436576040517f08c379a000000000000000000000000000000000000000000000000000000000815260040161042d906119c5565b60405180910390fd5b5f8833854243604051602001610450959493929190611a68565b6040516020818303038152906040528051906020012090505f6040518061012001604052808a81526020018981526020018881526020018781526020014281526020018381526020015f151581526020013373ffffffffffffffffffffffffffffffffffffffff1681526020018673ffffffffffffffffffffffffffffffffffffffff1681525090508060015f8481526020019081526020015f205f820151815f01556020820151816001015560408201518160020155606082015181600301556080820151816004015560a0820151816005015560c0820151816006015f6101000a81548160ff02191690831515021790555060e08201518160060160016101000a81548173ffffffffffffffffffffffffffffffffffffffff021916908373ffffffffffffffffffffffffffffffffffffffff160217905550610100820151816007015f6101000a81548173ffffffffffffffffffffffffffffffffffffffff021916908373ffffffffffffffffffffffffffffffffffffffff16021790555090505060025f3373ffffffffffffffffffffffffffffffffffffffff1673ffffffffffffffffffffffffffffffffffffffff1681526020019081526020015f2082908060018154018082558091505060019003905f5260205f20015f909190919091505560025f8673ffffffffffffffffffffffffffffffffffffffff1673ffffffffffffffffffffffffffffffffffffffff1681526020019081526020015f2082908060018154018082558091505060019003905f5260205f20015f90919091909150558473ffffffffffffffffffffffffffffffffffffffff163373ffffffffffffffffffffffffffffffffffffffff16837f899644d4eb82881fe02a2f3ff5b90179caf815a74b619e0bf8a03d6f316c0212426040516106f59190611ac6565b60405180910390a48193505050509695505050505050565b60055f9054906101000a900473ffffffffffffffffffffffffffffffffffffffff1673ffffffffffffffffffffffffffffffffffffffff163373ffffffffffffffffffffffffffffffffffffffff161461079c576040517f08c379a000000000000000000000000000000000000000000000000000000000815260040161079390611b4f565b60405180910390fd5b60045f8273ffffffffffffffffffffffffffffffffffffffff1673ffffffffffffffffffffffffffffffffffffffff1681526020019081526020015f205f9054906101000a900460ff1615610826576040517f08c379a000000000000000000000000000000000000000000000000000000000815260040161081d90611bb7565b60405180910390fd5b600160045f8373ffffffffffffffffffffffffffffffffffffffff1673ffffffffffffffffffffffffffffffffffffffff1681526020019081526020015f205f6101000a81548160ff0219169083151502179055508073ffffffffffffffffffffffffffffffffffffffff167f82903e79efc257a6e1dcc47396601792ac42dfaa46590342a3b29ae45fa5a713426040516108c19190611ac6565b60405180910390a250565b60055f9054906101000a900473ffffffffffffffffffffffffffffffffffffffff1673ffffffffffffffffffffffffffffffffffffffff163373ffffffffffffffffffffffffffffffffffffffff161461095b576040517f08c379a000000000000000000000000000000000000000000000000000000000815260040161095290611b4f565b60405180910390fd5b60045f8273ffffffffffffffffffffffffffffffffffffffff1673ffffffffffffffffffffffffffffffffffffffff1681526020019081526020015f205f9054906101000a900460ff166109e4576040517f08c379a00000000000000000000000000000000000000000000000000000000081526004016109db90611c1f565b60405180910390fd5b5f60045f8373ffffffffffffffffffffffffffffffffffffffff1673ffffffffffffffffffffffffffffffffffffffff1681526020019081526020015f205f6101000a81548160ff0219169083151502179055508073ffffffffffffffffffffffffffffffffffffffff167fe8d2a3ac660549a08f637582b6cbe854156af7ef2042247240ffc1fd34db7bcd42604051610a7e9190611ac6565b60405180910390a250565b6004602052805f5260405f205f915054906101000a900460ff1681565b5f60035f8381526020019081526020015f205f9054906101000a900460ff169050919050565b5f3373ffffffffffffffffffffffffffffffffffffffff165f5f8481526020019081526020015f205f9054906101000a900473ffffffffffffffffffffffffffffffffffffffff1673ffffffffffffffffffffffffffffffffffffffff161480610b82575060055f9054906101000a900473ffffffffffffffffffffffffffffffffffffffff1673ffffffffffffffffffffffffffffffffffffffff163373ffffffffffffffffffffffffffffffffffffffff16145b610bc1576040517f08c379a0000000000000000000000000000000000000000000000000000000008152600401610bb890611cad565b60405180910390fd5b5f5f8381526020019081526020015f205f9054906101000a900473ffffffffffffffffffffffffffffffffffffffff169050919050565b5f5f5f5f5f5f5f60015f8981526020019081526020015f20604051806101200160405290815f82015481526020016001820154815260200160028201548152602001600382015481526020016004820154815260200160058201548152602001600682015f9054906101000a900460ff161515151581526020016006820160019054906101000a900473ffffffffffffffffffffffffffffffffffffffff1673ffffffffffffffffffffffffffffffffffffffff1673ffffffffffffffffffffffffffffffffffffffff168152602001600782015f9054906101000a900473ffffffffffffffffffffffffffffffffffffffff1673ffffffffffffffffffffffffffffffffffffffff1673ffffffffffffffffffffffffffffffffffffffff168152505090505f5f1b8160a0015103610d66576040517f08c379a0000000000000000000000000000000000000000000000000000000008152600401610d5d90611d15565b60405180910390fd5b8060e0015173ffffffffffffffffffffffffffffffffffffffff163373ffffffffffffffffffffffffffffffffffffffff161480610dd4575080610100015173ffffffffffffffffffffffffffffffffffffffff163373ffffffffffffffffffffffffffffffffffffffff16145b610e13576040517f08c379a0000000000000000000000000000000000000000000000000000000008152600401610e0a90611da3565b60405180910390fd5b805f015181602001518260400151836060015184608001518560c001519650965096509650965096505091939550919395565b60045f3373ffffffffffffffffffffffffffffffffffffffff1673ffffffffffffffffffffffffffffffffffffffff1681526020019081526020015f205f9054906101000a900460ff16610ecf576040517f08c379a0000000000000000000000000000000000000000000000000000000008152600401610ec690611e31565b60405180910390fd5b60035f8481526020019081526020015f205f9054906101000a900460ff1615610f2d576040517f08c379a0000000000000000000000000000000000000000000000000000000008152600401610f2490611e99565b60405180910390fd5b335f5f8581526020019081526020015f205f6101000a81548173ffffffffffffffffffffffffffffffffffffffff021916908373ffffffffffffffffffffffffffffffffffffffff160217905550600160035f8581526020019081526020015f205f6101000a81548160ff0219169083151502179055503373ffffffffffffffffffffffffffffffffffffffff16837f7382bacf18bd3d25a7b5073d2c9845f9859d0c1f96e17d3bf4ddf8a0a099534e42604051610feb9190611ac6565b60405180910390a3505050565b60055f9054906101000a900473ffffffffffffffffffffffffffffffffffffffff1681565b5f60015f8481526020019081526020015f2090505f5f1b816005015403611079576040517f08c379a000000000000000000000000000000000000000000000000000000000815260040161107090611d15565b60405180910390fd5b806006015f9054906101000a900460ff16156110ca576040517f08c379a00000000000000000000000000000000000000000000000000000000081526004016110c190611f01565b60405180910390fd5b806007015f9054906101000a900473ffffffffffffffffffffffffffffffffffffffff1673ffffffffffffffffffffffffffffffffffffffff163373ffffffffffffffffffffffffffffffffffffffff161461115b576040517f08c379a000000000000000000000000000000000000000000000000000000000815260040161115290611f8f565b60405180910390fd5b8060060160019054906101000a900473ffffffffffffffffffffffffffffffffffffffff1673ffffffffffffffffffffffffffffffffffffffff165f5f8481526020019081526020015f205f9054906101000a900473ffffffffffffffffffffffffffffffffffffffff1673ffffffffffffffffffffffffffffffffffffffff161461121c576040517f08c379a000000000000000000000000000000000000000000000000000000000815260040161121390611ff7565b60405180910390fd5b806007015f9054906101000a900473ffffffffffffffffffffffffffffffffffffffff165f5f8481526020019081526020015f205f6101000a81548173ffffffffffffffffffffffffffffffffffffffff021916908373ffffffffffffffffffffffffffffffffffffffff1602179055506001816006015f6101000a81548160ff021916908315150217905550827ff698c1d18e531666d86ab9a9062dbc6e994abb53ff9ece034d24d336ce13ed2d426040516112d99190611ac6565b60405180910390a2505050565b60608173ffffffffffffffffffffffffffffffffffffffff163373ffffffffffffffffffffffffffffffffffffffff16148061136e575060055f9054906101000a900473ffffffffffffffffffffffffffffffffffffffff1673ffffffffffffffffffffffffffffffffffffffff163373ffffffffffffffffffffffffffffffffffffffff16145b6113ad576040517f08c379a00000000000000000000000000000000000000000000000000000000081526004016113a49061205f565b60405180910390fd5b60025f8373ffffffffffffffffffffffffffffffffffffffff1673ffffffffffffffffffffffffffffffffffffffff1681526020019081526020015f2080548060200260200160405190810160405280929190818152602001828054801561143257602002820191905f5260205f20905b81548152602001906001019080831161141e575b50505050509050919050565b5f5ffd5b5f819050919050565b61145481611442565b811461145e575f5ffd5b50565b5f8135905061146f8161144b565b92915050565b5f73ffffffffffffffffffffffffffffffffffffffff82169050919050565b5f61149e82611475565b9050919050565b6114ae81611494565b81146114b8575f5ffd5b50565b5f813590506114c9816114a5565b92915050565b5f5f5f5f5f5f60c087890312156114e9576114e861143e565b5b5f6114f689828a01611461565b965050602061150789828a01611461565b955050604061151889828a01611461565b945050606061152989828a01611461565b935050608061153a89828a01611461565b92505060a061154b89828a016114bb565b9150509295509295509295565b61156181611442565b82525050565b5f60208201905061157a5f830184611558565b92915050565b5f602082840312156115955761159461143e565b5b5f6115a2848285016114bb565b91505092915050565b5f8115159050919050565b6115bf816115ab565b82525050565b5f6020820190506115d85f8301846115b6565b92915050565b5f602082840312156115f3576115f261143e565b5b5f61160084828501611461565b91505092915050565b61161281611494565b82525050565b5f60208201905061162b5f830184611609565b92915050565b5f819050919050565b61164381611631565b82525050565b5f60c08201905061165c5f830189611558565b6116696020830188611558565b6116766040830187611558565b6116836060830186611558565b611690608083018561163a565b61169d60a08301846115b6565b979650505050505050565b5f5f5f606084860312156116bf576116be61143e565b5b5f6116cc86828701611461565b93505060206116dd86828701611461565b92505060406116ee86828701611461565b9150509250925092565b5f5f6040838503121561170e5761170d61143e565b5b5f61171b85828601611461565b925050602061172c85828601611461565b9150509250929050565b5f81519050919050565b5f82825260208201905092915050565b5f819050602082019050919050565b61176881611442565b82525050565b5f611779838361175f565b60208301905092915050565b5f602082019050919050565b5f61179b82611736565b6117a58185611740565b93506117b083611750565b805f5b838110156117e05781516117c7888261176e565b97506117d283611785565b9250506001810190506117b3565b5085935050505092915050565b5f6020820190508181035f8301526118058184611791565b905092915050565b5f82825260208201905092915050565b7f596f7520617265206e6f74207468652063757272656e74206f776e6572206f665f8201527f2074686973206974656d00000000000000000000000000000000000000000000602082015250565b5f611877602a8361180d565b91506118828261181d565b604082019050919050565b5f6020820190508181035f8301526118a48161186b565b9050919050565b7f50726f64756374206e6f742072656769737465726564000000000000000000005f82015250565b5f6118df60168361180d565b91506118ea826118ab565b602082019050919050565b5f6020820190508181035f83015261190c816118d3565b9050919050565b7f496e76616c6964207265636569766572206164647265737300000000000000005f82015250565b5f61194760188361180d565b915061195282611913565b602082019050919050565b5f6020820190508181035f8301526119748161193b565b9050919050565b7f43616e6e6f74207368697020746f20796f757273656c660000000000000000005f82015250565b5f6119af60178361180d565b91506119ba8261197b565b602082019050919050565b5f6020820190508181035f8301526119dc816119a3565b9050919050565b5f819050919050565b6119fd6119f882611442565b6119e3565b82525050565b5f8160601b9050919050565b5f611a1982611a03565b9050919050565b5f611a2a82611a0f565b9050919050565b611a42611a3d82611494565b611a20565b82525050565b5f819050919050565b611a62611a5d82611631565b611a48565b82525050565b5f611a7382886119ec565b602082019150611a838287611a31565b601482019150611a938286611a31565b601482019150611aa38285611a51565b602082019150611ab38284611a51565b6020820191508190509695505050505050565b5f602082019050611ad95f83018461163a565b92915050565b7f4f6e6c7920636f6e7472616374206f776e65722063616e20706572666f726d205f8201527f7468697320616374696f6e000000000000000000000000000000000000000000602082015250565b5f611b39602b8361180d565b9150611b4482611adf565b604082019050919050565b5f6020820190508181035f830152611b6681611b2d565b9050919050565b7f4d616e75666163747572657220616c726561647920617574686f72697a6564005f82015250565b5f611ba1601f8361180d565b9150611bac82611b6d565b602082019050919050565b5f6020820190508181035f830152611bce81611b95565b9050919050565b7f4d616e756661637475726572206e6f7420617574686f72697a656400000000005f82015250565b5f611c09601b8361180d565b9150611c1482611bd5565b602082019050919050565b5f6020820190508181035f830152611c3681611bfd565b9050919050565b7f4f6e6c792063757272656e74206f776e65722063616e20636865636b206f776e5f8201527f6572736869700000000000000000000000000000000000000000000000000000602082015250565b5f611c9760268361180d565b9150611ca282611c3d565b604082019050919050565b5f6020820190508181035f830152611cc481611c8b565b9050919050565b7f5472616e73616374696f6e20646f6573206e6f742065786973740000000000005f82015250565b5f611cff601a8361180d565b9150611d0a82611ccb565b602082019050919050565b5f6020820190508181035f830152611d2c81611cf3565b9050919050565b7f4f6e6c792073686970706572206f722072656365697665722063616e207669655f8201527f77207472616e73616374696f6e00000000000000000000000000000000000000602082015250565b5f611d8d602d8361180d565b9150611d9882611d33565b604082019050919050565b5f6020820190508181035f830152611dba81611d81565b9050919050565b7f4f6e6c7920617574686f72697a6564206d616e756661637475726572732063615f8201527f6e2072656769737465722070726f647563747300000000000000000000000000602082015250565b5f611e1b60338361180d565b9150611e2682611dc1565b604082019050919050565b5f6020820190508181035f830152611e4881611e0f565b9050919050565b7f50726f6475637420616c726561647920726567697374657265640000000000005f82015250565b5f611e83601a8361180d565b9150611e8e82611e4f565b602082019050919050565b5f6020820190508181035f830152611eb081611e77565b9050919050565b7f5472616e73616374696f6e20616c726561647920636f6d706c657465640000005f82015250565b5f611eeb601d8361180d565b9150611ef682611eb7565b602082019050919050565b5f6020820190508181035f830152611f1881611edf565b9050919050565b7f4f6e6c792072656365697665722063616e20636f6d706c657465207472616e735f8201527f616374696f6e0000000000000000000000000000000000000000000000000000602082015250565b5f611f7960268361180d565b9150611f8482611f1f565b604082019050919050565b5f6020820190508181035f830152611fa681611f6d565b9050919050565b7f53686970706572206973206e6f742063757272656e74206f776e6572000000005f82015250565b5f611fe1601c8361180d565b9150611fec82611fad565b602082019050919050565b5f6020820190508181035f83015261200e81611fd5565b9050919050565b7f556e617574686f72697a656420616363657373000000000000000000000000005f82015250565b5f61204960138361180d565b915061205482612015565b602082019050919050565b5f6020820190508181035f8301526120768161203d565b905091905056fea2646970667358221220c7b20df8cf3531bc9bb829a43834842d37bec36dab088b4f8ab876b64e16d8fc64736f6c634300081e0033",
					"opcodes": "PUSH1 0x80 PUSH1 0x40 MSTORE CALLVALUE DUP1 ISZERO PUSH1 0xE JUMPI PUSH0 PUSH0 REVERT JUMPDEST POP CALLER PUSH1 0x5 PUSH0 PUSH2 0x100 EXP DUP2 SLOAD DUP2 PUSH20 0xFFFFFFFFFFFFFFFFFFFFFFFFFFFFFFFFFFFFFFFF MUL NOT AND SWAP1 DUP4 PUSH20 0xFFFFFFFFFFFFFFFFFFFFFFFFFFFFFFFFFFFFFFFF AND MUL OR SWAP1 SSTORE POP PUSH1 0x1 PUSH1 0x4 PUSH0 CALLER PUSH20 0xFFFFFFFFFFFFFFFFFFFFFFFFFFFFFFFFFFFFFFFF AND PUSH20 0xFFFFFFFFFFFFFFFFFFFFFFFFFFFFFFFFFFFFFFFF AND DUP2 MSTORE PUSH1 0x20 ADD SWAP1 DUP2 MSTORE PUSH1 0x20 ADD PUSH0 KECCAK256 PUSH0 PUSH2 0x100 EXP DUP2 SLOAD DUP2 PUSH1 0xFF MUL NOT AND SWAP1 DUP4 ISZERO ISZERO MUL OR SWAP1 SSTORE POP PUSH2 0x20B3 DUP1 PUSH2 0xB1 PUSH0 CODECOPY PUSH0 RETURN INVALID PUSH1 0x80 PUSH1 0x40 MSTORE CALLVALUE DUP1 ISZERO PUSH2 0xF JUMPI PUSH0 PUSH0 REVERT JUMPDEST POP PUSH1 0x4 CALLDATASIZE LT PUSH2 0xA7 JUMPI PUSH0 CALLDATALOAD PUSH1 0xE0 SHR DUP1 PUSH4 0x3AEA18CC GT PUSH2 0x6F JUMPI DUP1 PUSH4 0x3AEA18CC EQ PUSH2 0x173 JUMPI DUP1 PUSH4 0x4AAE13CA EQ PUSH2 0x1A3 JUMPI DUP1 PUSH4 0xC763FE2E EQ PUSH2 0x1D8 JUMPI DUP1 PUSH4 0xCE606EE0 EQ PUSH2 0x1F4 JUMPI DUP1 PUSH4 0xDBE1B0E5 EQ PUSH2 0x212 JUMPI DUP1 PUSH4 0xEF925399 EQ PUSH2 0x22E JUMPI PUSH2 0xA7 JUMP JUMPDEST DUP1 PUSH4 0x5CA1EC2 EQ PUSH2 0xAB JUMPI DUP1 PUSH4 0x89E1B39 EQ PUSH2 0xDB JUMPI DUP1 PUSH4 0x18B45238 EQ PUSH2 0xF7 JUMPI DUP1 PUSH4 0x24B04245 EQ PUSH2 0x113 JUMPI DUP1 PUSH4 0x27258B22 EQ PUSH2 0x143 JUMPI JUMPDEST PUSH0 PUSH0 REVERT JUMPDEST PUSH2 0xC5 PUSH1 0x4 DUP1 CALLDATASIZE SUB DUP2 ADD SWAP1 PUSH2 0xC0 SWAP2 SWAP1 PUSH2 0x14CF JUMP JUMPDEST PUSH2 0x25E JUMP JUMPDEST PUSH1 0x40 MLOAD PUSH2 0xD2 SWAP2 SWAP1 PUSH2 0x1567 JUMP JUMPDEST PUSH1 0x40 MLOAD DUP1 SWAP2 SUB SWAP1 RETURN JUMPDEST PUSH2 0xF5 PUSH1 0x4 DUP1 CALLDATASIZE SUB DUP2 ADD SWAP1 PUSH2 0xF0 SWAP2 SWAP1 PUSH2 0x1580 JUMP JUMPDEST PUSH2 0x70D JUMP JUMPDEST STOP JUMPDEST PUSH2 0x111 PUSH1 0x4 DUP1 CALLDATASIZE SUB DUP2 ADD SWAP1 PUSH2 0x10C SWAP2 SWAP1 PUSH2 0x1580 JUMP JUMPDEST PUSH2 0x8CC JUMP JUMPDEST STOP JUMPDEST PUSH2 0x12D PUSH1 0x4 DUP1 CALLDATASIZE SUB DUP2 ADD SWAP1 PUSH2 0x128 SWAP2 SWAP1 PUSH2 0x1580 JUMP JUMPDEST PUSH2 0xA89 JUMP JUMPDEST PUSH1 0x40 MLOAD PUSH2 0x13A SWAP2 SWAP1 PUSH2 0x15C5 JUMP JUMPDEST PUSH1 0x40 MLOAD DUP1 SWAP2 SUB SWAP1 RETURN JUMPDEST PUSH2 0x15D PUSH1 0x4 DUP1 CALLDATASIZE SUB DUP2 ADD SWAP1 PUSH2 0x158 SWAP2 SWAP1 PUSH2 0x15DE JUMP JUMPDEST PUSH2 0xAA6 JUMP JUMPDEST PUSH1 0x40 MLOAD PUSH2 0x16A SWAP2 SWAP1 PUSH2 0x15C5 JUMP JUMPDEST PUSH1 0x40 MLOAD DUP1 SWAP2 SUB SWAP1 RETURN JUMPDEST PUSH2 0x18D PUSH1 0x4 DUP1 CALLDATASIZE SUB DUP2 ADD SWAP1 PUSH2 0x188 SWAP2 SWAP1 PUSH2 0x15DE JUMP JUMPDEST PUSH2 0xACC JUMP JUMPDEST PUSH1 0x40 MLOAD PUSH2 0x19A SWAP2 SWAP1 PUSH2 0x1618 JUMP JUMPDEST PUSH1 0x40 MLOAD DUP1 SWAP2 SUB SWAP1 RETURN JUMPDEST PUSH2 0x1BD PUSH1 0x4 DUP1 CALLDATASIZE SUB DUP2 ADD SWAP1 PUSH2 0x1B8 SWAP2 SWAP1 PUSH2 0x15DE JUMP JUMPDEST PUSH2 0xBF8 JUMP JUMPDEST PUSH1 0x40 MLOAD PUSH2 0x1CF SWAP7 SWAP6 SWAP5 SWAP4 SWAP3 SWAP2 SWAP1 PUSH2 0x1649 JUMP JUMPDEST PUSH1 0x40 MLOAD DUP1 SWAP2 SUB SWAP1 RETURN JUMPDEST PUSH2 0x1F2 PUSH1 0x4 DUP1 CALLDATASIZE SUB DUP2 ADD SWAP1 PUSH2 0x1ED SWAP2 SWAP1 PUSH2 0x16A8 JUMP JUMPDEST PUSH2 0xE46 JUMP JUMPDEST STOP JUMPDEST PUSH2 0x1FC PUSH2 0xFF8 JUMP JUMPDEST PUSH1 0x40 MLOAD PUSH2 0x209 SWAP2 SWAP1 PUSH2 0x1618 JUMP JUMPDEST PUSH1 0x40 MLOAD DUP1 SWAP2 SUB SWAP1 RETURN JUMPDEST PUSH2 0x22C PUSH1 0x4 DUP1 CALLDATASIZE SUB DUP2 ADD SWAP1 PUSH2 0x227 SWAP2 SWAP1 PUSH2 0x16F8 JUMP JUMPDEST PUSH2 0x101D JUMP JUMPDEST STOP JUMPDEST PUSH2 0x248 PUSH1 0x4 DUP1 CALLDATASIZE SUB DUP2 ADD SWAP1 PUSH2 0x243 SWAP2 SWAP1 PUSH2 0x1580 JUMP JUMPDEST PUSH2 0x12E6 JUMP JUMPDEST PUSH1 0x40 MLOAD PUSH2 0x255 SWAP2 SWAP1 PUSH2 0x17ED JUMP JUMPDEST PUSH1 0x40 MLOAD DUP1 SWAP2 SUB SWAP1 RETURN JUMPDEST PUSH0 DUP7 CALLER PUSH20 0xFFFFFFFFFFFFFFFFFFFFFFFFFFFFFFFFFFFFFFFF AND PUSH0 PUSH0 DUP4 DUP2 MSTORE PUSH1 0x20 ADD SWAP1 DUP2 MSTORE PUSH1 0x20 ADD PUSH0 KECCAK256 PUSH0 SWAP1 SLOAD SWAP1 PUSH2 0x100 EXP SWAP1 DIV PUSH20 0xFFFFFFFFFFFFFFFFFFFFFFFFFFFFFFFFFFFFFFFF AND PUSH20 0xFFFFFFFFFFFFFFFFFFFFFFFFFFFFFFFFFFFFFFFF AND EQ PUSH2 0x2FD JUMPI PUSH1 0x40 MLOAD PUSH32 0x8C379A000000000000000000000000000000000000000000000000000000000 DUP2 MSTORE PUSH1 0x4 ADD PUSH2 0x2F4 SWAP1 PUSH2 0x188D JUMP JUMPDEST PUSH1 0x40 MLOAD DUP1 SWAP2 SUB SWAP1 REVERT JUMPDEST PUSH1 0x3 PUSH0 DUP10 DUP2 MSTORE PUSH1 0x20 ADD SWAP1 DUP2 MSTORE PUSH1 0x20 ADD PUSH0 KECCAK256 PUSH0 SWAP1 SLOAD SWAP1 PUSH2 0x100 EXP SWAP1 DIV PUSH1 0xFF AND PUSH2 0x35A JUMPI PUSH1 0x40 MLOAD PUSH32 0x8C379A000000000000000000000000000000000000000000000000000000000 DUP2 MSTORE PUSH1 0x4 ADD PUSH2 0x351 SWAP1 PUSH2 0x18F5 JUMP JUMPDEST PUSH1 0x40 MLOAD DUP1 SWAP2 SUB SWAP1 REVERT JUMPDEST PUSH0 PUSH20 0xFFFFFFFFFFFFFFFFFFFFFFFFFFFFFFFFFFFFFFFF AND DUP4 PUSH20 0xFFFFFFFFFFFFFFFFFFFFFFFFFFFFFFFFFFFFFFFF AND SUB PUSH2 0x3C8 JUMPI PUSH1 0x40 MLOAD PUSH32 0x8C379A000000000000000000000000000000000000000000000000000000000 DUP2 MSTORE PUSH1 0x4 ADD PUSH2 0x3BF SWAP1 PUSH2 0x195D JUMP JUMPDEST PUSH1 0x40 MLOAD DUP1 SWAP2 SUB SWAP1 REVERT JUMPDEST CALLER PUSH20 0xFFFFFFFFFFFFFFFFFFFFFFFFFFFFFFFFFFFFFFFF AND DUP4 PUSH20 0xFFFFFFFFFFFFFFFFFFFFFFFFFFFFFFFFFFFFFFFF AND SUB PUSH2 0x436 JUMPI PUSH1 0x40 MLOAD PUSH32 0x8C379A000000000000000000000000000000000000000000000000000000000 DUP2 MSTORE PUSH1 0x4 ADD PUSH2 0x42D SWAP1 PUSH2 0x19C5 JUMP JUMPDEST PUSH1 0x40 MLOAD DUP1 SWAP2 SUB SWAP1 REVERT JUMPDEST PUSH0 DUP9 CALLER DUP6 TIMESTAMP NUMBER PUSH1 0x40 MLOAD PUSH1 0x20 ADD PUSH2 0x450 SWAP6 SWAP5 SWAP4 SWAP3 SWAP2 SWAP1 PUSH2 0x1A68 JUMP JUMPDEST PUSH1 0x40 MLOAD PUSH1 0x20 DUP2 DUP4 SUB SUB DUP2 MSTORE SWAP1 PUSH1 0x40 MSTORE DUP1 MLOAD SWAP1 PUSH1 0x20 ADD KECCAK256 SWAP1 POP PUSH0 PUSH1 0x40 MLOAD DUP1 PUSH2 0x120 ADD PUSH1 0x40 MSTORE DUP1 DUP11 DUP2 MSTORE PUSH1 0x20 ADD DUP10 DUP2 MSTORE PUSH1 0x20 ADD DUP9 DUP2 MSTORE PUSH1 0x20 ADD DUP8 DUP2 MSTORE PUSH1 0x20 ADD TIMESTAMP DUP2 MSTORE PUSH1 0x20 ADD DUP4 DUP2 MSTORE PUSH1 0x20 ADD PUSH0 ISZERO ISZERO DUP2 MSTORE PUSH1 0x20 ADD CALLER PUSH20 0xFFFFFFFFFFFFFFFFFFFFFFFFFFFFFFFFFFFFFFFF AND DUP2 MSTORE PUSH1 0x20 ADD DUP7 PUSH20 0xFFFFFFFFFFFFFFFFFFFFFFFFFFFFFFFFFFFFFFFF AND DUP2 MSTORE POP SWAP1 POP DUP1 PUSH1 0x1 PUSH0 DUP5 DUP2 MSTORE PUSH1 0x20 ADD SWAP1 DUP2 MSTORE PUSH1 0x20 ADD PUSH0 KECCAK256 PUSH0 DUP3 ADD MLOAD DUP2 PUSH0 ADD SSTORE PUSH1 0x20 DUP3 ADD MLOAD DUP2 PUSH1 0x1 ADD SSTORE PUSH1 0x40 DUP3 ADD MLOAD DUP2 PUSH1 0x2 ADD SSTORE PUSH1 0x60 DUP3 ADD MLOAD DUP2 PUSH1 0x3 ADD SSTORE PUSH1 0x80 DUP3 ADD MLOAD DUP2 PUSH1 0x4 ADD SSTORE PUSH1 0xA0 DUP3 ADD MLOAD DUP2 PUSH1 0x5 ADD SSTORE PUSH1 0xC0 DUP3 ADD MLOAD DUP2 PUSH1 0x6 ADD PUSH0 PUSH2 0x100 EXP DUP2 SLOAD DUP2 PUSH1 0xFF MUL NOT AND SWAP1 DUP4 ISZERO ISZERO MUL OR SWAP1 SSTORE POP PUSH1 0xE0 DUP3 ADD MLOAD DUP2 PUSH1 0x6 ADD PUSH1 0x1 PUSH2 0x100 EXP DUP2 SLOAD DUP2 PUSH20 0xFFFFFFFFFFFFFFFFFFFFFFFFFFFFFFFFFFFFFFFF MUL NOT AND SWAP1 DUP4 PUSH20 0xFFFFFFFFFFFFFFFFFFFFFFFFFFFFFFFFFFFFFFFF AND MUL OR SWAP1 SSTORE POP PUSH2 0x100 DUP3 ADD MLOAD DUP2 PUSH1 0x7 ADD PUSH0 PUSH2 0x100 EXP DUP2 SLOAD DUP2 PUSH20 0xFFFFFFFFFFFFFFFFFFFFFFFFFFFFFFFFFFFFFFFF MUL NOT AND SWAP1 DUP4 PUSH20 0xFFFFFFFFFFFFFFFFFFFFFFFFFFFFFFFFFFFFFFFF AND MUL OR SWAP1 SSTORE POP SWAP1 POP POP PUSH1 0x2 PUSH0 CALLER PUSH20 0xFFFFFFFFFFFFFFFFFFFFFFFFFFFFFFFFFFFFFFFF AND PUSH20 0xFFFFFFFFFFFFFFFFFFFFFFFFFFFFFFFFFFFFFFFF AND DUP2 MSTORE PUSH1 0x20 ADD SWAP1 DUP2 MSTORE PUSH1 0x20 ADD PUSH0 KECCAK256 DUP3 SWAP1 DUP1 PUSH1 0x1 DUP2 SLOAD ADD DUP1 DUP3 SSTORE DUP1 SWAP2 POP POP PUSH1 0x1 SWAP1 SUB SWAP1 PUSH0 MSTORE PUSH1 0x20 PUSH0 KECCAK256 ADD PUSH0 SWAP1 SWAP2 SWAP1 SWAP2 SWAP1 SWAP2 POP SSTORE PUSH1 0x2 PUSH0 DUP7 PUSH20 0xFFFFFFFFFFFFFFFFFFFFFFFFFFFFFFFFFFFFFFFF AND PUSH20 0xFFFFFFFFFFFFFFFFFFFFFFFFFFFFFFFFFFFFFFFF AND DUP2 MSTORE PUSH1 0x20 ADD SWAP1 DUP2 MSTORE PUSH1 0x20 ADD PUSH0 KECCAK256 DUP3 SWAP1 DUP1 PUSH1 0x1 DUP2 SLOAD ADD DUP1 DUP3 SSTORE DUP1 SWAP2 POP POP PUSH1 0x1 SWAP1 SUB SWAP1 PUSH0 MSTORE PUSH1 0x20 PUSH0 KECCAK256 ADD PUSH0 SWAP1 SWAP2 SWAP1 SWAP2 SWAP1 SWAP2 POP SSTORE DUP5 PUSH20 0xFFFFFFFFFFFFFFFFFFFFFFFFFFFFFFFFFFFFFFFF AND CALLER PUSH20 0xFFFFFFFFFFFFFFFFFFFFFFFFFFFFFFFFFFFFFFFF AND DUP4 PUSH32 0x899644D4EB82881FE02A2F3FF5B90179CAF815A74B619E0BF8A03D6F316C0212 TIMESTAMP PUSH1 0x40 MLOAD PUSH2 0x6F5 SWAP2 SWAP1 PUSH2 0x1AC6 JUMP JUMPDEST PUSH1 0x40 MLOAD DUP1 SWAP2 SUB SWAP1 LOG4 DUP2 SWAP4 POP POP POP POP SWAP7 SWAP6 POP POP POP POP POP POP JUMP JUMPDEST PUSH1 0x5 PUSH0 SWAP1 SLOAD SWAP1 PUSH2 0x100 EXP SWAP1 DIV PUSH20 0xFFFFFFFFFFFFFFFFFFFFFFFFFFFFFFFFFFFFFFFF AND PUSH20 0xFFFFFFFFFFFFFFFFFFFFFFFFFFFFFFFFFFFFFFFF AND CALLER PUSH20 0xFFFFFFFFFFFFFFFFFFFFFFFFFFFFFFFFFFFFFFFF AND EQ PUSH2 0x79C JUMPI PUSH1 0x40 MLOAD PUSH32 0x8C379A000000000000000000000000000000000000000000000000000000000 DUP2 MSTORE PUSH1 0x4 ADD PUSH2 0x793 SWAP1 PUSH2 0x1B4F JUMP JUMPDEST PUSH1 0x40 MLOAD DUP1 SWAP2 SUB SWAP1 REVERT JUMPDEST PUSH1 0x4 PUSH0 DUP3 PUSH20 0xFFFFFFFFFFFFFFFFFFFFFFFFFFFFFFFFFFFFFFFF AND PUSH20 0xFFFFFFFFFFFFFFFFFFFFFFFFFFFFFFFFFFFFFFFF AND DUP2 MSTORE PUSH1 0x20 ADD SWAP1 DUP2 MSTORE PUSH1 0x20 ADD PUSH0 KECCAK256 PUSH0 SWAP1 SLOAD SWAP1 PUSH2 0x100 EXP SWAP1 DIV PUSH1 0xFF AND ISZERO PUSH2 0x826 JUMPI PUSH1 0x40 MLOAD PUSH32 0x8C379A000000000000000000000000000000000000000000000000000000000 DUP2 MSTORE PUSH1 0x4 ADD PUSH2 0x81D SWAP1 PUSH2 0x1BB7 JUMP JUMPDEST PUSH1 0x40 MLOAD DUP1 SWAP2 SUB SWAP1 REVERT JUMPDEST PUSH1 0x1 PUSH1 0x4 PUSH0 DUP4 PUSH20 0xFFFFFFFFFFFFFFFFFFFFFFFFFFFFFFFFFFFFFFFF AND PUSH20 0xFFFFFFFFFFFFFFFFFFFFFFFFFFFFFFFFFFFFFFFF AND DUP2 MSTORE PUSH1 0x20 ADD SWAP1 DUP2 MSTORE PUSH1 0x20 ADD PUSH0 KECCAK256 PUSH0 PUSH2 0x100 EXP DUP2 SLOAD DUP2 PUSH1 0xFF MUL NOT AND SWAP1 DUP4 ISZERO ISZERO MUL OR SWAP1 SSTORE POP DUP1 PUSH20 0xFFFFFFFFFFFFFFFFFFFFFFFFFFFFFFFFFFFFFFFF AND PUSH32 0x82903E79EFC257A6E1DCC47396601792AC42DFAA46590342A3B29AE45FA5A713 TIMESTAMP PUSH1 0x40 MLOAD PUSH2 0x8C1 SWAP2 SWAP1 PUSH2 0x1AC6 JUMP JUMPDEST PUSH1 0x40 MLOAD DUP1 SWAP2 SUB SWAP1 LOG2 POP JUMP JUMPDEST PUSH1 0x5 PUSH0 SWAP1 SLOAD SWAP1 PUSH2 0x100 EXP SWAP1 DIV PUSH20 0xFFFFFFFFFFFFFFFFFFFFFFFFFFFFFFFFFFFFFFFF AND PUSH20 0xFFFFFFFFFFFFFFFFFFFFFFFFFFFFFFFFFFFFFFFF AND CALLER PUSH20 0xFFFFFFFFFFFFFFFFFFFFFFFFFFFFFFFFFFFFFFFF AND EQ PUSH2 0x95B JUMPI PUSH1 0x40 MLOAD PUSH32 0x8C379A000000000000000000000000000000000000000000000000000000000 DUP2 MSTORE PUSH1 0x4 ADD PUSH2 0x952 SWAP1 PUSH2 0x1B4F JUMP JUMPDEST PUSH1 0x40 MLOAD DUP1 SWAP2 SUB SWAP1 REVERT JUMPDEST PUSH1 0x4 PUSH0 DUP3 PUSH20 0xFFFFFFFFFFFFFFFFFFFFFFFFFFFFFFFFFFFFFFFF AND PUSH20 0xFFFFFFFFFFFFFFFFFFFFFFFFFFFFFFFFFFFFFFFF AND DUP2 MSTORE PUSH1 0x20 ADD SWAP1 DUP2 MSTORE PUSH1 0x20 ADD PUSH0 KECCAK256 PUSH0 SWAP1 SLOAD SWAP1 PUSH2 0x100 EXP SWAP1 DIV PUSH1 0xFF AND PUSH2 0x9E4 JUMPI PUSH1 0x40 MLOAD PUSH32 0x8C379A000000000000000000000000000000000000000000000000000000000 DUP2 MSTORE PUSH1 0x4 ADD PUSH2 0x9DB SWAP1 PUSH2 0x1C1F JUMP JUMPDEST PUSH1 0x40 MLOAD DUP1 SWAP2 SUB SWAP1 REVERT JUMPDEST PUSH0 PUSH1 0x4 PUSH0 DUP4 PUSH20 0xFFFFFFFFFFFFFFFFFFFFFFFFFFFFFFFFFFFFFFFF AND PUSH20 0xFFFFFFFFFFFFFFFFFFFFFFFFFFFFFFFFFFFFFFFF AND DUP2 MSTORE PUSH1 0x20 ADD SWAP1 DUP2 MSTORE PUSH1 0x20 ADD PUSH0 KECCAK256 PUSH0 PUSH2 0x100 EXP DUP2 SLOAD DUP2 PUSH1 0xFF MUL NOT AND SWAP1 DUP4 ISZERO ISZERO MUL OR SWAP1 SSTORE POP DUP1 PUSH20 0xFFFFFFFFFFFFFFFFFFFFFFFFFFFFFFFFFFFFFFFF AND PUSH32 0xE8D2A3AC660549A08F637582B6CBE854156AF7EF2042247240FFC1FD34DB7BCD TIMESTAMP PUSH1 0x40 MLOAD PUSH2 0xA7E SWAP2 SWAP1 PUSH2 0x1AC6 JUMP JUMPDEST PUSH1 0x40 MLOAD DUP1 SWAP2 SUB SWAP1 LOG2 POP JUMP JUMPDEST PUSH1 0x4 PUSH1 0x20 MSTORE DUP1 PUSH0 MSTORE PUSH1 0x40 PUSH0 KECCAK256 PUSH0 SWAP2 POP SLOAD SWAP1 PUSH2 0x100 EXP SWAP1 DIV PUSH1 0xFF AND DUP2 JUMP JUMPDEST PUSH0 PUSH1 0x3 PUSH0 DUP4 DUP2 MSTORE PUSH1 0x20 ADD SWAP1 DUP2 MSTORE PUSH1 0x20 ADD PUSH0 KECCAK256 PUSH0 SWAP1 SLOAD SWAP1 PUSH2 0x100 EXP SWAP1 DIV PUSH1 0xFF AND SWAP1 POP SWAP2 SWAP1 POP JUMP JUMPDEST PUSH0 CALLER PUSH20 0xFFFFFFFFFFFFFFFFFFFFFFFFFFFFFFFFFFFFFFFF AND PUSH0 PUSH0 DUP5 DUP2 MSTORE PUSH1 0x20 ADD SWAP1 DUP2 MSTORE PUSH1 0x20 ADD PUSH0 KECCAK256 PUSH0 SWAP1 SLOAD SWAP1 PUSH2 0x100 EXP SWAP1 DIV PUSH20 0xFFFFFFFFFFFFFFFFFFFFFFFFFFFFFFFFFFFFFFFF AND PUSH20 0xFFFFFFFFFFFFFFFFFFFFFFFFFFFFFFFFFFFFFFFF AND EQ DUP1 PUSH2 0xB82 JUMPI POP PUSH1 0x5 PUSH0 SWAP1 SLOAD SWAP1 PUSH2 0x100 EXP SWAP1 DIV PUSH20 0xFFFFFFFFFFFFFFFFFFFFFFFFFFFFFFFFFFFFFFFF AND PUSH20 0xFFFFFFFFFFFFFFFFFFFFFFFFFFFFFFFFFFFFFFFF AND CALLER PUSH20 0xFFFFFFFFFFFFFFFFFFFFFFFFFFFFFFFFFFFFFFFF AND EQ JUMPDEST PUSH2 0xBC1 JUMPI PUSH1 0x40 MLOAD PUSH32 0x8C379A000000000000000000000000000000000000000000000000000000000 DUP2 MSTORE PUSH1 0x4 ADD PUSH2 0xBB8 SWAP1 PUSH2 0x1CAD JUMP JUMPDEST PUSH1 0x40 MLOAD DUP1 SWAP2 SUB SWAP1 REVERT JUMPDEST PUSH0 PUSH0 DUP4 DUP2 MSTORE PUSH1 0x20 ADD SWAP1 DUP2 MSTORE PUSH1 0x20 ADD PUSH0 KECCAK256 PUSH0 SWAP1 SLOAD SWAP1 PUSH2 0x100 EXP SWAP1 DIV PUSH20 0xFFFFFFFFFFFFFFFFFFFFFFFFFFFFFFFFFFFFFFFF AND SWAP1 POP SWAP2 SWAP1 POP JUMP JUMPDEST PUSH0 PUSH0 PUSH0 PUSH0 PUSH0 PUSH0 PUSH0 PUSH1 0x1 PUSH0 DUP10 DUP2 MSTORE PUSH1 0x20 ADD SWAP1 DUP2 MSTORE PUSH1 0x20 ADD PUSH0 KECCAK256 PUSH1 0x40 MLOAD DUP1 PUSH2 0x120 ADD PUSH1 0x40 MSTORE SWAP1 DUP2 PUSH0 DUP3 ADD SLOAD DUP2 MSTORE PUSH1 0x20 ADD PUSH1 0x1 DUP3 ADD SLOAD DUP2 MSTORE PUSH1 0x20 ADD PUSH1 0x2 DUP3 ADD SLOAD DUP2 MSTORE PUSH1 0x20 ADD PUSH1 0x3 DUP3 ADD SLOAD DUP2 MSTORE PUSH1 0x20 ADD PUSH1 0x4 DUP3 ADD SLOAD DUP2 MSTORE PUSH1 0x20 ADD PUSH1 0x5 DUP3 ADD SLOAD DUP2 MSTORE PUSH1 0x20 ADD PUSH1 0x6 DUP3 ADD PUSH0 SWAP1 SLOAD SWAP1 PUSH2 0x100 EXP SWAP1 DIV PUSH1 0xFF AND ISZERO ISZERO ISZERO ISZERO DUP2 MSTORE PUSH1 0x20 ADD PUSH1 0x6 DUP3 ADD PUSH1 0x1 SWAP1 SLOAD SWAP1 PUSH2 0x100 EXP SWAP1 DIV PUSH20 0xFFFFFFFFFFFFFFFFFFFFFFFFFFFFFFFFFFFFFFFF AND PUSH20 0xFFFFFFFFFFFFFFFFFFFFFFFFFFFFFFFFFFFFFFFF AND PUSH20 0xFFFFFFFFFFFFFFFFFFFFFFFFFFFFFFFFFFFFFFFF AND DUP2 MSTORE PUSH1 0x20 ADD PUSH1 0x7 DUP3 ADD PUSH0 SWAP1 SLOAD SWAP1 PUSH2 0x100 EXP SWAP1 DIV PUSH20 0xFFFFFFFFFFFFFFFFFFFFFFFFFFFFFFFFFFFFFFFF AND PUSH20 0xFFFFFFFFFFFFFFFFFFFFFFFFFFFFFFFFFFFFFFFF AND PUSH20 0xFFFFFFFFFFFFFFFFFFFFFFFFFFFFFFFFFFFFFFFF AND DUP2 MSTORE POP POP SWAP1 POP PUSH0 PUSH0 SHL DUP2 PUSH1 0xA0 ADD MLOAD SUB PUSH2 0xD66 JUMPI PUSH1 0x40 MLOAD PUSH32 0x8C379A000000000000000000000000000000000000000000000000000000000 DUP2 MSTORE PUSH1 0x4 ADD PUSH2 0xD5D SWAP1 PUSH2 0x1D15 JUMP JUMPDEST PUSH1 0x40 MLOAD DUP1 SWAP2 SUB SWAP1 REVERT JUMPDEST DUP1 PUSH1 0xE0 ADD MLOAD PUSH20 0xFFFFFFFFFFFFFFFFFFFFFFFFFFFFFFFFFFFFFFFF AND CALLER PUSH20 0xFFFFFFFFFFFFFFFFFFFFFFFFFFFFFFFFFFFFFFFF AND EQ DUP1 PUSH2 0xDD4 JUMPI POP DUP1 PUSH2 0x100 ADD MLOAD PUSH20 0xFFFFFFFFFFFFFFFFFFFFFFFFFFFFFFFFFFFFFFFF AND CALLER PUSH20 0xFFFFFFFFFFFFFFFFFFFFFFFFFFFFFFFFFFFFFFFF AND EQ JUMPDEST PUSH2 0xE13 JUMPI PUSH1 0x40 MLOAD PUSH32 0x8C379A000000000000000000000000000000000000000000000000000000000 DUP2 MSTORE PUSH1 0x4 ADD PUSH2 0xE0A SWAP1 PUSH2 0x1DA3 JUMP JUMPDEST PUSH1 0x40 MLOAD DUP1 SWAP2 SUB SWAP1 REVERT JUMPDEST DUP1 PUSH0 ADD MLOAD DUP2 PUSH1 0x20 ADD MLOAD DUP3 PUSH1 0x40 ADD MLOAD DUP4 PUSH1 0x60 ADD MLOAD DUP5 PUSH1 0x80 ADD MLOAD DUP6 PUSH1 0xC0 ADD MLOAD SWAP7 POP SWAP7 POP SWAP7 POP SWAP7 POP SWAP7 POP SWAP7 POP POP SWAP2 SWAP4 SWAP6 POP SWAP2 SWAP4 SWAP6 JUMP JUMPDEST PUSH1 0x4 PUSH0 CALLER PUSH20 0xFFFFFFFFFFFFFFFFFFFFFFFFFFFFFFFFFFFFFFFF AND PUSH20 0xFFFFFFFFFFFFFFFFFFFFFFFFFFFFFFFFFFFFFFFF AND DUP2 MSTORE PUSH1 0x20 ADD SWAP1 DUP2 MSTORE PUSH1 0x20 ADD PUSH0 KECCAK256 PUSH0 SWAP1 SLOAD SWAP1 PUSH2 0x100 EXP SWAP1 DIV PUSH1 0xFF AND PUSH2 0xECF JUMPI PUSH1 0x40 MLOAD PUSH32 0x8C379A000000000000000000000000000000000000000000000000000000000 DUP2 MSTORE PUSH1 0x4 ADD PUSH2 0xEC6 SWAP1 PUSH2 0x1E31 JUMP JUMPDEST PUSH1 0x40 MLOAD DUP1 SWAP2 SUB SWAP1 REVERT JUMPDEST PUSH1 0x3 PUSH0 DUP5 DUP2 MSTORE PUSH1 0x20 ADD SWAP1 DUP2 MSTORE PUSH1 0x20 ADD PUSH0 KECCAK256 PUSH0 SWAP1 SLOAD SWAP1 PUSH2 0x100 EXP SWAP1 DIV PUSH1 0xFF AND ISZERO PUSH2 0xF2D JUMPI PUSH1 0x40 MLOAD PUSH32 0x8C379A000000000000000000000000000000000000000000000000000000000 DUP2 MSTORE PUSH1 0x4 ADD PUSH2 0xF24 SWAP1 PUSH2 0x1E99 JUMP JUMPDEST PUSH1 0x40 MLOAD DUP1 SWAP2 SUB SWAP1 REVERT JUMPDEST CALLER PUSH0 PUSH0 DUP6 DUP2 MSTORE PUSH1 0x20 ADD SWAP1 DUP2 MSTORE PUSH1 0x20 ADD PUSH0 KECCAK256 PUSH0 PUSH2 0x100 EXP DUP2 SLOAD DUP2 PUSH20 0xFFFFFFFFFFFFFFFFFFFFFFFFFFFFFFFFFFFFFFFF MUL NOT AND SWAP1 DUP4 PUSH20 0xFFFFFFFFFFFFFFFFFFFFFFFFFFFFFFFFFFFFFFFF AND MUL OR SWAP1 SSTORE POP PUSH1 0x1 PUSH1 0x3 PUSH0 DUP6 DUP2 MSTORE PUSH1 0x20 ADD SWAP1 DUP2 MSTORE PUSH1 0x20 ADD PUSH0 KECCAK256 PUSH0 PUSH2 0x100 EXP DUP2 SLOAD DUP2 PUSH1 0xFF MUL NOT AND SWAP1 DUP4 ISZERO ISZERO MUL OR SWAP1 SSTORE POP CALLER PUSH20 0xFFFFFFFFFFFFFFFFFFFFFFFFFFFFFFFFFFFFFFFF AND DUP4 PUSH32 0x7382BACF18BD3D25A7B5073D2C9845F9859D0C1F96E17D3BF4DDF8A0A099534E TIMESTAMP PUSH1 0x40 MLOAD PUSH2 0xFEB SWAP2 SWAP1 PUSH2 0x1AC6 JUMP JUMPDEST PUSH1 0x40 MLOAD DUP1 SWAP2 SUB SWAP1 LOG3 POP POP POP JUMP JUMPDEST PUSH1 0x5 PUSH0 SWAP1 SLOAD SWAP1 PUSH2 0x100 EXP SWAP1 DIV PUSH20 0xFFFFFFFFFFFFFFFFFFFFFFFFFFFFFFFFFFFFFFFF AND DUP2 JUMP JUMPDEST PUSH0 PUSH1 0x1 PUSH0 DUP5 DUP2 MSTORE PUSH1 0x20 ADD SWAP1 DUP2 MSTORE PUSH1 0x20 ADD PUSH0 KECCAK256 SWAP1 POP PUSH0 PUSH0 SHL DUP2 PUSH1 0x5 ADD SLOAD SUB PUSH2 0x1079 JUMPI PUSH1 0x40 MLOAD PUSH32 0x8C379A000000000000000000000000000000000000000000000000000000000 DUP2 MSTORE PUSH1 0x4 ADD PUSH2 0x1070 SWAP1 PUSH2 0x1D15 JUMP JUMPDEST PUSH1 0x40 MLOAD DUP1 SWAP2 SUB SWAP1 REVERT JUMPDEST DUP1 PUSH1 0x6 ADD PUSH0 SWAP1 SLOAD SWAP1 PUSH2 0x100 EXP SWAP1 DIV PUSH1 0xFF AND ISZERO PUSH2 0x10CA JUMPI PUSH1 0x40 MLOAD PUSH32 0x8C379A000000000000000000000000000000000000000000000000000000000 DUP2 MSTORE PUSH1 0x4 ADD PUSH2 0x10C1 SWAP1 PUSH2 0x1F01 JUMP JUMPDEST PUSH1 0x40 MLOAD DUP1 SWAP2 SUB SWAP1 REVERT JUMPDEST DUP1 PUSH1 0x7 ADD PUSH0 SWAP1 SLOAD SWAP1 PUSH2 0x100 EXP SWAP1 DIV PUSH20 0xFFFFFFFFFFFFFFFFFFFFFFFFFFFFFFFFFFFFFFFF AND PUSH20 0xFFFFFFFFFFFFFFFFFFFFFFFFFFFFFFFFFFFFFFFF AND CALLER PUSH20 0xFFFFFFFFFFFFFFFFFFFFFFFFFFFFFFFFFFFFFFFF AND EQ PUSH2 0x115B JUMPI PUSH1 0x40 MLOAD PUSH32 0x8C379A000000000000000000000000000000000000000000000000000000000 DUP2 MSTORE PUSH1 0x4 ADD PUSH2 0x1152 SWAP1 PUSH2 0x1F8F JUMP JUMPDEST PUSH1 0x40 MLOAD DUP1 SWAP2 SUB SWAP1 REVERT JUMPDEST DUP1 PUSH1 0x6 ADD PUSH1 0x1 SWAP1 SLOAD SWAP1 PUSH2 0x100 EXP SWAP1 DIV PUSH20 0xFFFFFFFFFFFFFFFFFFFFFFFFFFFFFFFFFFFFFFFF AND PUSH20 0xFFFFFFFFFFFFFFFFFFFFFFFFFFFFFFFFFFFFFFFF AND PUSH0 PUSH0 DUP5 DUP2 MSTORE PUSH1 0x20 ADD SWAP1 DUP2 MSTORE PUSH1 0x20 ADD PUSH0 KECCAK256 PUSH0 SWAP1 SLOAD SWAP1 PUSH2 0x100 EXP SWAP1 DIV PUSH20 0xFFFFFFFFFFFFFFFFFFFFFFFFFFFFFFFFFFFFFFFF AND PUSH20 0xFFFFFFFFFFFFFFFFFFFFFFFFFFFFFFFFFFFFFFFF AND EQ PUSH2 0x121C JUMPI PUSH1 0x40 MLOAD PUSH32 0x8C379A000000000000000000000000000000000000000000000000000000000 DUP2 MSTORE PUSH1 0x4 ADD PUSH2 0x1213 SWAP1 PUSH2 0x1FF7 JUMP JUMPDEST PUSH1 0x40 MLOAD DUP1 SWAP2 SUB SWAP1 REVERT JUMPDEST DUP1 PUSH1 0x7 ADD PUSH0 SWAP1 SLOAD SWAP1 PUSH2 0x100 EXP SWAP1 DIV PUSH20 0xFFFFFFFFFFFFFFFFFFFFFFFFFFFFFFFFFFFFFFFF AND PUSH0 PUSH0 DUP5 DUP2 MSTORE PUSH1 0x20 ADD SWAP1 DUP2 MSTORE PUSH1 0x20 ADD PUSH0 KECCAK256 PUSH0 PUSH2 0x100 EXP DUP2 SLOAD DUP2 PUSH20 0xFFFFFFFFFFFFFFFFFFFFFFFFFFFFFFFFFFFFFFFF MUL NOT AND SWAP1 DUP4 PUSH20 0xFFFFFFFFFFFFFFFFFFFFFFFFFFFFFFFFFFFFFFFF AND MUL OR SWAP1 SSTORE POP PUSH1 0x1 DUP2 PUSH1 0x6 ADD PUSH0 PUSH2 0x100 EXP DUP2 SLOAD DUP2 PUSH1 0xFF MUL NOT AND SWAP1 DUP4 ISZERO ISZERO MUL OR SWAP1 SSTORE POP DUP3 PUSH32 0xF698C1D18E531666D86AB9A9062DBC6E994ABB53FF9ECE034D24D336CE13ED2D TIMESTAMP PUSH1 0x40 MLOAD PUSH2 0x12D9 SWAP2 SWAP1 PUSH2 0x1AC6 JUMP JUMPDEST PUSH1 0x40 MLOAD DUP1 SWAP2 SUB SWAP1 LOG2 POP POP POP JUMP JUMPDEST PUSH1 0x60 DUP2 PUSH20 0xFFFFFFFFFFFFFFFFFFFFFFFFFFFFFFFFFFFFFFFF AND CALLER PUSH20 0xFFFFFFFFFFFFFFFFFFFFFFFFFFFFFFFFFFFFFFFF AND EQ DUP1 PUSH2 0x136E JUMPI POP PUSH1 0x5 PUSH0 SWAP1 SLOAD SWAP1 PUSH2 0x100 EXP SWAP1 DIV PUSH20 0xFFFFFFFFFFFFFFFFFFFFFFFFFFFFFFFFFFFFFFFF AND PUSH20 0xFFFFFFFFFFFFFFFFFFFFFFFFFFFFFFFFFFFFFFFF AND CALLER PUSH20 0xFFFFFFFFFFFFFFFFFFFFFFFFFFFFFFFFFFFFFFFF AND EQ JUMPDEST PUSH2 0x13AD JUMPI PUSH1 0x40 MLOAD PUSH32 0x8C379A000000000000000000000000000000000000000000000000000000000 DUP2 MSTORE PUSH1 0x4 ADD PUSH2 0x13A4 SWAP1 PUSH2 0x205F JUMP JUMPDEST PUSH1 0x40 MLOAD DUP1 SWAP2 SUB SWAP1 REVERT JUMPDEST PUSH1 0x2 PUSH0 DUP4 PUSH20 0xFFFFFFFFFFFFFFFFFFFFFFFFFFFFFFFFFFFFFFFF AND PUSH20 0xFFFFFFFFFFFFFFFFFFFFFFFFFFFFFFFFFFFFFFFF AND DUP2 MSTORE PUSH1 0x20 ADD SWAP1 DUP2 MSTORE PUSH1 0x20 ADD PUSH0 KECCAK256 DUP1 SLOAD DUP1 PUSH1 0x20 MUL PUSH1 0x20 ADD PUSH1 0x40 MLOAD SWAP1 DUP2 ADD PUSH1 0x40 MSTORE DUP1 SWAP3 SWAP2 SWAP1 DUP2 DUP2 MSTORE PUSH1 0x20 ADD DUP3 DUP1 SLOAD DUP1 ISZERO PUSH2 0x1432 JUMPI PUSH1 0x20 MUL DUP3 ADD SWAP2 SWAP1 PUSH0 MSTORE PUSH1 0x20 PUSH0 KECCAK256 SWAP1 JUMPDEST DUP2 SLOAD DUP2 MSTORE PUSH1 0x20 ADD SWAP1 PUSH1 0x1 ADD SWAP1 DUP1 DUP4 GT PUSH2 0x141E JUMPI JUMPDEST POP POP POP POP POP SWAP1 POP SWAP2 SWAP1 POP JUMP JUMPDEST PUSH0 PUSH0 REVERT JUMPDEST PUSH0 DUP2 SWAP1 POP SWAP2 SWAP1 POP JUMP JUMPDEST PUSH2 0x1454 DUP2 PUSH2 0x1442 JUMP JUMPDEST DUP2 EQ PUSH2 0x145E JUMPI PUSH0 PUSH0 REVERT JUMPDEST POP JUMP JUMPDEST PUSH0 DUP2 CALLDATALOAD SWAP1 POP PUSH2 0x146F DUP2 PUSH2 0x144B JUMP JUMPDEST SWAP3 SWAP2 POP POP JUMP JUMPDEST PUSH0 PUSH20 0xFFFFFFFFFFFFFFFFFFFFFFFFFFFFFFFFFFFFFFFF DUP3 AND SWAP1 POP SWAP2 SWAP1 POP JUMP JUMPDEST PUSH0 PUSH2 0x149E DUP3 PUSH2 0x1475 JUMP JUMPDEST SWAP1 POP SWAP2 SWAP1 POP JUMP JUMPDEST PUSH2 0x14AE DUP2 PUSH2 0x1494 JUMP JUMPDEST DUP2 EQ PUSH2 0x14B8 JUMPI PUSH0 PUSH0 REVERT JUMPDEST POP JUMP JUMPDEST PUSH0 DUP2 CALLDATALOAD SWAP1 POP PUSH2 0x14C9 DUP2 PUSH2 0x14A5 JUMP JUMPDEST SWAP3 SWAP2 POP POP JUMP JUMPDEST PUSH0 PUSH0 PUSH0 PUSH0 PUSH0 PUSH0 PUSH1 0xC0 DUP8 DUP10 SUB SLT ISZERO PUSH2 0x14E9 JUMPI PUSH2 0x14E8 PUSH2 0x143E JUMP JUMPDEST JUMPDEST PUSH0 PUSH2 0x14F6 DUP10 DUP3 DUP11 ADD PUSH2 0x1461 JUMP JUMPDEST SWAP7 POP POP PUSH1 0x20 PUSH2 0x1507 DUP10 DUP3 DUP11 ADD PUSH2 0x1461 JUMP JUMPDEST SWAP6 POP POP PUSH1 0x40 PUSH2 0x1518 DUP10 DUP3 DUP11 ADD PUSH2 0x1461 JUMP JUMPDEST SWAP5 POP POP PUSH1 0x60 PUSH2 0x1529 DUP10 DUP3 DUP11 ADD PUSH2 0x1461 JUMP JUMPDEST SWAP4 POP POP PUSH1 0x80 PUSH2 0x153A DUP10 DUP3 DUP11 ADD PUSH2 0x1461 JUMP JUMPDEST SWAP3 POP POP PUSH1 0xA0 PUSH2 0x154B DUP10 DUP3 DUP11 ADD PUSH2 0x14BB JUMP JUMPDEST SWAP2 POP POP SWAP3 SWAP6 POP SWAP3 SWAP6 POP SWAP3 SWAP6 JUMP JUMPDEST PUSH2 0x1561 DUP2 PUSH2 0x1442 JUMP JUMPDEST DUP3 MSTORE POP POP JUMP JUMPDEST PUSH0 PUSH1 0x20 DUP3 ADD SWAP1 POP PUSH2 0x157A PUSH0 DUP4 ADD DUP5 PUSH2 0x1558 JUMP JUMPDEST SWAP3 SWAP2 POP POP JUMP JUMPDEST PUSH0 PUSH1 0x20 DUP3 DUP5 SUB SLT ISZERO PUSH2 0x1595 JUMPI PUSH2 0x1594 PUSH2 0x143E JUMP JUMPDEST JUMPDEST PUSH0 PUSH2 0x15A2 DUP5 DUP3 DUP6 ADD PUSH2 0x14BB JUMP JUMPDEST SWAP2 POP POP SWAP3 SWAP2 POP POP JUMP JUMPDEST PUSH0 DUP2 ISZERO ISZERO SWAP1 POP SWAP2 SWAP1 POP JUMP JUMPDEST PUSH2 0x15BF DUP2 PUSH2 0x15AB JUMP JUMPDEST DUP3 MSTORE POP POP JUMP JUMPDEST PUSH0 PUSH1 0x20 DUP3 ADD SWAP1 POP PUSH2 0x15D8 PUSH0 DUP4 ADD DUP5 PUSH2 0x15B6 JUMP JUMPDEST SWAP3 SWAP2 POP POP JUMP JUMPDEST PUSH0 PUSH1 0x20 DUP3 DUP5 SUB SLT ISZERO PUSH2 0x15F3 JUMPI PUSH2 0x15F2 PUSH2 0x143E JUMP JUMPDEST JUMPDEST PUSH0 PUSH2 0x1600 DUP5 DUP3 DUP6 ADD PUSH2 0x1461 JUMP JUMPDEST SWAP2 POP POP SWAP3 SWAP2 POP POP JUMP JUMPDEST PUSH2 0x1612 DUP2 PUSH2 0x1494 JUMP JUMPDEST DUP3 MSTORE POP POP JUMP JUMPDEST PUSH0 PUSH1 0x20 DUP3 ADD SWAP1 POP PUSH2 0x162B PUSH0 DUP4 ADD DUP5 PUSH2 0x1609 JUMP JUMPDEST SWAP3 SWAP2 POP POP JUMP JUMPDEST PUSH0 DUP2 SWAP1 POP SWAP2 SWAP1 POP JUMP JUMPDEST PUSH2 0x1643 DUP2 PUSH2 0x1631 JUMP JUMPDEST DUP3 MSTORE POP POP JUMP JUMPDEST PUSH0 PUSH1 0xC0 DUP3 ADD SWAP1 POP PUSH2 0x165C PUSH0 DUP4 ADD DUP10 PUSH2 0x1558 JUMP JUMPDEST PUSH2 0x1669 PUSH1 0x20 DUP4 ADD DUP9 PUSH2 0x1558 JUMP JUMPDEST PUSH2 0x1676 PUSH1 0x40 DUP4 ADD DUP8 PUSH2 0x1558 JUMP JUMPDEST PUSH2 0x1683 PUSH1 0x60 DUP4 ADD DUP7 PUSH2 0x1558 JUMP JUMPDEST PUSH2 0x1690 PUSH1 0x80 DUP4 ADD DUP6 PUSH2 0x163A JUMP JUMPDEST PUSH2 0x169D PUSH1 0xA0 DUP4 ADD DUP5 PUSH2 0x15B6 JUMP JUMPDEST SWAP8 SWAP7 POP POP POP POP POP POP POP JUMP JUMPDEST PUSH0 PUSH0 PUSH0 PUSH1 0x60 DUP5 DUP7 SUB SLT ISZERO PUSH2 0x16BF JUMPI PUSH2 0x16BE PUSH2 0x143E JUMP JUMPDEST JUMPDEST PUSH0 PUSH2 0x16CC DUP7 DUP3 DUP8 ADD PUSH2 0x1461 JUMP JUMPDEST SWAP4 POP POP PUSH1 0x20 PUSH2 0x16DD DUP7 DUP3 DUP8 ADD PUSH2 0x1461 JUMP JUMPDEST SWAP3 POP POP PUSH1 0x40 PUSH2 0x16EE DUP7 DUP3 DUP8 ADD PUSH2 0x1461 JUMP JUMPDEST SWAP2 POP POP SWAP3 POP SWAP3 POP SWAP3 JUMP JUMPDEST PUSH0 PUSH0 PUSH1 0x40 DUP4 DUP6 SUB SLT ISZERO PUSH2 0x170E JUMPI PUSH2 0x170D PUSH2 0x143E JUMP JUMPDEST JUMPDEST PUSH0 PUSH2 0x171B DUP6 DUP3 DUP7 ADD PUSH2 0x1461 JUMP JUMPDEST SWAP3 POP POP PUSH1 0x20 PUSH2 0x172C DUP6 DUP3 DUP7 ADD PUSH2 0x1461 JUMP JUMPDEST SWAP2 POP POP SWAP3 POP SWAP3 SWAP1 POP JUMP JUMPDEST PUSH0 DUP2 MLOAD SWAP1 POP SWAP2 SWAP1 POP JUMP JUMPDEST PUSH0 DUP3 DUP3 MSTORE PUSH1 0x20 DUP3 ADD SWAP1 POP SWAP3 SWAP2 POP POP JUMP JUMPDEST PUSH0 DUP2 SWAP1 POP PUSH1 0x20 DUP3 ADD SWAP1 POP SWAP2 SWAP1 POP JUMP JUMPDEST PUSH2 0x1768 DUP2 PUSH2 0x1442 JUMP JUMPDEST DUP3 MSTORE POP POP JUMP JUMPDEST PUSH0 PUSH2 0x1779 DUP4 DUP4 PUSH2 0x175F JUMP JUMPDEST PUSH1 0x20 DUP4 ADD SWAP1 POP SWAP3 SWAP2 POP POP JUMP JUMPDEST PUSH0 PUSH1 0x20 DUP3 ADD SWAP1 POP SWAP2 SWAP1 POP JUMP JUMPDEST PUSH0 PUSH2 0x179B DUP3 PUSH2 0x1736 JUMP JUMPDEST PUSH2 0x17A5 DUP2 DUP6 PUSH2 0x1740 JUMP JUMPDEST SWAP4 POP PUSH2 0x17B0 DUP4 PUSH2 0x1750 JUMP JUMPDEST DUP1 PUSH0 JUMPDEST DUP4 DUP2 LT ISZERO PUSH2 0x17E0 JUMPI DUP2 MLOAD PUSH2 0x17C7 DUP9 DUP3 PUSH2 0x176E JUMP JUMPDEST SWAP8 POP PUSH2 0x17D2 DUP4 PUSH2 0x1785 JUMP JUMPDEST SWAP3 POP POP PUSH1 0x1 DUP2 ADD SWAP1 POP PUSH2 0x17B3 JUMP JUMPDEST POP DUP6 SWAP4 POP POP POP POP SWAP3 SWAP2 POP POP JUMP JUMPDEST PUSH0 PUSH1 0x20 DUP3 ADD SWAP1 POP DUP2 DUP2 SUB PUSH0 DUP4 ADD MSTORE PUSH2 0x1805 DUP2 DUP5 PUSH2 0x1791 JUMP JUMPDEST SWAP1 POP SWAP3 SWAP2 POP POP JUMP JUMPDEST PUSH0 DUP3 DUP3 MSTORE PUSH1 0x20 DUP3 ADD SWAP1 POP SWAP3 SWAP2 POP POP JUMP JUMPDEST PUSH32 0x596F7520617265206E6F74207468652063757272656E74206F776E6572206F66 PUSH0 DUP3 ADD MSTORE PUSH32 0x2074686973206974656D00000000000000000000000000000000000000000000 PUSH1 0x20 DUP3 ADD MSTORE POP JUMP JUMPDEST PUSH0 PUSH2 0x1877 PUSH1 0x2A DUP4 PUSH2 0x180D JUMP JUMPDEST SWAP2 POP PUSH2 0x1882 DUP3 PUSH2 0x181D JUMP JUMPDEST PUSH1 0x40 DUP3 ADD SWAP1 POP SWAP2 SWAP1 POP JUMP JUMPDEST PUSH0 PUSH1 0x20 DUP3 ADD SWAP1 POP DUP2 DUP2 SUB PUSH0 DUP4 ADD MSTORE PUSH2 0x18A4 DUP2 PUSH2 0x186B JUMP JUMPDEST SWAP1 POP SWAP2 SWAP1 POP JUMP JUMPDEST PUSH32 0x50726F64756374206E6F74207265676973746572656400000000000000000000 PUSH0 DUP3 ADD MSTORE POP JUMP JUMPDEST PUSH0 PUSH2 0x18DF PUSH1 0x16 DUP4 PUSH2 0x180D JUMP JUMPDEST SWAP2 POP PUSH2 0x18EA DUP3 PUSH2 0x18AB JUMP JUMPDEST PUSH1 0x20 DUP3 ADD SWAP1 POP SWAP2 SWAP1 POP JUMP JUMPDEST PUSH0 PUSH1 0x20 DUP3 ADD SWAP1 POP DUP2 DUP2 SUB PUSH0 DUP4 ADD MSTORE PUSH2 0x190C DUP2 PUSH2 0x18D3 JUMP JUMPDEST SWAP1 POP SWAP2 SWAP1 POP JUMP JUMPDEST PUSH32 0x496E76616C696420726563656976657220616464726573730000000000000000 PUSH0 DUP3 ADD MSTORE POP JUMP JUMPDEST PUSH0 PUSH2 0x1947 PUSH1 0x18 DUP4 PUSH2 0x180D JUMP JUMPDEST SWAP2 POP PUSH2 0x1952 DUP3 PUSH2 0x1913 JUMP JUMPDEST PUSH1 0x20 DUP3 ADD SWAP1 POP SWAP2 SWAP1 POP JUMP JUMPDEST PUSH0 PUSH1 0x20 DUP3 ADD SWAP1 POP DUP2 DUP2 SUB PUSH0 DUP4 ADD MSTORE PUSH2 0x1974 DUP2 PUSH2 0x193B JUMP JUMPDEST SWAP1 POP SWAP2 SWAP1 POP JUMP JUMPDEST PUSH32 0x43616E6E6F74207368697020746F20796F757273656C66000000000000000000 PUSH0 DUP3 ADD MSTORE POP JUMP JUMPDEST PUSH0 PUSH2 0x19AF PUSH1 0x17 DUP4 PUSH2 0x180D JUMP JUMPDEST SWAP2 POP PUSH2 0x19BA DUP3 PUSH2 0x197B JUMP JUMPDEST PUSH1 0x20 DUP3 ADD SWAP1 POP SWAP2 SWAP1 POP JUMP JUMPDEST PUSH0 PUSH1 0x20 DUP3 ADD SWAP1 POP DUP2 DUP2 SUB PUSH0 DUP4 ADD MSTORE PUSH2 0x19DC DUP2 PUSH2 0x19A3 JUMP JUMPDEST SWAP1 POP SWAP2 SWAP1 POP JUMP JUMPDEST PUSH0 DUP2 SWAP1 POP SWAP2 SWAP1 POP JUMP JUMPDEST PUSH2 0x19FD PUSH2 0x19F8 DUP3 PUSH2 0x1442 JUMP JUMPDEST PUSH2 0x19E3 JUMP JUMPDEST DUP3 MSTORE POP POP JUMP JUMPDEST PUSH0 DUP2 PUSH1 0x60 SHL SWAP1 POP SWAP2 SWAP1 POP JUMP JUMPDEST PUSH0 PUSH2 0x1A19 DUP3 PUSH2 0x1A03 JUMP JUMPDEST SWAP1 POP SWAP2 SWAP1 POP JUMP JUMPDEST PUSH0 PUSH2 0x1A2A DUP3 PUSH2 0x1A0F JUMP JUMPDEST SWAP1 POP SWAP2 SWAP1 POP JUMP JUMPDEST PUSH2 0x1A42 PUSH2 0x1A3D DUP3 PUSH2 0x1494 JUMP JUMPDEST PUSH2 0x1A20 JUMP JUMPDEST DUP3 MSTORE POP POP JUMP JUMPDEST PUSH0 DUP2 SWAP1 POP SWAP2 SWAP1 POP JUMP JUMPDEST PUSH2 0x1A62 PUSH2 0x1A5D DUP3 PUSH2 0x1631 JUMP JUMPDEST PUSH2 0x1A48 JUMP JUMPDEST DUP3 MSTORE POP POP JUMP JUMPDEST PUSH0 PUSH2 0x1A73 DUP3 DUP9 PUSH2 0x19EC JUMP JUMPDEST PUSH1 0x20 DUP3 ADD SWAP2 POP PUSH2 0x1A83 DUP3 DUP8 PUSH2 0x1A31 JUMP JUMPDEST PUSH1 0x14 DUP3 ADD SWAP2 POP PUSH2 0x1A93 DUP3 DUP7 PUSH2 0x1A31 JUMP JUMPDEST PUSH1 0x14 DUP3 ADD SWAP2 POP PUSH2 0x1AA3 DUP3 DUP6 PUSH2 0x1A51 JUMP JUMPDEST PUSH1 0x20 DUP3 ADD SWAP2 POP PUSH2 0x1AB3 DUP3 DUP5 PUSH2 0x1A51 JUMP JUMPDEST PUSH1 0x20 DUP3 ADD SWAP2 POP DUP2 SWAP1 POP SWAP7 SWAP6 POP POP POP POP POP POP JUMP JUMPDEST PUSH0 PUSH1 0x20 DUP3 ADD SWAP1 POP PUSH2 0x1AD9 PUSH0 DUP4 ADD DUP5 PUSH2 0x163A JUMP JUMPDEST SWAP3 SWAP2 POP POP JUMP JUMPDEST PUSH32 0x4F6E6C7920636F6E7472616374206F776E65722063616E20706572666F726D20 PUSH0 DUP3 ADD MSTORE PUSH32 0x7468697320616374696F6E000000000000000000000000000000000000000000 PUSH1 0x20 DUP3 ADD MSTORE POP JUMP JUMPDEST PUSH0 PUSH2 0x1B39 PUSH1 0x2B DUP4 PUSH2 0x180D JUMP JUMPDEST SWAP2 POP PUSH2 0x1B44 DUP3 PUSH2 0x1ADF JUMP JUMPDEST PUSH1 0x40 DUP3 ADD SWAP1 POP SWAP2 SWAP1 POP JUMP JUMPDEST PUSH0 PUSH1 0x20 DUP3 ADD SWAP1 POP DUP2 DUP2 SUB PUSH0 DUP4 ADD MSTORE PUSH2 0x1B66 DUP2 PUSH2 0x1B2D JUMP JUMPDEST SWAP1 POP SWAP2 SWAP1 POP JUMP JUMPDEST PUSH32 0x4D616E75666163747572657220616C726561647920617574686F72697A656400 PUSH0 DUP3 ADD MSTORE POP JUMP JUMPDEST PUSH0 PUSH2 0x1BA1 PUSH1 0x1F DUP4 PUSH2 0x180D JUMP JUMPDEST SWAP2 POP PUSH2 0x1BAC DUP3 PUSH2 0x1B6D JUMP JUMPDEST PUSH1 0x20 DUP3 ADD SWAP1 POP SWAP2 SWAP1 POP JUMP JUMPDEST PUSH0 PUSH1 0x20 DUP3 ADD SWAP1 POP DUP2 DUP2 SUB PUSH0 DUP4 ADD MSTORE PUSH2 0x1BCE DUP2 PUSH2 0x1B95 JUMP JUMPDEST SWAP1 POP SWAP2 SWAP1 POP JUMP JUMPDEST PUSH32 0x4D616E756661637475726572206E6F7420617574686F72697A65640000000000 PUSH0 DUP3 ADD MSTORE POP JUMP JUMPDEST PUSH0 PUSH2 0x1C09 PUSH1 0x1B DUP4 PUSH2 0x180D JUMP JUMPDEST SWAP2 POP PUSH2 0x1C14 DUP3 PUSH2 0x1BD5 JUMP JUMPDEST PUSH1 0x20 DUP3 ADD SWAP1 POP SWAP2 SWAP1 POP JUMP JUMPDEST PUSH0 PUSH1 0x20 DUP3 ADD SWAP1 POP DUP2 DUP2 SUB PUSH0 DUP4 ADD MSTORE PUSH2 0x1C36 DUP2 PUSH2 0x1BFD JUMP JUMPDEST SWAP1 POP SWAP2 SWAP1 POP JUMP JUMPDEST PUSH32 0x4F6E6C792063757272656E74206F776E65722063616E20636865636B206F776E PUSH0 DUP3 ADD MSTORE PUSH32 0x6572736869700000000000000000000000000000000000000000000000000000 PUSH1 0x20 DUP3 ADD MSTORE POP JUMP JUMPDEST PUSH0 PUSH2 0x1C97 PUSH1 0x26 DUP4 PUSH2 0x180D JUMP JUMPDEST SWAP2 POP PUSH2 0x1CA2 DUP3 PUSH2 0x1C3D JUMP JUMPDEST PUSH1 0x40 DUP3 ADD SWAP1 POP SWAP2 SWAP1 POP JUMP JUMPDEST PUSH0 PUSH1 0x20 DUP3 ADD SWAP1 POP DUP2 DUP2 SUB PUSH0 DUP4 ADD MSTORE PUSH2 0x1CC4 DUP2 PUSH2 0x1C8B JUMP JUMPDEST SWAP1 POP SWAP2 SWAP1 POP JUMP JUMPDEST PUSH32 0x5472616E73616374696F6E20646F6573206E6F74206578697374000000000000 PUSH0 DUP3 ADD MSTORE POP JUMP JUMPDEST PUSH0 PUSH2 0x1CFF PUSH1 0x1A DUP4 PUSH2 0x180D JUMP JUMPDEST SWAP2 POP PUSH2 0x1D0A DUP3 PUSH2 0x1CCB JUMP JUMPDEST PUSH1 0x20 DUP3 ADD SWAP1 POP SWAP2 SWAP1 POP JUMP JUMPDEST PUSH0 PUSH1 0x20 DUP3 ADD SWAP1 POP DUP2 DUP2 SUB PUSH0 DUP4 ADD MSTORE PUSH2 0x1D2C DUP2 PUSH2 0x1CF3 JUMP JUMPDEST SWAP1 POP SWAP2 SWAP1 POP JUMP JUMPDEST PUSH32 0x4F6E6C792073686970706572206F722072656365697665722063616E20766965 PUSH0 DUP3 ADD MSTORE PUSH32 0x77207472616E73616374696F6E00000000000000000000000000000000000000 PUSH1 0x20 DUP3 ADD MSTORE POP JUMP JUMPDEST PUSH0 PUSH2 0x1D8D PUSH1 0x2D DUP4 PUSH2 0x180D JUMP JUMPDEST SWAP2 POP PUSH2 0x1D98 DUP3 PUSH2 0x1D33 JUMP JUMPDEST PUSH1 0x40 DUP3 ADD SWAP1 POP SWAP2 SWAP1 POP JUMP JUMPDEST PUSH0 PUSH1 0x20 DUP3 ADD SWAP1 POP DUP2 DUP2 SUB PUSH0 DUP4 ADD MSTORE PUSH2 0x1DBA DUP2 PUSH2 0x1D81 JUMP JUMPDEST SWAP1 POP SWAP2 SWAP1 POP JUMP JUMPDEST PUSH32 0x4F6E6C7920617574686F72697A6564206D616E75666163747572657273206361 PUSH0 DUP3 ADD MSTORE PUSH32 0x6E2072656769737465722070726F647563747300000000000000000000000000 PUSH1 0x20 DUP3 ADD MSTORE POP JUMP JUMPDEST PUSH0 PUSH2 0x1E1B PUSH1 0x33 DUP4 PUSH2 0x180D JUMP JUMPDEST SWAP2 POP PUSH2 0x1E26 DUP3 PUSH2 0x1DC1 JUMP JUMPDEST PUSH1 0x40 DUP3 ADD SWAP1 POP SWAP2 SWAP1 POP JUMP JUMPDEST PUSH0 PUSH1 0x20 DUP3 ADD SWAP1 POP DUP2 DUP2 SUB PUSH0 DUP4 ADD MSTORE PUSH2 0x1E48 DUP2 PUSH2 0x1E0F JUMP JUMPDEST SWAP1 POP SWAP2 SWAP1 POP JUMP JUMPDEST PUSH32 0x50726F6475637420616C72656164792072656769737465726564000000000000 PUSH0 DUP3 ADD MSTORE POP JUMP JUMPDEST PUSH0 PUSH2 0x1E83 PUSH1 0x1A DUP4 PUSH2 0x180D JUMP JUMPDEST SWAP2 POP PUSH2 0x1E8E DUP3 PUSH2 0x1E4F JUMP JUMPDEST PUSH1 0x20 DUP3 ADD SWAP1 POP SWAP2 SWAP1 POP JUMP JUMPDEST PUSH0 PUSH1 0x20 DUP3 ADD SWAP1 POP DUP2 DUP2 SUB PUSH0 DUP4 ADD MSTORE PUSH2 0x1EB0 DUP2 PUSH2 0x1E77 JUMP JUMPDEST SWAP1 POP SWAP2 SWAP1 POP JUMP JUMPDEST PUSH32 0x5472616E73616374696F6E20616C726561647920636F6D706C65746564000000 PUSH0 DUP3 ADD MSTORE POP JUMP JUMPDEST PUSH0 PUSH2 0x1EEB PUSH1 0x1D DUP4 PUSH2 0x180D JUMP JUMPDEST SWAP2 POP PUSH2 0x1EF6 DUP3 PUSH2 0x1EB7 JUMP JUMPDEST PUSH1 0x20 DUP3 ADD SWAP1 POP SWAP2 SWAP1 POP JUMP JUMPDEST PUSH0 PUSH1 0x20 DUP3 ADD SWAP1 POP DUP2 DUP2 SUB PUSH0 DUP4 ADD MSTORE PUSH2 0x1F18 DUP2 PUSH2 0x1EDF JUMP JUMPDEST SWAP1 POP SWAP2 SWAP1 POP JUMP JUMPDEST PUSH32 0x4F6E6C792072656365697665722063616E20636F6D706C657465207472616E73 PUSH0 DUP3 ADD MSTORE PUSH32 0x616374696F6E0000000000000000000000000000000000000000000000000000 PUSH1 0x20 DUP3 ADD MSTORE POP JUMP JUMPDEST PUSH0 PUSH2 0x1F79 PUSH1 0x26 DUP4 PUSH2 0x180D JUMP JUMPDEST SWAP2 POP PUSH2 0x1F84 DUP3 PUSH2 0x1F1F JUMP JUMPDEST PUSH1 0x40 DUP3 ADD SWAP1 POP SWAP2 SWAP1 POP JUMP JUMPDEST PUSH0 PUSH1 0x20 DUP3 ADD SWAP1 POP DUP2 DUP2 SUB PUSH0 DUP4 ADD MSTORE PUSH2 0x1FA6 DUP2 PUSH2 0x1F6D JUMP JUMPDEST SWAP1 POP SWAP2 SWAP1 POP JUMP JUMPDEST PUSH32 0x53686970706572206973206E6F742063757272656E74206F776E657200000000 PUSH0 DUP3 ADD MSTORE POP JUMP JUMPDEST PUSH0 PUSH2 0x1FE1 PUSH1 0x1C DUP4 PUSH2 0x180D JUMP JUMPDEST SWAP2 POP PUSH2 0x1FEC DUP3 PUSH2 0x1FAD JUMP JUMPDEST PUSH1 0x20 DUP3 ADD SWAP1 POP SWAP2 SWAP1 POP JUMP JUMPDEST PUSH0 PUSH1 0x20 DUP3 ADD SWAP1 POP DUP2 DUP2 SUB PUSH0 DUP4 ADD MSTORE PUSH2 0x200E DUP2 PUSH2 0x1FD5 JUMP JUMPDEST SWAP1 POP SWAP2 SWAP1 POP JUMP JUMPDEST PUSH32 0x556E617574686F72697A65642061636365737300000000000000000000000000 PUSH0 DUP3 ADD MSTORE POP JUMP JUMPDEST PUSH0 PUSH2 0x2049 PUSH1 0x13 DUP4 PUSH2 0x180D JUMP JUMPDEST SWAP2 POP PUSH2 0x2054 DUP3 PUSH2 0x2015 JUMP JUMPDEST PUSH1 0x20 DUP3 ADD SWAP1 POP SWAP2 SWAP1 POP JUMP JUMPDEST PUSH0 PUSH1 0x20 DUP3 ADD SWAP1 POP DUP2 DUP2 SUB PUSH0 DUP4 ADD MSTORE PUSH2 0x2076 DUP2 PUSH2 0x203D JUMP JUMPDEST SWAP1 POP SWAP2 SWAP1 POP JUMP INVALID LOG2 PUSH5 0x6970667358 0x22 SLT KECCAK256 0xC7 0xB2 0xD EXTCALL 0xCF CALLDATALOAD BALANCE 0xBC SWAP12 0xB8 0x29 LOG4 CODESIZE CALLVALUE DUP5 0x2D CALLDATACOPY 0xBE 0xC3 PUSH14 0xAB088B4F8AB876B64E16D8FC6473 PUSH16 0x6C634300081E00330000000000000000 "
				},
				"gasEstimates": {
					"creation": {
						"codeDepositCost": "1674200",
						"executionCost": "50373",
						"totalCost": "1724573"
					},
					"external": {
						"authorizeManufacturer(address)": "30809",
						"authorizedManufacturers(address)": "2900",
						"completeTransaction(bytes32,bytes32)": "infinite",
						"contractOwner()": "2574",
						"createTransaction(bytes32,bytes32,bytes32,bytes32,bytes32,address)": "infinite",
						"getCurrentOwner(bytes32)": "7269",
						"getTransaction(bytes32)": "infinite",
						"getUserTransactions(address)": "infinite",
						"isRegistered(bytes32)": "2899",
						"registerProduct(bytes32,bytes32,bytes32)": "infinite",
						"revokeManufacturer(address)": "30827"
					}
				},
				"methodIdentifiers": {
					"authorizeManufacturer(address)": "089e1b39",
					"authorizedManufacturers(address)": "24b04245",
					"completeTransaction(bytes32,bytes32)": "dbe1b0e5",
					"contractOwner()": "ce606ee0",
					"createTransaction(bytes32,bytes32,bytes32,bytes32,bytes32,address)": "05ca1ec2",
					"getCurrentOwner(bytes32)": "3aea18cc",
					"getTransaction(bytes32)": "4aae13ca",
					"getUserTransactions(address)": "ef925399",
					"isRegistered(bytes32)": "27258b22",
					"registerProduct(bytes32,bytes32,bytes32)": "c763fe2e",
					"revokeManufacturer(address)": "18b45238"
				}
			},
			"storageLayout": {
				"storage": [
					{
						"astId": 25,
						"contract": "SupplyChain.sol:PharmaceuticalSupplyChain",
						"label": "currentOwner",
						"offset": 0,
						"slot": "0",
						"type": "t_mapping(t_bytes32,t_address)"
					},
					{
						"astId": 30,
						"contract": "SupplyChain.sol:PharmaceuticalSupplyChain",
						"label": "transactions",
						"offset": 0,
						"slot": "1",
						"type": "t_mapping(t_bytes32,t_struct(Transaction)21_storage)"
					},
					{
						"astId": 35,
						"contract": "SupplyChain.sol:PharmaceuticalSupplyChain",
						"label": "userTransactions",
						"offset": 0,
						"slot": "2",
						"type": "t_mapping(t_address,t_array(t_bytes32)dyn_storage)"
					},
					{
						"astId": 39,
						"contract": "SupplyChain.sol:PharmaceuticalSupplyChain",
						"label": "isProductRegistered",
						"offset": 0,
						"slot": "3",
						"type": "t_mapping(t_bytes32,t_bool)"
					},
					{
						"astId": 43,
						"contract": "SupplyChain.sol:PharmaceuticalSupplyChain",
						"label": "authorizedManufacturers",
						"offset": 0,
						"slot": "4",
						"type": "t_mapping(t_address,t_bool)"
					},
					{
						"astId": 45,
						"contract": "SupplyChain.sol:PharmaceuticalSupplyChain",
						"label": "contractOwner",
						"offset": 0,
						"slot": "5",
						"type": "t_address"
					}
				],
				"types": {
					"t_address": {
						"encoding": "inplace",
						"label": "address",
						"numberOfBytes": "20"
					},
					"t_array(t_bytes32)dyn_storage": {
						"base": "t_bytes32",
						"encoding": "dynamic_array",
						"label": "bytes32[]",
						"numberOfBytes": "32"
					},
					"t_bool": {
						"encoding": "inplace",
						"label": "bool",
						"numberOfBytes": "1"
					},
					"t_bytes32": {
						"encoding": "inplace",
						"label": "bytes32",
						"numberOfBytes": "32"
					},
					"t_mapping(t_address,t_array(t_bytes32)dyn_storage)": {
						"encoding": "mapping",
						"key": "t_address",
						"label": "mapping(address => bytes32[])",
						"numberOfBytes": "32",
						"value": "t_array(t_bytes32)dyn_storage"
					},
					"t_mapping(t_address,t_bool)": {
						"encoding": "mapping",
						"key": "t_address",
						"label": "mapping(address => bool)",
						"numberOfBytes": "32",
						"value": "t_bool"
					},
					"t_mapping(t_bytes32,t_address)": {
						"encoding": "mapping",
						"key": "t_bytes32",
						"label": "mapping(bytes32 => address)",
						"numberOfBytes": "32",
						"value": "t_address"
					},
					"t_mapping(t_bytes32,t_bool)": {
						"encoding": "mapping",
						"key": "t_bytes32",
						"label": "mapping(bytes32 => bool)",
						"numberOfBytes": "32",
						"value": "t_bool"
					},
					"t_mapping(t_bytes32,t_struct(Transaction)21_storage)": {
						"encoding": "mapping",
						"key": "t_bytes32",
						"label": "mapping(bytes32 => struct PharmaceuticalSupplyChain.Transaction)",
						"numberOfBytes": "32",
						"value": "t_struct(Transaction)21_storage"
					},
					"t_struct(Transaction)21_storage": {
						"encoding": "inplace",
						"label": "struct PharmaceuticalSupplyChain.Transaction",
						"members": [
							{
								"astId": 4,
								"contract": "SupplyChain.sol:PharmaceuticalSupplyChain",
								"label": "encryptedProductId",
								"offset": 0,
								"slot": "0",
								"type": "t_bytes32"
							},
							{
								"astId": 6,
								"contract": "SupplyChain.sol:PharmaceuticalSupplyChain",
								"label": "encryptedSerialNumber",
								"offset": 0,
								"slot": "1",
								"type": "t_bytes32"
							},
							{
								"astId": 8,
								"contract": "SupplyChain.sol:PharmaceuticalSupplyChain",
								"label": "encryptedShipperId",
								"offset": 0,
								"slot": "2",
								"type": "t_bytes32"
							},
							{
								"astId": 10,
								"contract": "SupplyChain.sol:PharmaceuticalSupplyChain",
								"label": "encryptedReceiverId",
								"offset": 0,
								"slot": "3",
								"type": "t_bytes32"
							},
							{
								"astId": 12,
								"contract": "SupplyChain.sol:PharmaceuticalSupplyChain",
								"label": "timestamp",
								"offset": 0,
								"slot": "4",
								"type": "t_uint256"
							},
							{
								"astId": 14,
								"contract": "SupplyChain.sol:PharmaceuticalSupplyChain",
								"label": "transactionHash",
								"offset": 0,
								"slot": "5",
								"type": "t_bytes32"
							},
							{
								"astId": 16,
								"contract": "SupplyChain.sol:PharmaceuticalSupplyChain",
								"label": "isCompleted",
								"offset": 0,
								"slot": "6",
								"type": "t_bool"
							},
							{
								"astId": 18,
								"contract": "SupplyChain.sol:PharmaceuticalSupplyChain",
								"label": "shipperAddress",
								"offset": 1,
								"slot": "6",
								"type": "t_address"
							},
							{
								"astId": 20,
								"contract": "SupplyChain.sol:PharmaceuticalSupplyChain",
								"label": "receiverAddress",
								"offset": 0,
								"slot": "7",
								"type": "t_address"
							}
						],
						"numberOfBytes": "256"
					},
					"t_uint256": {
						"encoding": "inplace",
						"label": "uint256",
						"numberOfBytes": "32"
					}
				}
			},
			"userdoc": {
				"kind": "user",
				"methods": {},
				"version": 1
			}
		}
	}
}